:100000000C9414080C945B080C945B080C94C32E9D
:100010000C945B080C945B080C945B080C945B08D4
:100020000C945B080C945B080C94111A0C94CD1979
:100030000C94FD2C0C945B080C945B080C945B08EE
:100040000C945B080C945B080C945B080C945B08A4
:100050000C945B080C941A160C945B080C945B08C7
:100060000C945B080C945B080C945B080C945B0884
:100070000C945B080C945B080C945B080C945B0874
:100080000C945B080C945B080C945B080C945B0864
:100090000C945B080C945B080C945B080C945B0854
:1000A0000C945B080C945B080C945B080001010144
:1000B0000101010101010202020202020202020325
:1000C00003030303030303040404040404040505F5
:1000D00005050506060606060707070707080808B8
:1000E00008090909090A0A0A0B0B0B0C0C0C0D0D67
:1000F0000D0E0E0E0F0F0F101011111112121313FF
:100100001414151516161717181819191A1A1B1B77
:100110001C1D1D1E1E1F20202122222324242526D3
:1001200026272829292A2B2C2D2D2E2F303132320B
:10013000333435363738393A3B3C3D3E3F40414217
:10014000434445464748494A4C4D4E4F50515354FD
:10015000555658595A5B5D5E5F61626465666869B1
:100160006B6C6D6F7072737577787A7B7D7E808231
:10017000838587888A8C8E8F91939596989A9C9E7A
:10018000A0A2A3A5A7A9ABADAFB1B3B5B7BABCBE8A
:10019000C0C2C4C6C9CBCDCFD1D4D6D8DBDDDFE257
:1001A000E4E7E9EBEEF0F3F5F8FAFDFFFFAA7F557F
:1001B000402223252628292A2C2D2F30323335366C
:1001C000383A3B3D3E4042434547494A4C4E5051E8
:1001D000535557595A5C5E6062646668696B6D6F0F
:1001E00071737577797B7D7F81838587898A8C8E12
:1001F00090929496989A9C9E9FA1A3A5A7A8AAAC1A
:10020000AEAFB1B3B4B6B8B9BBBCBEBFC1C2C3C553
:10021000C6C7C9CACBCCCDCED0D1D2D2D3D4D5D6F5
:10022000D7D7D8D9D9DADADBDBDBDCDCDCDCDCDD28
:10023000DDDDDDDCDCDCDCDCDBDBDBDADAD9D9D80C
:10024000D7D7D6D5D4D3D2D2D1D0CECDCCCBCAC9A4
:10025000C7C6C5C3C2C1BFBEBCBBB9B8B6B4B3B1D3
:10026000AFAEACAAA8A7A5A3A19F9E9C9A9896946E
:1002700092908E8C8A89878583817F7D7B79777543
:1002800073716F6D6B6968666462605E5C5A595722
:10029000555351504E4C4A4947454342403E3D3BE1
:1002A0003A3836353332302F2D2C2A29282625236B
:1002B0002200AF0000000005001A0015000700141E
:1002C000002942000000000A0017000B001600047D
:1002D00000D75C115010501900060010001B001DC3
:1002E00000E00029422C4128644C00E3000000009B
:1002F000000000000000000D00090018001300338A
:10030000002E00000000001C001100080012000C6C
:10031000003400125013500E000F00360037003822
:10032000002D0028432C422B002A00E6000000008C
:1003300000000000000000310230022F021F021EE8
:1003400002010000000000350027022602210220E1
:1003500002010001000100350230002F00230222BB
:100360000201002E00330001000100010000000026
:100370000000000000000001000100010001000178
:10038000003100000000002E022D0038002502225E
:100390000234000100010024022E0036003700382C
:1003A000002D002E003300010001000100000000BC
:1003B000000000000000002200210020001F001E9D
:1003C00000010000000000A900AB00AE00AC00017D
:1003D00000010001000100AA00A8000100010001C5
:1003E0000001000100010001000100010000000007
:1003F0000000000000000023002400250026002744
:10040000000100000000004A00500052004F004B65
:10041000000100010001004D000100510001004EEB
:1004200000010001000100010001000100000000C6
:1004300000000000000000BB5CBC5CBE5CBD5C0654
:100440005C0F5C00000000C35CC95CC55CC75CCB92
:100450005CC25C01000100C45CCA5CC65CC85CCCC8
:100460005C0100D15CD05CCF5CCE5CCD5C00000058
:100470000000000000000001005F00600061005704
:100480000054000000000001005C005D005E0056AA
:1004900000550001000100010059005A005B00678F
:1004A000005800D25CD35CD45C62006300000000A2
:1004B00000000000DA12818FD9F1DB40A4A62EAF34
:1004C00000A0C000A1C800AED580A83FD300408DD9
:1004D00014200032190A00047F3F1F643214643272
:1004E00014783C1E1E140A058081828384858687C9
:1004F00088898A8B8C8D8E8F9091929394A0A1A2E3
:10050000A3A4A5A6A7A8A9AAABACADAEAFB0B1B243
:10051000B3B4C0C1C2C3C4C5C6C7C8C9CACBCCCD99
:10052000CECFD0D1D2D3D400202020202020200034
:100530005343524C434B20002020202020202000F9
:100540004341504C434B20002020202020202000FD
:100550004E554D4C434B2000556E646566696E6583
:10056000640A004E756D7061640A004172726F77A3
:10057000730A0053796D626F6C730A00446566619B
:10058000756C740A004C617965723A20004B79727F
:10059000696120726576312E300A0A000000000081
:1005A0000000000000000000008080C0E0F07078D3
:1005B000383C1C1E0E0E0E07070707070707070724
:1005C000070707070707070E0E0E1E1C3C3878703A
:1005D000F0E0C0808000000000000000000000008B
:1005E000000000000000000000000000000000000B
:1005F00000000000000000000000000000000000FB
:1006000000000000000000000000000000000000EA
:1006100000000000000000000000000000000000DA
:10062000000000C0E0F07C3E1F0F07030180C0E027
:10063000F078383C1C1E0E0E070787E77F1FFFFF70
:100640001F7FE78707070E0E1E1C3C3878F0E0C0BE
:10065000800103070F1F3E7CF0E0C0000000000097
:10066000000000000000000000000000000000008A
:10067000000000000000000000000000000000007A
:10068000000000000000000000000000000000006A
:10069000000000000000000000000000000000005A
:1006A000F0FCFF1F07010000C0F0FCFEFFF7F3B1F4
:1006B000B03030303030303078FE87010000FFFF3E
:1006C00000000187FE7830303030303030B0B1F388
:1006D000F7FFFEFCF0C0000001071FFFFCF0000068
:1006E000000000000000000000000000000000000A
:1006F00000000000000000000000000000000000FA
:1007000000000000000000000000000000000000E9
:10071000000000000000000000000000000000FFDA
:10072000FFFF0000000000FEFFFF0101071E78E14F
:1007300081838386868C8C9898B1B7FEF8E0FFFFA2
:10074000E0F8FEB7B198988C8C8686838381E17837
:100750001E070101FFFFFE0000000000FFFFFF0079
:10076000000000FFFF0000C0C030300000F0F000CB
:100770000000000000F0F00000F0F0C0C0303030A9
:1007800030C0C000003030F3F30000000000003043
:100790003030303030C0C00000000000000000FFEA
:1007A000FFFF00000000007FFFFF8080E0781E87D1
:1007B00081C1C16161313119198DED7F1F07FFFFC3
:1007C000071F7FED8D191931316161C1C181871E0C
:1007D00078E08080FFFF7F0000000000FFFFFF0047
:1007E0000000003F3F03030C0C30300000000033DA
:1007F00033333333330F0F00003F3F00000000005E
:10080000000000000030303F3F303000000C0C335F
:1008100033333333333F3F0000000000000000005B
:100820000F3FFFF8E0800000030F3F7FFFEFCF8D09
:100830000D0C0C0C0C0C0C0C1E7FE1800000FFFF5B
:10084000000080E17F1E0C0C0C0C0C0C0C0D8DCFED
:10085000EFFF7F3F0F03000080E0F8FF3F0F000035
:100860000000000000000000000000000000000088
:100870000000000000000000000000000000000078
:100880000000000000000000000000000000000068
:100890000000000000000000000000000000000058
:1008A00000000003070F3E7CF8F0E0C08001030762
:1008B0000F1E1C3C38787070E0E0E1E7FEF8FFFFA7
:1008C000F8FEE7E1E0E0707078383C1C1E0F07038B
:1008D0000180C0E0F0F87C3E0F070300000000003C
:1008E0000000000000000000000000000000000008
:1008F00000000000000000000000000000000000F8
:1009000000000000000000000000000000000000E7
:1009100000000000000000000000000000000000D7
:10092000000000000000000000010103070F0E1E80
:100930001C3C3878707070E0E0E0E0E0E0E0E0E07F
:10094000E0E0E0E0E0E0E070707078383C1C1E0E03
:100950000F0703010100000000000000000000007C
:100960000000000000000000000000000000000087
:100970000000000000000000000000000000000077
:100980000000000000000000000000000000000067
:1009900000000000000000000000000000AE0501A3
:1009A0000902A10185020901A10005091901290512
:1009B00015002501950575018102950175038101D9
:1009C0000501093009311581257F950275088106D9
:1009D00009381581257F950175088106050C0A38AF
:1009E000021581257F950175088106C0C0050109A2
:1009F00080A101850319012AB700150126B70095CA
:100A00000175108100C0050C0901A10185041901BF
:100A10002AA002150126A002950175108100C005CB
:100A2000010906A101050719E029E715002501952F
:100A300008750181029501750881010507190029D2
:100A4000FF150026FF0095067508810005081901AD
:100A50002905950575019102950175039101C0095C
:100A6000023B00020100A0FA090400000103010199
:100A7000000921110100012240000705810308003F
:100A80000A0904010001030000000921110100010D
:100A90002281000705820320000A120110010000D4
:100AA0000008EDFE00000100010203010403300014
:100AB00000001E034B0079007200690061002000F5
:100AC0004B006500790062006F00610072006400F5
:100AD00000001003730070006C00690074006B006C
:100AE00062000000040309040000000000003E5BF7
:100AF0004F5B3E003E6B4F6B3E001C3E7C3E1C003D
:100B0000183C7E3C18001C577D571C001C5E7F5E05
:100B10001C0000183C180000FFE7C3E7FF000018A6
:100B200024180000FFE7DBE7FF0030483A060E001C
:100B3000262979292600407F05050700407F0525E5
:100B40003F005A3CE73C5A007F3E1C1C0800081C32
:100B50001C3E7F0014227F2214005F5F005F5F0055
:100B600006097F017F00006689956A006060606009
:100B7000600094A2FFA2940008047E0408001020E4
:100B80007E20100008082A1C0800081C2A080800FB
:100B90001E10101010000C1E0C1E0C0030383E38B9
:100BA0003000060E3E0E06000000000000000000AF
:100BB0005F000000000700070000147F147F14008E
:100BC000242A7F2A12002313086462003649562023
:100BD0005000000807030000001C224100000041F3
:100BE000221C00002A1C7F1C2A0008083E0808005E
:100BF00000807030000008080808080000006060ED
:100C000000002010080402003E5149453E00004209
:100C10007F4000007249494946002141494D330057
:100C20001814127F10002745454539003C4A4949B0
:100C3000310041211109070036494949360046492A
:100C400049291E000000140000000040340000008C
:100C5000000814224100141414141400004122143A
:100C600008000201590906003E415D594E007C1200
:100C700011127C007F49494936003E414141220022
:100C80007F4141413E007F49494941007F090909AF
:100C900001003E41415173007F0808087F00004178
:100CA0007F4100002040413F01007F0814224100A5
:100CB0007F40404040007F021C027F007F040810FC
:100CC0007F003E4141413E007F09090906003E4147
:100CD00051215E007F091929460026494949320001
:100CE00003017F0103003F4040403F001F204020A0
:100CF0001F003F4038403F006314081463000304A2
:100D0000780403006159494D4300007F414141008F
:100D1000020408102000004141417F00040201024A
:100D200004004040404040000003070800002054F9
:100D3000547840007F284444380038444444280014
:100D4000384444287F0038545454180000087E0961
:100D5000020018A4A49C78007F08040478000044D2
:100D60007D4000002040403D00007F1028440000EE
:100D700000417F4000007C04780478007C08040473
:100D80007800384444443800FC18242418001824FF
:100D90002418FC007C08040408004854545424001F
:100DA00004043F4424003C4040207C001C204020A0
:100DB0001C003C4030403C004428102844004C902B
:100DC00090907C004464544C44000008364100007C
:100DD0000000770000000041360800000201020414
:100DE00002003C2623263C0000000000000040409A
:100DF00040F0F8F8FF38FFF8F83FF8F8FF38FFF850
:100E0000F8F040404000000000000080C0C0C080FA
:100E10000000C0C08000000080C0C000C0C0000052
:100E200080C0C00000000000C0C0C0C0C000C0C082
:100E300000000000000000000000000000000000B2
:100E400000000000000000000000000000000000A2
:100E50000000000000000000000000000000000092
:100E600000000000000000C0F0F8FC3E1E0601007B
:100E700000007F4141417F007F4141417F00008070
:100E8000C0E07E5B4F5BFEC00000C000DCD7DEDE52
:100E9000DED7DC00C0000000000000000000000001
:100EA00000000000000000000000000000004949B0
:100EB00049FFFFFFFFE0DFBFBF00BFBFDFE0FFFF75
:100EC000FFFF49494900000000001F3F6060E0BF8C
:100ED0001F007F7F071E381E077F7F007F7F0E1F4A
:100EE0003B716000000000007F7F0C0C0C007E7ED8
:100EF000007F7E0303007F7E03037E7E03037F7EED
:100F0000000F3E703C063C703E0F00327B49493F6B
:100F10007E007F7E0303001E3F69696F260000008C
:100F200000000000000000030F1F3F3C78706000CD
:100F300000007F4141417F007F4141417F00307B84
:100F40007F7830202030787F3B0003000F7F0F0F29
:100F50000F7F0F00030000000000000000000000F1
:100F6000000000000000000000000000000001017F
:100F700001070F0F7F0F7F0F0F7E0F0F7F0F7F0F68
:100F80000F07010101000000000000000000000147
:100F90000100000000000000000000000000000050
:100FA0000000000000000000000000000000000041
:100FB0000000000000000000000000000000000031
:100FC0000000000000000000000000000000000021
:100FD0000000000000000000000000000000000011
:100FE0000000000000000000000000000000000001
:100FF00000000000000000000000000000000000F1
:1010000000000000000000000000000000000000E0
:1010100000000000000000000000000000000000D0
:10102000000000000000000011241FBECFEFDAE036
:10103000DEBFCDBF04B603FE27C08091B4079091F8
:10104000B507A091B607B091B7078730904BA7407E
:10105000B04BD1F41092B4071092B5071092B607B6
:101060001092B70714BE84B7877F84BF0FB6F89479
:10107000A895809160008861809360001092600064
:101080000FBEE0E0F8E3099527E0A8ECB1E001C06D
:101090001D92A43BB207E1F711E0A0E0B1E0E8EF58
:1010A000F2E602C005900D92A83CB107D9F70E9464
:1010B0005F260C9442310C940000E8EDF0E0808152
:1010C0008E7F80831092E2001092DA001092E1008D
:1010D000A0EEB0E08C9181608C9380818F778083CB
:1010E00019BCA7EDB0E08C918E7F8C9380818F7EB0
:1010F000808310928F0308952091E4003091E500E1
:1011000095E6A9012091EC00822F817020FF06C096
:101110008091E80080FF06C080E008952091E800FB
:1011200022FD1AC080919C03882389F0853089F0C4
:101130008091EB0085FD0FC02091E4003091E50027
:1011400042175307F9F29150E1F684E0089582E0E6
:10115000089583E0089581E00895EF92FF920F9340
:101160001F93CF937C018B010E947C08C82F8111B3
:1011700017C08091E80085FD0BC08091E8008E7754
:101180008093E8000E947C08882399F3C82F08C048
:10119000F70181917F018093F1000150110949F716
:1011A0008C2FCF911F910F91FF90EF900895809118
:1011B0009E0387FF13C08091E80082FF06C08091E4
:1011C000E8008B778093E80004C080919C03811134
:1011D000F2CF089580919C038823D9F38091E80091
:1011E00080FFF8CF8091E8008E77ECCF982F909316
:1011F000E900242F762F50E0891731F07091EC0030
:101200002091ED005091F00021FD07C09F5F9730C5
:1012100071F78093E90081E008953091EB003E7F03
:101220003093EB003091ED003D7F3093ED00309135
:10123000EB0031603093EB007093EC002093ED00F5
:101240005093F0002091EE0027FDE0CF80E008955C
:10125000CF92DF92EF92FF920F931F93CF93DF9382
:10126000C8EDD0E088818F7E8883E7EDF0E0808153
:101270008160808384E082BF81E080938F038881D6
:101280008E7F888302EE10E0F80110821092DA005F
:1012900081EEC82ED12CF601108288818F77888349
:1012A00088818068888388818F7D888319BC1092AB
:1012B0009C0310929D0310929B0310929A0390EE50
:1012C000E92EF12CF70180818B7F808388818160FA
:1012D000888342E060E080E00E94F608F6018081A9
:1012E0008E7F8083F8018081816080838081886027
:1012F0008083F70180818E7F8083888180618883ED
:10130000DF91CF911F910F91FF90EF90DF90CF90E1
:101310000895FC018091A4039091A5038617970777
:10132000A0F06115710529F49091E8009E779093E3
:10133000E80090E06115710551F4911108C08091A9
:10134000E80082FF34C080E00895BC01F2CF8091B4
:101350009C038823C1F18530C1F18091E80083FDB1
:1013600030C08091E80082FDEACF8091E80080FFE4
:10137000E1CF8091F3002091F200382F61157105C3
:1013800019F02830310558F091E02830310509F086
:1013900090E02091E8002E772093E800CBCF819158
:1013A0008093F100615071092F5F3F4FE7CF80912B
:1013B0009C03882341F0853041F08091E80083FF51
:1013C000BECF81E0089582E0089583E00895809182
:1013D0009C03843011F482E0089581E0089508951B
:1013E00080919103089590918103803F41F4809111
:1013F000820387FD10928203992371F00895813F43
:1014000029F4809182031816ACF3F6CF823F81F461
:1014100097FFF2CF10928103809182039091830312
:10142000892B90918403892B49F710927C030895AE
:10143000833F19F4191674F3DFCF893F39F4809193
:1014400083031816CCF610928303D6CF8A3F29F473
:101450008091830387FFD0CFF6CF8B3F39F4809103
:10146000840387FFC9CF10928403C6CF8C3F29F431
:10147000809184031816BCF3BFCF843F31F4809170
:1014800080038E7F80938003B7CF853F21F48091C6
:1014900080038D7FF7CF863F21F4809180038B7F7F
:1014A000F1CF873F21F480918003877FEBCF883F86
:1014B00021F4809180038F7EE5CF8D3F31F48091C0
:1014C000F8028E7F8093F80297CF8E3F21F48091AF
:1014D000F8028D7FF7CF8F3F09F08ECF8091F80211
:1014E0008B7FF0CF8091F80280FD16C081FD16C081
:1014F00082FD16C080917C038823A1F0883280F49D
:1015000028E0829FC001112468E270E00E94FE2F53
:10151000862F672B39F0089582E0089584E00895BE
:1015200088E0089581E008958091F80280FD14C05C
:1015300081FD14C082FD16C080917C03882381F058
:10154000843180F422E3829FC001112464E170E0C1
:101550000E94FE2F862F08958CE0089589E108955A
:1015600085E0089582E30895803F31F40E94940A53
:101570008195809382030895813F19F40E94940A13
:10158000F8CF823F31F40E94940A819580938103C1
:101590000895833F19F40E94940AF8CF893F29F4F3
:1015A0000E94720A8093830308958A3F21F40E9467
:1015B000720A8195F7CF8B3F31F40E94720A8195B0
:1015C0008093840308958C3F19F40E94720AF8CF27
:1015D000843F31F48091800381608093800308957B
:1015E000853F21F4809180038260F7CF863F21F40C
:1015F000809180038460F1CF873F21F48091800344
:101600008860EBCF883F21F4809180038061E5CF33
:101610008D3F31F48091F80281608093F802089543
:101620008E3F21F48091F8028260F7CF8F3FB9F7A7
:101630008091F8028460F1CF9C014FB7F8948091BB
:101640006E0390916F03A0917003B09171034FBF2F
:10165000821B930B08958091F30281111092F30283
:1016600008958091F2029091F102892B9091F002FD
:10167000892B8093C8019091F302992391F0892BD3
:101680008093C80120E08AEC91E0FC013191CF0108
:1016900031112F5FF1E0803D9F07B9F721110E94C2
:1016A0002B0BE0910703F0910803309731F0028093
:1016B000F381E02D88EC91E009940895EAECF1E0E3
:1016C0009191891303C0DF0111971C9291E0E03DD5
:1016D000F907B1F70895AAECB1E0EFEF90E02D9192
:1016E000821751F0EF3F19F4211101C0E92F9F5FDC
:1016F0009630A9F7EF3F09F408950E2E000CFF0B6A
:10170000E853FE4F82830895990F990F990F890F1F
:10171000982F977086958695869525E0829FF00193
:101720001124E953FD4F50E040E080E0219130E08A
:10173000092E02C0369527950A94E2F721703327C7
:10174000042E01C0220F0A94EAF7822B4F5F5F4FED
:101750004530510559F70895990F990F990F890F41
:10176000982F977041E001C0440F9A95EAF786954B
:101770008695869595E0899FF0011124E953FD4FE8
:1017800030E020E070E05191DF011197CB01022E93
:1017900002C0969587950A94E2F781708195852716
:1017A000842385278C932F5F3F4F2530310559F7D0
:1017B00008958091C60290919502981301C00895F2
:1017C0008F5F8770FACF882341F080959091F20265
:1017D00089238093F2020C94310B0895882339F009
:1017E0009091F202982B9093F2020C94310B089591
:1017F00020918B0230918C022817390771F0909359
:101800008C0280938B02E0910703F09108033097DC
:1018100021F00084F185E02D09940895209189023A
:1018200030918A022817390771F090938A028093C9
:101830008902E0910703F0910803309721F00680B8
:10184000F781E02D09940895E0910703F0910803D2
:10185000309721F00190F081E02D099480E0089507
:10186000FA01811101C0FB010994E0E2F3E0118269
:10187000828184608283089580911B03982F9E7FCC
:1018800029F48170826080931B0308958635E8F304
:1018900081708465F8CFAF92BF92DF92EF92FF9292
:1018A0000F931F93CF93DF93082F162FE901E42F97
:1018B000F0E0E455FF4F611110C0E4915E2F4E2F10
:1018C0004983E8835A83DF91CF911F910F91FF9055
:1018D000EF90DF90BF90AF900895E62EF12C4491E9
:1018E000D42EE42FF0E026E0829FC00111242FEFD8
:1018F00030E0B9010E94EA2F802F90E0880F991FF5
:1019000055E5569FD001579FB00D11248A1B9B0BA4
:10191000982F990F890F5901AE18BF08AE9ED001BC
:10192000AF9EB00DBE9EB00D11245B2F189F80019D
:101930001124012F11275901A01AB10AAE9E80016E
:10194000AF9E100DBE9E100D11245901A81AB108AA
:10195000AE9CC001AF9C900DBE9C900D1124892FB0
:101960009927281B390B2E9FC0012F9F900D3E9F5A
:10197000900D1124E92F62307105A1F050F461152A
:10198000710509F49DCF6130710581F0EB2F512F66
:1019900097CF6430710569F080F06630710509F405
:1019A0008FCFF4CFE42F4B2F592F8ACFE42F412F25
:1019B00087CFEB2F542F492F83CF4B2F5D2DE12F56
:1019C0007FCF9091030392FF06C0282F2871283003
:1019D000F9F4877F846093FF06C0282F287128318F
:1019E000F1F4877E84612091040320FF06C0382F24
:1019F00038713830D9F4877F816021FF06C0282FE5
:101A000028712831D1F4877E816194FD877E089505
:101A1000282F24712430F9F68B7F8860DCCF282FA3
:101A20002471243101F78B7E8861DDCF382F31712D
:101A3000313019F78E7F8860E0CF282F2171213156
:101A400021F78E7E8861E1CFCF93DF9328E0829FDC
:101A5000C0011124FC01E70FF11DA3E0EE0FFF1FF1
:101A6000AA95E1F7E60FF11DEE0FFF1FED54FD4FB4
:101A7000C591D491CE01C238D105B9F1E8F5C13391
:101A8000D10509F499C050F5C932D10509F48DC0CA
:101A9000CA32D10509F497C0C11531E5D30708F062
:101AA000BFC0C11520E5D20708F016C1C83ED10558
:101AB00008F09DC0C13ED10568F5C83AD10508F0CF
:101AC00089C0C53AD10508F0FFC0C130D10511F178
:101AD000209709F443C02497E8F440C0C533D105EA
:101AE00009F45CC0C933D105B9F620910303237012
:101AF00089F080EE90E00EC0C33ED10591F168F40C
:101B0000C03ED105F9F0C23ED10531F62091030364
:101B100022FD20C0DF91CF910895C63ED10561F12D
:101B2000C73ED10581F1C43ED10509F0B5CF209162
:101B3000040321FFEFCF8091030384FD0FC087EEE4
:101B400090E0E8CF2091030320FD12C130910403FF
:101B500030FFE0CF83EE90E024FFDCCF90E080E028
:101B6000D9CF2091030322FD06C13091040330FD3B
:101B7000C0CF24FFCFCFF2CF2091030323FFCACFE2
:101B800024FDECCFDCCF2091030323FDF7C030917F
:101B9000040331FFEECF84EE90E0BCCF209103032D
:101BA00025FFB8CF89E290E0B5CF2091030325FF50
:101BB000B1CF85E390E0AECF2091030326FFAACFFB
:101BC0008AE290E0A7CF2091030326FFA3CF81E311
:101BD00090E0A0CFCF3BD10508F6C85AD0E0CC0F9B
:101BE000DD1FC759DE4F88819981946493CFC11559
:101BF00030E2D30760F4C11521E0D20708F08ACFA4
:101C0000CE019065C03FD10508F084CFA7CFC115A4
:101C100030E4D30708F4A2CFCE019F70906A7ACF48
:101C2000C11585E5D80710F5C11524E5D20708F0E0
:101C300088C0C11533E5D30708F06FC0C11582E530
:101C4000D80708F465C09E012370332781E090E037
:101C500002C0880F991F2A95E2F7C695C69520E223
:101C6000C29FE00111248C2B9D2B50C0C11529E58A
:101C7000D207A0F4C11538E5D30708F067C0C11535
:101C800086E5D80708F06ACF8C2F0E94E10C90E01F
:101C9000982F882788279F7190623CCFC1152AE52D
:101CA000D20708F458C0CE0190568115904208F032
:101CB00055CF8D2F8F710E94E10C90E0982F8827CF
:101CC00088279F718C2BE8CFC55AD0E0CA59DE4FC8
:101CD000888190E090641ECF9E01E4E036952795C0
:101CE000EA95E1F723708C2F86958695837030E214
:101CF000839FC0011124922BC37021E030E002C009
:101D0000220F331FCA95E2F7822B932B9C6802CFD8
:101D10009C2F8827816F906AFDCE9E012370332708
:101D200081E090E002C0880F991F2A95E2F7C695DE
:101D3000C69530E2C39FE00111248C2B9D2B9A683D
:101D4000E9CE9C2F8827846F906AE4CE9C2F882749
:101D5000806F906ADFCE8C2F8F700E94E10C34E090
:101D6000D695C7953A95E1F7CF709C2F9069D2CE62
:101D700089E390E0CFCE82EE90E0CCCE86EE90E08C
:101D8000C9CEBF92CF92DF92EF92FF920F931F9333
:101D9000CF93DF938C01C0902803D0902903E0906B
:101DA0002A03F0902B038091F4029091F502A09108
:101DB000F602B091F702C82AD92AEA2AFB2ACFE113
:101DC000D0E0BC2ED701C6010C2E04C0B695A79555
:101DD000979587950A94D2F780FD0EC0219788F7D2
:101DE000B12C8B2DDF91CF911F910F91FF90EF9030
:101DF000DF90CF90BF900895B8018C2F0E94240DE2
:101E0000019761F3EECFCF93DF93EC010E94C10EF7
:101E1000BE01DF91CF910C94240D0E94030F292F56
:101E20002F7092959F7092509E3078F4E92FF0E0D9
:101E3000EC5BFE4C0C941230803F19F020F4883E8D
:101E400020F481E00895843FE1F380E00895883E26
:101E5000C0F3813FD1F7F5CF822F86958695869581
:101E60000895CF93DF93C091AF07D091B0078A3028
:101E7000C1F42091A603CE01895A9340622F70E0ED
:101E80000E94EA2F281B822F66E00E94D02FC82FC5
:101E9000C15018F4DF91CF91089580E20E94310F74
:101EA000F7CF8D30E9F4C95AD3402091A603622FB1
:101EB00070E0CE010E94EA2F281B822F9E01280F7E
:101EC000311D2115344018F080E0D0E0C0E0C80F8B
:101ED000D11DC755DC4FD093B007C093AF07DACF01
:101EE00096E0FE01A9EAB7E001900D929A95E1F71C
:101EF000803E08F454C086E0FE0111928A95E9F70D
:101F0000C091AF07D091B00746E050E0BE0189EA2A
:101F100097E00E948A30C95AD3409E012A5F3F4F02
:101F2000892B21F186E0D695C7958A95E1F741E0A6
:101F300050E0CA0102C0880F991FCA95E2F760916C
:101F4000A7037091A803862B972BB901E6E076953D
:101F50006795EA95E1F702C0440F551F6A95E2F7CD
:101F6000842B952B9093A8038093A7034091A603FD
:101F7000642F70E0C9010E94EA2F481B463010F41C
:101F8000240F311D211584E0380710F030E020E0E7
:101F900027553C4F3093B0072093AF077BCFF6E037
:101FA0008F9FB00111246851754F46E050E0CE017B
:101FB0000E947430A5CFCF93DF93EC01FE01849192
:101FC000811103C0DF91CF9108950E94310F2196B6
:101FD000F5CFCF92DF92EF92FF920F931F93CF93A3
:101FE000DF936C017B0164E670E088E70E942A2D94
:101FF000EC0197FD12C010E000E0F601E00FF11FC8
:10200000849164E670E00E94862DEC01892B29F40E
:102010000F5F1F4F0E151F0581F70E94092ECE017D
:10202000DF91CF911F910F91FF90EF90DF90CF90B4
:1020300008952FB7F89480916E0390916F03A0914B
:102040007003B09171032FBF805A9541AF4FBF4FBE
:102050008093720390937303A0937403B0937503FA
:1020600080917603811108C062E070E081EB92E01C
:102070000E94E90F892B19F080917603089581E081
:1020800080937603F9CFCF9384E090E00E9497305D
:10209000C82F81E290E00E949730982F8C2FCF912B
:1020A0000895CF93DF9300D00F92CDB7DEB7909114
:1020B0009C03943019F589837B836A8382E0809343
:1020C000E9008FEF9091E800815095FD06C095EDF5
:1020D0009A95F1F700008111F5CF8091E80085FF16
:1020E0000DC050E040E063E070E0CE0101960E9438
:1020F000AD088091E8008E778093E8000F900F90F4
:102100000F90DF91CF910895CF93DF93EC010E9460
:10211000E709823011F0843031F4BE0184E0DF91B0
:10212000CF910C945110DF91CF910895BC0183E0C1
:102130000C945110CF93DF93EC010E94E709823099
:1021400011F08430F9F482E08093E9008FEF9091F0
:10215000E800815095FD06C095ED9A95F1F70000D5
:102160008111F5CF8091E80085FF0CC050E040E080
:1021700066E070E0CE010E94AD088091E8008E77A5
:102180008093E800DF91CF910895CF93DF93EC0126
:102190000E94E709823011F0843039F581E08093A4
:1021A000E9008FEF9091E800815095FD06C095ED14
:1021B0009A95F1F700008111F5CF8091E80085FF35
:1021C00014C050E040E068E070E0CE010E94AD082D
:1021D0008091E8008E778093E80088E0FE01A2E914
:1021E000B3E001900D928A95E1F7DF91CF910895C8
:1021F0006091120180911B0380FF20C0809111012A
:1022000043E0849FC001112489519E4F539A2BB102
:10221000277F3BB138605FB7F894FC01649FE00D05
:10222000F11D1124BF0168177907D1F45FBF8FE555
:1022300094E00197F1F700C0000008958091130128
:102240009091140123E0829FF0011124E951FE4F87
:102250008917A0F61182108212828F5F3396F8CF11
:10226000FC014191CF01E8E03BB9000000C047FF0D
:102270002BB9440F000000C000C000C02BB900C043
:10228000EA9591F7D0CF8F929F92AF92BF92CF9263
:10229000DF92EF92FF920F931F93CF93DF93FC0196
:1022A000B280948081E0848300E015E05BE4A52E99
:1022B00088248394EE24EA94F12C7BE4C72ED12C5D
:1022C00080911501081770F0DF91CF911F910F9148
:1022D000FF90EF90DF90CF90BF90AF909F908F9046
:1022E0000C94F810C02FD0E01C9FF0011D9FF00D42
:1022F0001124ED5DFD4F91101CC0138212822091BC
:102300001301CE01820F911D9C01220F331F280F54
:10231000391F29513E4F1C9FF0011D9FF00D1124C4
:10232000ED5DFD4F4281618180810E944B0C0F5F0A
:10233000C7CF2381222379F12150238334818A2D31
:10234000821B311101C0822F1C9FF0011D9FF00DD7
:102350001124ED5DFD4F90911E03899FC001112452
:10236000B6010E94EA2F6283211104C0332311F0C9
:102370001482A38222E02B1510F21C9FF0011D9FF6
:10238000F00D1124ED5DFD4F80911C038083809141
:102390001D038183B4CF0E946430823091400CF0E1
:1023A000AECF82E08B1530F50E946430B7010E94F9
:1023B000FE2F1C9FF0011D9FF00D1124ED5DFD4FC0
:1023C000808322E02B15C8F40E94643020911D0305
:1023D0002695622F70E00E94FE2F280F1C9FF001AF
:1023E0001D9FF00D1124ED5DFD4F21831282A3820C
:1023F000848285CF80911C03DCCF20911D03EECF1A
:10240000EF92FF921F93CF93DF93EC0110E0EE2445
:10241000EA94F12C60911501161770F00E94F810E3
:102420009A818C8190FF27C08F5F8C83DF91CF9141
:102430001F91FF90EF90089520911301422F410FBB
:102440005527551FCA019A01220F331F280F391F24
:1024500029513E4F70E0C7010E94FE2F962F8C81BC
:1024600040911E0360911D03199F800D11240E944D
:102470004B0C1F5FCFCF8150D8CF8F929F92AF92DE
:10248000BF92CF92DF92EF92FF920F931F93CF9361
:10249000DF93EC018A81BB24BA9480FD02C0BB2487
:1024A000B394A09015018C81811109C081E0B8120C
:1024B00028C08FEF8A0D8093E40181E08C83F12C9A
:1024C000E12C44E1942EEA14F8F00E94F810809177
:1024D000E40191E0B9125FC0811158C080911501EB
:1024E00081508093E4011C82DF91CF911F910F9165
:1024F000FF90EF90DF90CF90BF90AF909F908F9024
:1025000008951092E401D9CF009113010E0D1F2DF3
:10251000111DC801880F991F080F191F09511E4F5F
:10252000F80111821082128234E0C32ED12C812C4A
:102530008091E401880D85312CF1692D0E94DC2FFA
:10254000892F082E000C990B8E159F0591F4809110
:102550001E038C9DA0018D9D500D1124559547950E
:1025600055954795980160911D0380911C030E9429
:102570004B0C8B0CF1E0CF1AD108D1F68FEFE81A93
:10258000F80AA1CF87FFDDCF8A0DDBCF8150809382
:10259000E401BC82A9CF90E001966091150170E042
:1025A0000E94FE2F8093E4018C839ECFEF92FF92D6
:1025B0000F931F93CF93DF93EC018C81811109C09E
:1025C00081E08C831092E50192E09093100180935A
:1025D0000F01809113019091140123E0829FF0017B
:1025E0001124E951FE4F891768F110E003E0609172
:1025F0001501161768F10E94F81080910F012091C3
:10260000E501280F2093E50190911001980F909318
:102610001001191654F4022E000C330B40911501D1
:102620004150550B2417350734F0819580930F01E5
:10263000813009F41C82DF91CF911F910F91FF909F
:10264000EF9008951182108212828F5F3396CBCF64
:10265000E12EF12C70E0C7010E94FE2F20911301A2
:10266000820F482F50E02091E501022E000C330B21
:10267000E216F306BCF020911001022E000C330B81
:102680002E153F057CF0809F9001112429513E4F6B
:1026900040911E0360911D0380911C030E944B0C0E
:1026A0001F5FA5CFFA01EE0FFF1FE40FF51FE951E1
:1026B000FE4F118210821282F3CF0F931F93CF939C
:1026C000DF938C01FC0184819581019681709927AB
:1026D00095838483C0E0D5E580911501C81730F05B
:1026E000DF91CF911F910F910C94F810209113015D
:1026F000422F4C0F5527551FCA019A01220F331F35
:10270000280F391F29513E4F8C2F8695F80144819F
:102710005581840F952F911D817040911E0360910A
:102720001D038D9F802D11240E944B0CCF5FD4CFB1
:102730000F931F93CF93DF93EC0110E000E0909193
:1027400015019017110609F06CF40E94F8108C81A5
:1027500090E00196817099278C83DF91CF911F9132
:102760000F91089520911301A801420F511D9A0164
:10277000220F331F240F351F29513E4F4C8160918A
:102780001D0380911C0396959017110651F04CF093
:10279000442349F040911E030E944B0C0F5F1F4FD2
:1027A000CECF4423B9F340E0F7CF90911B0390FFC5
:1027B00014C0909113012091140133E0939FF00114
:1027C0001124E951FE4F921710F00C94F8108183F8
:1027D000608342839F5F3396F6CF08950F931F93D4
:1027E000CF93DF9300D00F92CDB7DEB78C018091ED
:1027F000E60181110AC09E012F5F3F4F4FEF6FEF3F
:102800000E944B0C8A818093E601F801648161305B
:1028100069F08091E60140E0662361F040E06230BB
:1028200011F44091E60180E060E004C06091E601AF
:1028300040E080E00E94D513F801848190E0019689
:1028400063E070E00E94FE2F84830F900F900F9042
:10285000DF91CF911F910F910895CF93DF9300D017
:102860000F92CDB7DEB790911B0390FF0AC09E0177
:102870002F5F3F4F0E944B0C4B8169818A810E94E0
:10288000D5130F900F900F90DF91CF910895CF93B4
:10289000DF93EC01EC81F0E0EF54FE4F4491EBE16B
:1028A000F3E0628181810E942D148C818F5F8C8383
:1028B000DF91CF910895CF93DF93EC01EBE1F3E04B
:1028C000438162818C810E942D148C818F5F8C8367
:1028D000DF91CF9108958091E301811111C0809122
:1028E000D80080618093D8008AE18A95F1F700C012
:1028F0009091D900892F817090FF82E08093E3014D
:1029000081E09091E301913009F080E00895CF9249
:10291000DF92EF92FF926B017C010E943C0CB701A9
:10292000A60188E090E0FF90EF90DF90CF900C94AC
:10293000BD3080911F03833018F48F5F80931F0395
:1029400060911B0370911C0380911D0390911E03E5
:102950000C94871480911F03882319F08150809371
:102960001F0360911B0370911C0380911D039091C4
:102970001E030C948714AF92BF92CF92DF92EF9216
:10298000FF920F931F93CF93DF9300D00F92CDB799
:10299000DEB7182FF62E042FE22E90911B0390FF26
:1029A0003AC0E92FE695AE2FB0E0A55CBE4F8C9102
:1029B000809320039E7F9230E1F59E012F5F3F4F71
:1029C000812F0E944B0C4B8169818A810E94D51313
:1029D00080911C03811308C080911D038F1104C0D6
:1029E00080911E03801729F08091220382608093DA
:1029F000220310931C03F0921D0300931E03EE208C
:102A000051F060911B0370911C0380911D03909104
:102A10001E030E9487140F900F900F90DF91CF91AB
:102A20001F910F91FF90EF90DF90CF90BF90AF90EC
:102A30000895823019F400911E03CACF863019F42C
:102A400010911C03C5CF8930D9F3893109F6E951BA
:102A50008E2F8170D82EE695F0E0E455FE4FA590BC
:102A6000B490C12CBB2460911501C61618F00E94C9
:102A7000F810AECF2C2D30E0A29EC001A39E900D89
:102A8000B29E900D112470E00E94EA2F812FD11088
:102A900013C0860F40911301420F532F511D9A010D
:102AA000220F331F240F351F29513E4F402F6F2D0A
:102AB0000E944B0CC394D7CF861BECCFEBE1F3E025
:102AC000438128E0421B08F440E021E062818181DB
:102AD0000C94BB14EBE1F3E0438128E0420F08F4CF
:102AE0004FEF21E0628181810C94BB14EBE1F3E0B4
:102AF000628128E0621B08F460E021E0438181816B
:102B00000C94BB14EBE1F3E0628128E0620F08F45F
:102B10006FEF21E0438181810C94BB14EBE1F3E082
:102B2000818121E04381628188500C94BB14EBE1E8
:102B3000F3E0818121E043816281885F0C94BB14C2
:102B4000EBE1F3E083E0808311828FEF8283838364
:102B50001482A0E2B3E012968C91129783601296D1
:102B60008C9360817181828193810C9487146CEEC7
:102B70007EEF90E080E00E94C93060E082E090E06B
:102B80000E94AB3060E083E090E00E94AB30109296
:102B9000F4021092F5021092F6021092F70260E031
:102BA00084E090E00E94AB3060E081E290E00E941F
:102BB000AB3060E085E090E00E94AB3060E086E002
:102BC00090E00E94AB306FEF87E090E00E94AB3066
:102BD00040E050E0BA0188E090E00E94BD3060E043
:102BE0008DE090E00E94AB3040E050E0BA0188E117
:102BF00090E00E94BD3060E087E190E00E94AB3041
:102C000040E050E0BA018CE190E00E94BD3060E00D
:102C100080E290E00E94AB3040E050E0BA018FE0EB
:102C200090E00E94BD3040E050E0BA0183E190E0C6
:102C30000C94BD3078941F921FB61F9211248F936D
:102C40009F93AF93BF9380916E0390916F03A09178
:102C50007003B09171030196A11DB11D80936E03A5
:102C600090936F03A0937003B0937103BF91AF91E2
:102C70009F918F911F901FBE1F9018952FB7F894AA
:102C800080916E0390916F03A0917003B0917103D6
:102C90002FBF0895E0910703F0910803309749F0A2
:102CA00082E080937F030480F581E02D8FE793E03D
:102CB00009950E943E1690937B0380937A030895B2
:102CC0001092F1021092F0020E94310B86E0EFE7C1
:102CD000F3E0DF011D928A95E9F710927C031092D0
:102CE000F8020E944A1690E080E00E940E0C90E0EC
:102CF00080E00C94F80B0F931F938B019C010670DE
:102D0000112722273327063011052105310569F4E3
:102D10006860609328037093290380932A0390933B
:102D20002B031F910F910C946016677FF2CF0F93C6
:102D30001F9341E050E060E070E004C0440F551F75
:102D4000661F771F8A95D2F7CB01BA0160957095FF
:102D500080959095009128031091290320912A03D2
:102D600030912B0360237123822393231F910F91B2
:102D70000C947B169091EF02809589238093EF024B
:102D8000282F277071F4282F082E000C330B921770
:102D9000130639F08595859585950E9497161092B2
:102DA000EF0208950F931F9341E050E060E070E060
:102DB00004C0440F551F661F771F8A95D2F7809174
:102DC000280390912903A0912A03B0912B038A0133
:102DD0009B01082B192B2A2B3B2BC901B8011F91F2
:102DE0000F910C947B166093F4027093F50280931C
:102DF000F6029093F7020C9460161092F202EAEC3D
:102E0000F1E086E0DF011D928A95E9F70C946016E7
:102E10001F93CF93DF93CDB7DEB7AA970FB6F89481
:102E2000DEBF0FBECDBF8EE993E02091F100FC0123
:102E30002193CF01F3E0863A9F07B9F780919F0372
:102E4000833009F46FC0B8F4813009F446C0823091
:102E500009F4B0C08091E80083FF87C280919E038F
:102E600090919F039A3008F080C2E92FF0E0EE5A6B
:102E7000FE4C0C9412308A3009F48BC08B3009F46C
:102E80006EC0893039F780919E03813219F78091A5
:102E9000A2039091A3030297E8F68091E800877F50
:102EA0008093E8008091E80082FF37C09091F300A2
:102EB0008091F200029729F48091F1008B7F81309C
:102EC00021F48091F100809391038091E8008B7749
:102ED0008093E8000E94D708BDCF80919E03813A7D
:102EE00009F0B8CF8091E800877F8093E800809157
:102EF000A2039091A303892B61F468E082E993E037
:102F000070E00E9489098091E8008B778093E80047
:102F1000A1CF60E090E080E0F3CF80919C0381112D
:102F2000C1CF98CF80919E03813A09F093CF8091D1
:102F3000A2039091A303892B09F08CCF8091E80024
:102F4000877F8093E8008091E80080FFFCCF80912C
:102F50003A018093F1008091E8008E77B9CF80919B
:102F60009E03813209F076CF8091A2039091A30352
:102F7000892B09F06FCF8091E800877F8093E8006C
:102F80000E94D7088091A00380933A010E94FD1609
:102F900061CF80919E03813209F05CCF8091E8007F
:102FA000877F8093E8000E94D7088091A1038093D7
:102FB000900350CF80919E03813A09F04BCF8091CE
:102FC000E800877F8093E8008091E80080FFFCCFD5
:102FD00080919003BECF803899F0823809F0C5C146
:102FE0008091A2038F70873008F0BFC18093E90001
:102FF0008091EB0085FB882780F91092E90006C0DC
:1030000080919A0390919B03911182609091E800C6
:10301000977F9093E8008093F1001092F1008091E7
:10302000E8008E779EC1882309F48CC1823009F0B4
:103030009CC18091A00381118FC18091A2038F70E8
:103040002FEF280F263008F090C18093E9002091DF
:10305000EB0020FF81C1933031F48091EB0080625E
:103060008093EB0079C19091EB0090619093EB001D
:1030700021E030E001C0220F8A95EAF72093EA00B0
:103080001092EA008091EB008860EACF81116DC157
:103090001091A0031F778091E3008078812B8093AB
:1030A000E3008091E800877F8093E8000E94D708C2
:1030B0008091E80080FFFCCF8091E30080688093DE
:1030C000E30082E0111183E080939C034EC180589D
:1030D000823008F04AC18091A0039091A1038C3DF9
:1030E00023E09207A1F583E08A838AE289834FB7C0
:1030F000F894DE01139620E03EE051E2E32FF0E089
:1031000050935700E49120FF03C0E295EF703F5FBA
:10311000EF708E2F90E0EA30C0F0C7968D939D93AC
:103120002F5F243159F74FBF8091E800877F80934C
:10313000E8006AE270E0CE0101960E948909809160
:10314000E8008B778093E80010C1C096E7CF4091EC
:10315000A2035091A303292F33272330310509F40B
:1031600045C078F52130310509F47BC08BE390E050
:10317000EFE5FAE02230310509F0F7C02091E800D0
:10318000277F2093E8002091A4033091A5038217A4
:10319000930708F49C0140E02115310509F070C047
:1031A00041116EC08091E80082FDC9CF80919C03DF
:1031B000882329F2853019F28091E80083FFF2CF4D
:1031C000BECF2132310509F440C02232310509F069
:1031D000CCC04115510509F44EC04130510509F0EC
:1031E000C4C081E890E0EEE9F9E0C8CF99278130CA
:1031F0009105D9F0009771F082309105F1F00397B5
:1032000009F0B3C0ECEAFAE0E4918E2F90E0ECEA2A
:10321000FAE007C0E4EEFAE0E4918E2F90E0E4EEED
:10322000FAE0009709F4A1C0A9CFE2EDFAE0E49139
:103230008E2F90E0E2EDFAE0F4CFE2EBFAE0E491D9
:103240008E2F90E0E2EBFAE0ECCF4115510571F0E2
:103250004130510509F089C089E090E0EAE8FAE0E0
:103260008DCF82E190E0EAE9FAE088CF89E090E052
:10327000E1E7FAE083CF80E490E0EFE1FAE07ECF8F
:1032800080919C03882309F45ACF853009F457CFE5
:103290008091E80083FD53CF8091E80082FD82CFCA
:1032A0008091E80080FF78CF9091F3008091F20048
:1032B0002115310519F08830910550F041E008974B
:1032C00009F040E08091E8008E778093E80064CFB9
:1032D00044914093F1003196215031090196E8CF95
:1032E000803809F042C08091E800877F8093E80031
:1032F00080919D038093F10092CE811136C0109190
:10330000A003123090F58091E800877F8093E80059
:1033100010939D030E94D708112311F084E005C08B
:103320008091E30087FDFACF81E080939C0342E027
:1033300061EC81E00E94F60842E261EC82E00E94CA
:10334000F60813C08091A003813079F481E09330B6
:1033500009F080E080939B031092E9008091E800DF
:10336000877F8093E8000E94D7088091E80083FF60
:103370000AC08091E800877F8093E8008091EB008D
:1033800080628093EB00AA960FB6F894DEBF0FBE62
:10339000CDBFDF91CF911F9108951F920F920FB66D
:1033A0000F9211242F933F934F935F936F937F93CB
:1033B0008F939F93AF93BF93CF93DF93EF93FF933D
:1033C000D091E900DF708091EC00C82FC17080FDC2
:1033D000C0E81092E9008091F000877F8093F000B0
:1033E00078940E9408171092E9008091F00088609C
:1033F0008093F000CD2BCF70C093E900FF91EF9147
:10340000DF91CF91BF91AF919F918F917F916F91FC
:103410005F914F913F912F910F900FBE0F901F9092
:1034200018951F920F920FB60F9211242F933F936E
:103430004F935F936F937F938F939F93AF93BF93BC
:10344000EF93FF938091E10082FF09C08091E20039
:1034500082FF05C08091E1008B7F8093E100809125
:10346000DA0080FF24C08091D80080FF20C08091C6
:10347000DA008E7F8093DA008091D90080FF9FC0B0
:1034800080E189BD82E189BD09B400FEFDCF81E004
:1034900080939C0380918F03811109C00E945D0875
:1034A0000E9428098091E20084608093E20080916C
:1034B000E10080FF17C08091E20080FF13C080917F
:1034C000E2008E7F8093E2008091E2008061809331
:1034D000E2008091D80080628093D80019BC85E01A
:1034E00080939C038091E10084FF2DC08091E200D5
:1034F00084FF29C080E189BD82E189BD89B5982F0B
:10350000917080FFFBCF8091D8008F7D8093D80091
:103510008091E1008F7E8093E1008091E2008F7EB8
:103520008093E2008091E20081608093E2008091CC
:103530009D03882309F449C084E080939C030E9482
:10354000FD160E94240C8091E10083FF27C080912A
:10355000E20083FF23C08091E100877F8093E10038
:1035600082E080939C0310929D038091E1008E7F06
:103570008093E1008091E2008E7F8093E200809151
:10358000E20080618093E20042E060E080E00E941F
:10359000F6088091F00088608093F000FF91EF9131
:1035A000BF91AF919F918F917F916F915F914F915B
:1035B0003F912F910F900FBE0F901F90189519BC3F
:1035C00010929C0310928F0372CF8091E30087FDCD
:1035D00093E090939C03B3CF882309F459C08238B9
:1035E00071F40E94240C81FF53C089E30E946B0B8D
:1035F0000E94310B89E30E945E0B0C94310B8338DF
:1036000059F40E94240C80FF43C083E50E946B0B99
:103610000E94310B83E5EFCF843859F40E94240CCB
:1036200082FF36C087E40E946B0B0E94310B87E457
:10363000E2CF9CEF980F913AF0F290E2980F983019
:1036400088F4877021E030E0A90102C0440F551FC3
:103650008A95E2F7CA0180959091F20289238093BE
:10366000F202CBCF9BE5980F933020F490E080E0FE
:103670000C940E0C98E5980F973120F490E080E0C0
:103680000C94F80B803F20F00E94F3090C944A162A
:103690000895CF93C82F882309F490C08238C1F4CD
:1036A0000E94240C81FD8AC089E30E946B0B0E945A
:1036B000310B2FEF81EE94E0215080409040E1F7F4
:1036C00000C0000089E30E945E0BCF910C94310B87
:1036D0008338A1F40E94240C80FD70C083E50E9411
:1036E0006B0B0E94310B2FEF81EE94E02150804054
:1036F0009040E1F700C0000083E5E5CF8438A1F4F5
:103700000E94240C82FD5AC087E40E946B0B0E9429
:10371000310B2FEF81EE94E0215080409040E1F793
:1037200000C0000087E4CFCF8CEF8C0F813A68F4A3
:10373000EAECF1E08191C817D9F121E0E03DF20710
:10374000C9F78C2F0E946B0BC0CF80E28C0F8830A2
:1037500068F4C77021E030E001C0220FCA95EAF793
:103760008091F202822B8093F202AFCFEBE5EC0F57
:10377000E33040F4F0E0EA59FE4F808190E0CF91D1
:103780000C940E0CE8E5EC0FE73150F4F0E0EE0F8E
:10379000FF1FE759FE4F80819181CF910C94F80B68
:1037A000C03F60F08C2F0E94B40ACF910C944A164F
:1037B0008C2F0E945E0B0E94310BC3CFCF910895D6
:1037C000CF93C82F0E94491B8C2FCF910C94EC1AD9
:1037D000811106C089EA611101C08AEA0C94E01BDC
:1037E000813029F48EE46111F9CF8BE4F7CF08958D
:1037F0000F931F93CF93DF93C62FD42F022FFC017B
:1038000082818823A1F060938D020E943E169093DE
:10381000880280938702C77081E001C0880FCA9533
:10382000EAF7DF91CF911F910F910C94EE0B10915D
:103830008D02161335C080918702909188020E94F4
:103840001C0B883C910560F5C0E2CD0F1D17B9F047
:1038500080E2810F883040F4177081E001C0880F4A
:103860001A95EAF70E94E30BC83048F481E09D2FD7
:10387000977001C0880F9A95EAF70E94EE0B802F8F
:103880000E94E01BC83098F4D77081E001C0880F17
:10389000DA95EAF7DF91CF911F910F910C94E30B2A
:1038A000C77081E001C0880FCA95EAF7F3CFDF91B6
:1038B000CF911F910F91089560911B03669570E061
:1038C0004BE050E084E091E00E947D30892B19F4B8
:1038D00081E0809321030E943E169093160380930B
:1038E00015038091220384608093220308959091B0
:1038F0001B0390FF3BC0917081112EC0926090938A
:103900001B0380912203816080932203662351F080
:1039100060911B0370911C0380911D0390911E0305
:103920000E94871460911B03669570E04BE050E0A5
:1039300084E091E00E947D30892BA9F00E94350C33
:1039400081E08093180320E040911E0360911D03E5
:1039500080911C030C94BB148B3210F09465CFCF74
:10396000880F982BCCCF0E945C1CEACF08958091E1
:103970001B038695815009F48AE261E00C94771C60
:1039800080911B0386958F5F8B3208F081E061E0A8
:103990000C94771C90911B0390FF07C09695981785
:1039A00020F0961710F40C94C01C61E00C94771C66
:1039B0003F924F925F926F927F928F929F92AF92BF
:1039C000BF92CF92DF92EF92FF920F931F93CF930C
:1039D000DF9300D000D00F92CDB7DEB77C01FC01A1
:1039E00083819481892B39F010810181812F80237B
:1039F0008F3F09F0FAC40F900F900F900F900F9027
:103A0000DF91CF911F910F91FF90EF90DF90CF90BA
:103A1000BF90AF909F908F907F906F905F904F90EE
:103A20003F9008950E94C10ED82E682F89819A81F7
:103A30000E94AC0B28E0D29EF0011124E00FF11D92
:103A4000A3E0EE0FFF1FAA95E1F7E10FF11DEE0FC6
:103A5000FF1FED54FD4F05911491033F3CE5130703
:103A600009F494C0B8F5083D9CE5190709F48AC02B
:103A7000093DECE51E0709F495C0073DFCE51F076D
:103A8000B9F526E241EE61EEC7010E94F81B809174
:103A9000EF02877009F4AFCFF7018281882309F420
:103AA000AACF82E00F900F900F900F900F90DF91B0
:103AB000CF911F910F91FF90EF90DF90CF90BF902B
:103AC000AF909F908F907F906F905F904F903F90BE
:103AD0000C94BA16053F2CE5120709F45FC008F4F0
:103AE00059C027E245EE66EE063F8CE5180761F205
:103AF000F7019281992309F489C410928D02023052
:103B0000FCE51F0708F42FC106312CE5120738F039
:103B100098012A5F3C452930310508F024C10E94F4
:103B20004310909304038093030300313CE5130793
:103B300009F4E8C008F076C008309CE5190709F4DC
:103B4000D7C008F045C00430FCE51F0709F4C8C021
:103B500060F502303CE5130709F4B8C003301C459A
:103B600009F4BAC0609103031091040384E090E06B
:103B70000E94AB30612F81E290E00E94AB300E9446
:103B8000FD1685CF27E245EE65EE7ECF26E241EEBB
:103B900060EE7ACF27E245EE64EE76CF26E241EE84
:103BA00062EE72CF28E241E0EFCF809103038061A3
:103BB00006309CE5190709F48CC0809103038860E6
:103BC00007301C4508F485C080910303806281C0E2
:103BD000809103038D7F0C30FCE51F0709F479C049
:103BE00070F4809103038C600A303CE5130709F4FC
:103BF00070C008F481C0809103038E7F6AC08091F9
:103C00000303877F0E309CE5190709F462C0809199
:103C100003038B7F0F301C4508F45BC080910303C6
:103C20008F7E57C00B3FFCE51F0709F45DC030F5E0
:103C300003313CE5130709F46DC078F401319CE5CC
:103C4000190709F463C002311C4509F08BCF0E94AB
:103C5000FD16809103038F773CC00531FCE51F07FB
:103C600009F460C008F474C08091040381600A3FC5
:103C70001C4509F077CF8093040374CF0F3F8CE588
:103C8000180709F44BC088F4809104038D7F0D3F21
:103C9000ECE51E0781F3809104038E7F0E3F1C45E7
:103CA00050F3809104038360E6CF01302DE51207C5
:103CB00009F457C008F442C060E002301D4509F025
:103CC00051CF8EE090E00E94AB304CCF8091030347
:103CD00081608093030346CF809103038260F9CF14
:103CE000809103038460F5CF809104038260C3CF89
:103CF000809103038064EDCF0E94FD168091030341
:103D00008068E7CF809103038F7DE3CF8091030329
:103D10008F7BDFCF80910303837FDBCF8091040310
:103D20008C7FA9CF8091030382FB992790F921E032
:103D3000922790FB82F990FB83F9CBCF809104030B
:103D4000982F909591708E7F892B90FB81F993CF5E
:103D50000E94FD1690910303892F97FB87F98058E5
:103D6000B8CF61E0AECF0631ECE51E0709F060C3C5
:103D70008091F2028A7A91E009F490E090938E02A9
:103D8000811106C089E20E946B0B0E94310B7FCE2D
:103D900085E3F9CF80918E02811104C089E20E94EF
:103DA0005E0BF3CF85E3FBCF80911B0380FF20C028
:103DB0008E7F80931B0360911B0370911C03809185
:103DC0001D0390911E030E9487140E94350C809160
:103DD0002203816080932203FFEF20E732E0F1505D
:103DE00020403040E1F700C000000E94F8104FCEA4
:103DF000816080931B0361E086950E94771C47CE0B
:103E000047EB5CE160EC7CE10E94300C40CE40EC82
:103E10005CE167EB7CE1F8CF4EE855E167E975E1DD
:103E2000F3CF47E955E16EE875E1EECF46E755E19E
:103E300062E875E1E9CF42E855E166E775E1E4CF74
:103E40004EE555E16AE675E1DFCF4AE655E16EE5FC
:103E500075E1DACF4AEA54E169E974E1D5CF49E97D
:103E600054E16AEA74E1D0CF61E081E0C6CF65E059
:103E700082E00E94CA1C0BCE68E086E0FACF6EE0BA
:103E800089E0F7CF64E18FE0F4CF67E185E1F1CF1E
:103E900061E088E1B2CF62E289E1EBCF61E083E2E9
:103EA000ACCF0E94FD168FEF94E3ECE08150904080
:103EB000E040E1F700C0000081E08093E00080E294
:103EC0008093D8001092C9008FE19EE40197F1F72A
:103ED00000C0000087E090EBDC018093B407909372
:103EE000B507A093B607B093B70788E19CE00FB67B
:103EF000F894A895809360000FBE90936000FFCF68
:103F00000E94B715C4CDC8010E94840BD82EA7C249
:103F1000212F2F70C22E107F19F0C29450EFC522AE
:103F2000AA20C9F0CC2069F080E28B0D883010F017
:103F300001110BC08091F202C82AC092F2020E94C5
:103F4000310B8B2D0E94491B19C08091F102C82AA8
:103F5000C092F102F4CF8B2D0E94EC1ACC2071F0AC
:103F6000C09480E28B0D883010F0011148C0809120
:103F7000F202C822C092F2020E94310BED2DE850ED
:103F8000FF0B349710F40E94240C3320A9F0809189
:103F9000EF0280FD11C0F701128285958595859508
:103FA0000E94D216C7010E94D81C8091EF0285950D
:103FB000859585950E94971685E0F701DE0111969B
:103FC00001900D928A95E1F789819A810E94840B74
:103FD000F8E08F9FC0011124EA818E0F911D23E02C
:103FE000880F991F2A95E1F7E981E80FF92FF11D54
:103FF000EE0FFF1FED54FD4F85919491FCCC809105
:10400000F102C822C092F102B7CF312F3F70C32E08
:10401000107F103219F0C29440EFC422002369F0DF
:10402000013061F1AA20B9F1992071F1F701858180
:1040300080FF87CF8F70858327C0AA2091F0909151
:10404000F3028C2D892B911003C00E94EE0B96CFAA
:10405000E1E09E12FACF981709F490CF8093F30213
:104060008DCF911006C00E942B0B8C2D0E94E30B6C
:1040700085CFF1E09F1609F481CFF5CFAA2031F06A
:1040800025E0291508F47ACF8C2DDFCF34E03915DF
:1040900008F474CFEACF992041F3093349F4FFEFD4
:1040A00027EE33E0F15020403040E1F700C000003F
:1040B0008B2D0E94EC1A62CF812F86958695837096
:1040C00069F0813009F05ACF8B2D912F9370A11098
:1040D00002C090E080E00E94F80B50CF8B2D912F12
:1040E0009370A11002C090E080E00E940E0C46CFB9
:1040F0008B2DAA2029F00E94B40A0E944A163ECFB6
:104100000E94F309FACF812F837009F06CC0A110CF
:1041100035CF8B2D829586958770880F880F6B2DF4
:104120006F70462E512C712C612C082E04C0440C4B
:10413000551C661C771C0A94D2F740E050E0BA0187
:10414000B4FE0FC04FE050E060E070E004C0440FE8
:10415000551F661F771F8A95D2F740955095609539
:104160007095169516951370123019F1A8F5809078
:10417000F4029090F502A090F602B090F702113090
:1041800069F04429552966297729CB01BA016821AC
:1041900079218A219B210E94F316F0CE842895284C
:1041A000A628B728CB01BA01682979298A299B2931
:1041B000F2CF44295529662977298090F4029090FE
:1041C000F502A090F602B090F702CB01BA01682583
:1041D00079258A259B25DFCFCB01BA016429752972
:1041E00086299729D8CF8695AA2011F0812F817032
:1041F000882309F4C3CE8B2D829586958770880F0E
:10420000880F6B2D6F70462E512C712C612C082E4F
:1042100004C0440C551C661C771C0A94D2F740E07D
:1042200050E0BA01B4FE0FC04FE050E060E070E033
:1042300004C0440F551F661F771F8A95D2F740951B
:10424000509560957095169516951370123019F16A
:10425000A8F58090280390902903A0902A03B0909D
:104260002B03113069F04429552966297729CB01A0
:10427000BA01682179218A219B210E947B167ECE7A
:1042800084289528A628B728CB01BA01682979295E
:104290008A299B29F2CF44295529662977298090BC
:1042A000280390902903A0902A03B0902B03CB0100
:1042B000BA01682579258A259B25DFCFCB01BA0174
:1042C0006429752986299729D8CF1F70AA2029F03B
:1042D000812F0E94D2168B2DB8CE8B2D0E94E30B1E
:1042E000812F0E9497164ACE8B2D023F09F44AC0B7
:1042F00060F4003FF9F0013FE9F1AA2009F465C03C
:1043000091101FCE812F8F713AC0033F09F43FC037
:10431000043F99F7AA2009F44DC01F71812F0E9414
:10432000D216E8E01E9FC001112483608093EF0243
:10433000812F25C0AA20C9F084E0891508F41ECE7B
:104340001F7161E070E080E090E004C0660F771FAD
:10435000881F991F1A95D2F78090280390902903FF
:10436000A0902A03B0902B03A4CF95E0991508F4F0
:1043700005CEE6CF812F8F71AA2009F4B2CF0E941B
:10438000D216FCCD812F8F71AA20C9F3AACF60E08D
:1043900070E0CB01AA2009F470CF1F7161E070E0DA
:1043A00080E090E004C0660F771F881F991F1A9560
:1043B000D2F763CF81E00E94BA16F1E0F91508F058
:1043C000DDCD82E00E94BA16D9CD992059F089330B
:1043D00009F06ECE2FEF37EE83E021503040804061
:1043E000E1F764CE812F8F717CCF85E0DE011196DD
:1043F00001900D928A95E1F7F701228189819A81D6
:10440000211110CB0E94840BD82E14CB0631FCE571
:104410001F0709F4BFCC8091F2028272F801E25CBE
:10442000FC45E431F10568F4E45AFE4C0C9412307A
:1044300001152CE5120709F434CD0E3D1C4509F495
:104440005FCDF70100811181992309F45CCDC8018A
:104450000E94C10ED82E682FC8010E94AC0BB80173
:104460008D2D0E94240DB82E192F082FF70195804D
:1044700092947FE09722A280A1101092F102809185
:10448000EF02877099F0AA2089F0812F807F803415
:1044900021F080E28B0D883048F082E00E94BA164D
:1044A0008091EF028770332433948111312CD12E07
:1044B000D2946FE0D622FBE0FD1508F45FCDED2D20
:1044C000F0E0E059FE4C0C9412301F93CF93DF9331
:1044D00080919402807FA9F480919102882389F0D1
:1044E0008091C602D091950260918F0270919002E6
:1044F000A0919202B0919302C62FC72316E0D81361
:1045000004C0DF91CF911F91089590E0109711F0B2
:10451000CF3F19F401968770F2CF189F9001199F31
:10452000300D1124F901EA56FD4F41814713F2CFB6
:1045300040814613EFCF42814111ECCF438154813A
:104540004A1B5B0B483C510528F7809194028F7001
:10455000806180939402F901E556FD4F80818F7050
:10456000806180838FE892E00E94D81CDF91CF9118
:104570001F910C94D90BAF92BF92CF92DF92EF9222
:10458000FF920F931F93CF93DF93CDB7DEB7619761
:104590000FB6F894DEBF0FBECDBF8C0185E0F801E9
:1045A000DE011D9601900D928A95E1F7F801808158
:1045B0009181E2802FE8A22E22E0B22E6091920239
:1045C000709193026115710509F43EC130918F021B
:1045D00040919002232F24232F3F09F435C1C3803B
:1045E000D480F0909102F601E61BF70BFF2009F44E
:1045F000FBC020919402522F507FE83CF10508F057
:10460000BBC0511178C0FE2C491321C038131FC004
:10461000E1101DC02F70206120939402C5010E94FB
:10462000D81C80919402F80185838F2D61960FB676
:10463000F894DEBF0FBECDBFDF91CF911F910F91D8
:10464000FF90EF90DF90CF90BF90AF900895CD286E
:1046500029F0282F29232F3F09F014C120E0F22F41
:10466000F170DF2E20FF3DC02091C60240919502DF
:1046700056E0241315C08D879E878D859E850E94E8
:10468000030F292F22952F702230F8F0243020F5C7
:104690009F70F9F0F8019581907FD9F4D12C1FC05B
:1046A00030E0529FF001539FF00D1124EA56FD4F68
:1046B0006181961306C06081861303C06281E61291
:1046C00010C02F5F3F4F2770D4CF9F7011F0882309
:1046D00029F3805E883010F3C8010E94D81CFD2C9D
:1046E000A4CFEE2009F4A1CF809194028160809341
:1046F0009402F12C9ACF491312C0381310C0E11064
:104700000EC0F8012583C8010E94D81C86E0F8017C
:10471000AFE8B2E001900D928A95E1F786CF8D87E0
:104720009E878D859E850E940D0F882309F1EE20BE
:10473000F9F080919402803270F020918F023091D4
:10474000900238872F831986DB86CA868C87CE0134
:1047500007960E94D81C86E0F801AFE8B2E001900D
:104760000D928A95E1F70E946522FF24F3945DCFB4
:10477000C8010E94D81CF9CF51110AC08FE892E0FD
:104780000E94D81C86E0F50111928A95E9F7B1CF15
:1047900049130FC038130DC0E1100BC0F801258379
:1047A000C8010E94D81C86E0F50111928A95E9F7AC
:1047B0003CCF8D879E878D859E850E940D0F882317
:1047C000B9F2EE20A9F280919402803220F2209179
:1047D0008F02309190023A8329831B82DD82CC8242
:1047E0008E83CE010196B5CFE83CF105E0F6FE2CB4
:1047F000EE2009F4BDCF491316C0381314C08091C0
:10480000940280FD83CF982F907F09F47FCFF80129
:104810008583903F09F477CF982F907F905F8F70BA
:10482000892B858370CF8D879E878D859E850E947D
:104830000D0F811190CF809194028160809394023A
:10484000C8010E94D81CF1CEEE2009F491CF8D87CB
:104850009E878D859E850E940D0FF82E882309F472
:1048600087CF86E0F801AFE8B2E001900D928A951B
:10487000E1F780918F02909190020E94030F0E94B5
:104880006522D3CE21E02E25EACE1F93CF93DF936E
:10489000CDB7DEB767970FB6F894DEBF0FBECDBFBA
:1048A0004B8B5C8B6D8B7E8B8F8B1A8A198A85E084
:1048B000FE017396DE011D9601900D928A95E1F737
:1048C00086E0FE013D96DE01179601900D928A95D5
:1048D000E1F7CE0107960E94BB22811112C086E04B
:1048E000FE013796DE01119601900D928A95E1F74F
:1048F0008A859B85892B29F08F81988589238F3F15
:10490000B1F516E08091C6029091950289131DC001
:1049100067960FB6F894DEBF0FBECDBFDF91CF9183
:104920001F91089596E0929FD001939FB00D11249E
:10493000AA56BD4FFE01319601900D929A95E1F76E
:10494000809395020E94D90BDCCF819FC001112476
:104950008A569D4F0E94BB228823D1F28091C602C5
:1049600090E00196877099278093C602CBCF209163
:10497000950230E0C9010196877099274091C602DF
:104980004817190679F60E94FD16109295021092AA
:10499000C60286E0EFE8F2E0DF011D928A95E9F7B2
:1049A000B0CF8F929F92AF92BF92CF92DF92EF9251
:1049B000FF920F931F93CF93DF9367E971E099EF15
:1049C000892E92E0992E2BE9A22E21E0B22ED0E082
:1049D000EE24E394F12CDB018D91BD01E82FE295EB
:1049E000EF70F0E091A18F70870101C0000F8A95F0
:1049F000EAF7892F802B81A382A1C02FC0958C2339
:104A000082A3B0EABA95F1F78FE9C82E81E0D82EDB
:104A100050E040E020E0D6013D916D01832F82956A
:104A20008F7090E0DC0190968C9190E03F7002C016
:104A3000959587953A95E2F780FD48C08E2D042E16
:104A400001C0880F0A94EAF7282B4F5F5F4F483068
:104A5000510509F781A18C2381A382A1082B02A310
:104A6000F40180812817A1F1208381E0D82BFFEF8A
:104A70008F1A9F0AA616B70609F0ADCFC0910203A0
:104A8000DD2341F181E08093D3010E943E16909393
:104A9000D2018093D1018091D1019091D2010E94E5
:104AA0001C0B0697D8F0EC2FF0E0E65FFC4F8091EE
:104AB000F90280838091FA0281838091FB028283D4
:104AC0008091FC0283831092D30108C080E0BCCFA8
:104AD00080E0CCCF8091D3018111DDCF0E946B1497
:104AE000882309F481C0C0910103809122038823A7
:104AF000E9F085E0EBE1F3E0A4EDB1E001900D9287
:104B00008A95E1F78091200390912103A0912203DF
:104B10008093D9019093DA01A093DB0181E090E0CA
:104B20000E94522F892B11F41092220390E080E012
:104B30000E94522F0097B1F08091E2018F5F809325
:104B4000E201863008F046C08D2FDF91CF911F9192
:104B50000F91FF90EF90DF90CF90BF90AF909F901C
:104B60008F900895EC2FF0E0E65FFC4FDC01A3523C
:104B7000BE4F2C912193019684309105B9F7E090B6
:104B800006030E2D10E00D5D1C4FC091E101D80110
:104B90008C91C81BFC2E09C0FA94D8018C918F5FB0
:104BA0008C9360E08E2D0E94E81B1F14ACF38C2FB9
:104BB000C7FD80E0C81BC11103C01092E201C4CF41
:104BC000CF5FF80180818150808361E08E2D0E944B
:104BD000E81BF1CFE0910103F0E0E65FFC4F1082AB
:104BE000118212821382B0CFE09102030E2F10E0E7
:104BF0008091DC01883099F58091DB0180FF0FC046
:104C00009091D40180911B0390FF40C081608093FC
:104C10001B038091D40160E086950E94771C8091EF
:104C2000DB0181FF09C020E04091D7016091D601EE
:104C30008091D5010E94BB148091DB0182FF06C0E8
:104C40008091DA018823C1F10E945C1C8091DB0114
:104C500083FF03C081E0809318031092DC01F80108
:104C6000E65FFC4F90E080E02191DC01A352BE4F53
:104C70002C93019684309105B9F7E0912603F0E07A
:104C8000ED5DFC4F80818093E1015ECF8E7F80934C
:104C90001B030E94350C80912203816080932203C4
:104CA000BFEFE0E7F2E0B150E040F040E1F700C0D4
:104CB00000000E94F810B3CF0E94350CC7CFCDB7CB
:104CC000DEB762970FB6F894DEBF0FBECDBF84B7D4
:104CD000877F84BF0FB6F894A895809160008861A3
:104CE00080936000109260000FBE80E890E00FB6E5
:104CF000F89480936100909361000FBE85B780683F
:104D000085BF85B7806885BF0E945D080E9428091D
:104D10008091E20084608093E200789480919C030B
:104D20008823A1F01091E9001F709091EC00892F69
:104D3000817090FD80E8182B1092E9008091E800C6
:104D400083FD0E9408171F701093E90082E084BD64
:104D500093E095BD9AEF97BD80936E000E946B140F
:104D60008093260180912601882309F411C31092B3
:104D700011018AE0809312010E946B14882331F0A4
:104D800062E070E086E191E00E94702E8091260141
:104D90008091260194E0811190E09093020384E0D9
:104DA000891B80930103A7E9B1E04BE951E061E081
:104DB00070E08D91E82FE295EF70F0E011A18F7017
:104DC0009B0101C0220F8A95EAF7922F90959123BB
:104DD00091A382A1822B82A34A175B0751F7AFE907
:104DE000B1E047EA51E061E070E08D91E82FE29593
:104DF000EF70F0E011A18F709B0101C0220F8A9526
:104E0000EAF7922F9095912391A382A1822B82A3FE
:104E10004A175B0751F7E9EFF2E081E093E0AAE07F
:104E2000B3E011921D928E179F07D9F790E080E0B2
:104E30000E94A5308C3E9E4F11F00E94B7150E9433
:104E40006B14811106C062E070E086E191E00E947F
:104E5000792E82E080936C0380E88093A6030E9401
:104E6000242D6DE070E086EC94E00E94E90F892B20
:104E700009F046C080916C0363E070E081FD8CC254
:104E800083EC94E00E94E90F892BD1F56DE070E08E
:104E900083EB94E00E94E90F892B91F52FB7F894EA
:104EA00080916E0390916F03A0917003B091710394
:104EB0002FBF805A9541AF4FBF4F8093720390939D
:104EC0007303A0937403B0937503E9EAF3E080E001
:104ED00094E0DF019C011D9221503040E1F7F093F6
:104EE000B007E093AF078FEF9FEF9093A8038093F5
:104EF000A70381E0809377038093760310926D037C
:104F000090E080E00E94A5308C3E9E4F11F00E9400
:104F1000B71582E090E00E949730809386030E944C
:104F20004310909304038093030383E090E00E9476
:104F30009730682F70E090E080E00E94F316809137
:104F4000050381113BC090E080E00E94A5308C3EBB
:104F50009E4F21F00E94B7150E94A01588E090E0B6
:104F60000E949F3060931B0370931C0380931D036A
:104F700090931E03809122038360809322036E7FAF
:104F800071F40E94A01588E090E00E949F30609329
:104F90001B0370931C0380931D0390931E030E94B8
:104FA0003C0C0E94350C80911B0380FF04C060E024
:104FB00086950E94771C81E08093050380912601ED
:104FC000811106C085E38093280186E6809327013E
:104FD00020912801A22FA295AF70B0E091963C914C
:104FE00091972F7081E090E0BC01022E01C0660F06
:104FF0000A94EAF7462F4095432391964C93919754
:1050000092963C919297362B92963C939297409130
:105010002701E42FE295EF70F0E031A14F70042EEC
:1050200001C0880F0A94EAF7982F9095932391A3D3
:1050300092A1892B82A390968C9190E002C09595C5
:1050400087952A95E2F7817020A130E002C035955E
:1050500027954A95E2F792E020FF90E0892B809314
:1050600027039091260181E0982790932603891BBE
:105070008093060380E391E09093080380930703F5
:1050800029EA622E23E0722E44244394512C80910D
:105090009C03853009F483C10E94D124D82E0E943C
:1050A0006B14882309F4C0C1E7E8F3E0AAE0B3E099
:1050B00010E000E0302F8D912191281709F4AEC146
:1050C00090E0FF24F3942827422F4F2109F4A1C137
:1050D0009F8338878F2191E009F490E099870E949F
:1050E0003E168160782F9B878A874F815885698516
:1050F0008B850E944524F801E957FC4F8081F826F2
:10510000F08280912103882309F468C080912003F4
:10511000E0911B03E695E81BE0931703823009F04A
:1051200094C1F0E0EC51FB4FE491AE2EB12C07E4BA
:1051300014E180911803882389F0109218030E94CB
:105140003E16950120953095820F931F909316037C
:105150008093150310921A0310921903809115037E
:10516000909116030E941C0B8A159B05B8F1809143
:1051700014038823B1F010921403809112039091CC
:1051800013030E941C0B8033954758F00E943E1673
:10519000909313038093120380912203886080937D
:1051A0002203E0901903F0901A03E0911503F091A7
:1051B0001603AE0EBF1EB0921603A092150385E132
:1051C00093E0F80109958091190390911A03892BB6
:1051D00029F4EF2819F081E08093140380912703CC
:1051E000E82FEE0FEE0F80912801A82FA295AF7047
:1051F000B0E090962C9130E08F7002C035952795E5
:105200008A95E2F72170332790912701A92FA29563
:10521000AF70B0E090964C9150E09F7002C05595F1
:1052200047959A95E2F7CA018170992740FF02C01D
:1052300082E090E0822B8E2B80932703109126032F
:105240008F70E82FF0E0E955FE4F808190912503A3
:10525000890F8093250384306CF0E12F012E000C20
:10526000FF0BED5DFC4F80818F5F808360E0812FBD
:105270000E94E81B809125038D3F6CF4E12F012EE5
:10528000000CFF0BED5DFC4F80818150808361E05D
:10529000812F0E94E81B80912503837887FF03C03C
:1052A00081508C6F8F5F80932503809177038823D3
:1052B00009F4D5C17092B0076092AF070E946B14D9
:1052C000882309F4CBC288EE94E00E94DB0F8DE8BE
:1052D00095E00E94DB0F85E895E00E94DB0F40918E
:1052E00028035091290360912A0370912B03CB016D
:1052F000AA27BB270097A105B10509F406C1AC0197
:10530000BD0180E1052F162F272F33270115110529
:105310002105310519F0885FB901A8018A019B01B7
:10532000A4E03695279517950795AA95D1F701150D
:1053300011052105310519F08C5FB901A8018A0119
:105340009B01F2E03695279517950795FA95D1F7C9
:10535000011511052105310519F08E5FB901A8016C
:105360007695679557954795452B462B472B09F022
:105370008F5F813009F469C2882309F4C8C0823084
:1053800009F466C2833009F466C288E595E0C1C0BD
:105390008AE080931101EECC80EC94E073CD809193
:1053A0009C03843021F11092090388E190E020E40D
:1053B0000FB6F894A895809360000FBE209360000C
:1053C00083B7817F846083BF83B7816083BF789414
:1053D000889583B78E7F83BF0FB6F894A895809188
:1053E0006000886180936000109260000FBE809121
:1053F0009B03882309F44BCE0E94D12482E193E0E1
:10540000EAE0F3E021912111D8C28E179F07D1F76E
:105410003ECE9F5FFF0C983009F056CE0F5F1F4FB6
:105420000830110509F046CE8FEF8C878D871E86D8
:105430000E943E168160782F988B8F874C855D8502
:105440006E8588890E9445245CCE863049F4F0E060
:10545000EF51FB4FE491AE2EB12C0BE514E169CE78
:10546000893051F4E695F0E0E252FB4FE491AE2E24
:10547000B12C00E012E15DCE8F3051F4E695F0E002
:10548000E552FB4FE491AE2EB12C0DE312E151CE6B
:10549000853149F4F0E0E852FB4FE491AE2EB12C97
:1054A00006ED12E146CE98EEA92E93E0B92E0DE559
:1054B00013E1883109F43DCE833239F4E6EDF4E0AE
:1054C000A590B4900EEE13E134CE8432B9F000ED25
:1054D000A02E07E0B02E0FEE19E0853209F029CE9C
:1054E0008E2F63E00E94D02FE92FF0E0ED52FB4FAA
:1054F000E491AE2EB12C03E411E11BCE84EFA82E73
:10550000BB24B39408E913E114CE80E0FBCE8CE712
:1055100095E00E94DB0F0E94240C182F88E495E090
:1055200010FF02C080E595E00E94DB0F88E395E064
:1055300011FF02C080E495E00E94DB0F88E295E055
:1055400012FF02C080E395E00E94DB0F2091A703C9
:105550003091A8032115310509F456C080916D03DF
:10556000811152C0082F10E07201082E02C0EE0C0B
:10557000FF1C0A94E2F7A70142235323452B09F4A9
:105580009AC190916C0390FD98C18295880F880F05
:10559000807480932B0198013695279520932E01D6
:1055A000815C80932C0110922F0124E630E047E0CB
:1055B00050E069E271E088E70E94B52D892B21F562
:1055C000A80196E0440F551F9A95E1F780916C036E
:1055D00080FD81C147555C4F04E610E020E430E0D7
:1055E00060E488E70E94DC2D892B71F40E94191079
:1055F000E094F0948091A7039091A803E822F92207
:10560000F092A803E092A70380917603882339F1F2
:105610002FB7F89480916E0390916F03A09170035F
:10562000B09171032FBF4091720350917303609149
:10563000740370917503841B950BA60BB70BB7FD14
:105640000EC080917603882351F062E070E08CE90F
:1056500099E00E94E90F892B11F410927603D11082
:105660000E94191086E0EFE7F3E0DE011196019049
:105670000D928A95E1F78091810390918203892BA5
:1056800009F468C080917D0390917E030E941C0BF9
:105690009C0190917C03992309F4AAC1233331051D
:1056A00008F458C09F3F19F09F5F90937C031092BD
:1056B00083031092840380918103181624F40E94BE
:1056C000940A809381038091810387FF05C00E9423
:1056D000940A81958093810380918203181624F4A3
:1056E0000E94940A809382038091820387FF05C001
:1056F0000E94940A81958093820330918103332321
:10570000B1F020918203222391F045EB3403C001D4
:105710001124992309F441C19093810365EB260379
:1057200090011124332309F43CC1309382030E9479
:105730004A1680917A0390917B0390937E03809325
:105740007D0386E0FE013196AFE7B3E001900D9254
:105750008A95E1F78091830390918403892B09F462
:1057600068C080917803909179030E941C0B9C0182
:1057700090917C03992309F436C12536310508F44C
:1057800058C09F3F19F09F5F90937C031092810354
:105790001092820380918303181624F40E94720AE7
:1057A000809383038091830387FF05C00E94720A60
:1057B00081958093830380918403181624F40E94BA
:1057C000720A809384038091840387FF05C00E943E
:1057D000720A819580938403309183033323B1F05F
:1057E00020918403222391F075EB3703C00111242B
:1057F000992309F4DAC09093830345EB24039001C5
:105800001124332309F4D5C0309384030E944A162F
:1058100080917A0390917B0390937903809378032E
:1058200086E0FE013196AFE7B3E001900D928A95D4
:10583000E1F70E94240C90918503891709F427CC85
:105840000E94240C8093850322CC83E795E061CEEF
:105850008BE695E05ECE83E695E05BCE2091A703D4
:105860003091A803A9EAB3E090E080E0FC01E4569F
:10587000FA4F64914D916417A1F0AD014150510967
:10588000FA016083AC0166E0569547956A95E1F7A9
:10589000B20102C0660F771F4A95E2F7AB01262BD3
:1058A000352B0196811574E0970701F73093A80313
:1058B0002093A7034BCE8F5F55CE880F880F880F9C
:1058C00080932B0110922E01895F80932C0187E039
:1058D00080932F016ACE80E4ACE2B3E01D928A95FA
:1058E000E9F7EFEBF1E0FA8BE98B07EB11E0A9891F
:1058F000BA892D91BA8BA98BF80121908F01240EC2
:10590000352E311CB10167557C4F1B01E22FF0E0B1
:10591000E45DFC4F30E020E087E0982E921AC42C22
:10592000022E01C0CC0C0A94EAF7510190E0D50197
:105930008D915D018C21692D691B6770862E062E65
:10594000000C770BB82F01C0BB0F8A94EAF78B2E9F
:105950007195619571096770772701C086956A9581
:10596000EAF7882A8081882A80829F5F9830F9F63A
:105970002F5F3F4F31962830310571F6E7ECF1E0AB
:1059800029893A89E217F30709F0B1CF04E610E05C
:1059900020E430E04CE253E023CE81E080938103A9
:1059A000BDCE81E080938203C2CE81E080938303E9
:1059B00024CF81E08093840329CF80E189BD82E1F7
:1059C00089BD09B400FEFDCF8091D8008F7D809302
:1059D000D8008091E00082608093E0008091E00038
:1059E00081FDFCCF54CB2D32314008F0CCCE21CFFD
:1059F0002D32314008F058CEADCE1F921FB61F9207
:105A000011248F939F93AF93BF93809109038111CA
:105A100013C080916E0390916F03A0917003B091B9
:105A200071034196A11DB11D80936E0390936F0386
:105A3000A0937003B0937103BF91AF919F918F9129
:105A40001F901FBE1F9018951092B9008CE0809394
:105A5000B8000895EF92FF920F931F93CF93DF93B7
:105A6000182FEB011092BC0084EA8093BC000E94C6
:105A70003E167C018091BC0087FF27C08091B90051
:105A8000887F883029F08091B900887F8031D9F5EE
:105A90001093BB0084E88093BC000E943E168C01EA
:105AA0008091BC0087FF24C02091B900287F90E03E
:105AB00080E02831B1F081E090E0203411F490E0F2
:105AC00080E09195819591090CC0CF3FDC0791F260
:105AD0000E943E168E199F098C179D0758F28EEF73
