:100000000C94C5020C940C030C940C030C949E23CA
:100010000C940C030C940C030C940C030C940C0324
:100020000C940C030C940C030C9479180C94B517D5
:100030000C94021F0C940C030C940C030C940C03F2
:100040000C940C030C940C030C940C030C940C03F4
:100050000C940C030C949F1E0C940C030C940C0336
:100060000C940C030C940C030C940C030C940C03D4
:100070000C940C030C940C030C940C030C940C03C4
:100080000C940C030C940C030C940C030C940C03B4
:100090000C940C030C940C030C940C030C940C03A4
:1000A0000C940C030C940C030C940C03AF0CAF0CCD
:1000B000E90CE90C3C0D580DEA0EEA0E630D410EF9
:1000C000520E520E1D0C350F3A0F3F0F440F490FC1
:1000D0004E0F530F580F5D0F620F690F3E0C3E0C11
:1000E0003E0C3E0C3E0C3E0C3E0C3E0CC415EB157B
:1000F0008D17EB158D17331656168D17511764177C
:10010000D019D019E319E319D919E319E319E3193F
:10011000D019D019DE19E319E319DE190001010124
:1001200001010101010102020202020202020203B4
:100130000303030303030304040404040404050584
:100140000505050606060606070707070708080847
:1001500008090909090A0A0A0B0B0B0C0C0C0D0DF6
:100160000D0E0E0E0F0F0F1010111111121213138E
:100170001414151516161717181819191A1A1B1B07
:100180001C1D1D1E1E1F2020212222232424252663
:1001900026272829292A2B2C2D2D2E2F303132329B
:1001A000333435363738393A3B3C3D3E3F404142A7
:1001B000434445464748494A4C4D4E4F505153548D
:1001C000555658595A5B5D5E5F6162646566686941
:1001D0006B6C6D6F7072737577787A7B7D7E8082C1
:1001E000838587888A8C8E8F91939596989A9C9E0A
:1001F000A0A2A3A5A7A9ABADAFB1B3B5B7BABCBE1A
:10020000C0C2C4C6C9CBCDCFD1D4D6D8DBDDDFE2E6
:10021000E4E7E9EBEEF0F3F5F8FAFDFF00AF0000DC
:10022000000005001A001500070014002942000014
:1002300000000A0017000B0016000400D75C1150E4
:1002400010501900060010001B001D00E00029429C
:100250002C4128644C00E300000000000000000076
:1002600000000D0009001800130033002E000000EC
:1002700000001C001100080012000C003400125095
:1002800013500E000F003600370038002D002843B1
:100290002C422B002A00E6000000000000000000B5
:1002A0000000310230022F021F021E020100000076
:1002B0000000350027022602210220020100010071
:1002C0000100350230002F002302220201002E001F
:1002D00033000100010001000000000000000000E8
:1002E00000000100010001000100010031000000D8
:1002F00000002E022D0038002502220234000100E9
:10030000010024022E003600370038002D002E0098
:1003100033000100010001000000000000000000A7
:1003200000002200210020001F001E00010000002C
:100330000000A900AB00AE00AC000100010001000C
:100340000100AA00A8000100010001000100010055
:100350000100010001000100000000000000000099
:1003600000002300240025002600270001000000D3
:1003700000004A00500052004F004B0001000100F5
:1003800001004D000100510001004E00010001007C
:100390000100010001000100000000000000000059
:1003A0000000BB5CBC5CBE5CBD5C065C0F5C00001E
:1003B0000000C35CC95CC55CC75CCB5CC25C01006F
:1003C0000100C45CCA5CC65CC85CCC5C0100D15C4A
:1003D000D05CCF5CCE5CCD5C000000000000000073
:1003E000000001005F006000610057005400000041
:1003F000000001005C005D005E0056005500010039
:100400000100010059005A005B0067005800D25CEF
:10041000D35CD45C6200630000000000000000DADE
:1004200002818FD9F1DB40A4A62EAF00A0C000A1AD
:10043000C800AED580A81FD300408D14200000AEA8
:1004400005010902A10185020901A100050919019F
:100450002905150025019505750181029501750392
:1004600081010501093009311581257F9502750843
:10047000810609381581257F950175088106050CCF
:100480000A38021581257F950175088106C0C005CF
:10049000010980A101850319012AB700150126B7BA
:1004A00000950175108100C0050C0901A1018504AA
:1004B00019012AA002150126A002950175108100DC
:1004C000C005010906A101050719E029E715002566
:1004D00001950875018102950175088101050719CB
:1004E0000029FF150026FF00950675088100050804
:1004F0001901290595057501910295017503910171
:10050000C009023B00020100A0FA09040000010337
:1005100001010009211101000122400007058103AA
:1005200008000A090401000103000000092111016B
:1005300000012281000705820320000A1201100138
:1005400000000008EDFE00000100010203010403A9
:10055000300000001E034B0079007200690061004A
:1005600020004B006500790062006F00610072009E
:10057000640000001003730070006C0069007400D8
:100580006B00620000000403090411241FBECFEFBA
:10059000DAE0DEBFCDBF04B603FE27C08091DA04E7
:1005A0009091DB04A091DC04B091DD048730904B86
:1005B000A740B04BD1F41092DA041092DB041092F1
:1005C000DC041092DD0414BE84B7877F84BF0FB6AD
:1005D000F894A895809160008861809360001092E3
:1005E00060000FBEE0E0F8E3099524E0A6E8B1E082
:1005F00001C01D92AA3DB207E1F711E0A0E0B1E011
:10060000E2E5FAE402C005900D92A638B107D9F7E9
:100610000E94970F0C9427250C9400009091E801FC
:1006200092FF0DC0282F2871283019F4877F84602D
:1006300006C0282F2471243011F48B7F886093FF2B
:100640000DC0282F2871283119F4877E846106C0D7
:10065000282F2471243111F48B7E88612091E901C7
:1006600020FF0DC0382F3871383019F4877F816032
:1006700006C0382F3171313011F48E7F886021FF30
:100680000DC0282F2871283119F4877E816106C09A
:10069000282F2171213111F48E7E886194FD877E8F
:1006A00008951F93CF93DF93CDB7DEB767970FB64B
:1006B000F894DEBF0FBECDBF4B8B5C8B6D8B7E8BFA
:1006C0008F8B86E09E01235F3F4FD901E82F1D925B
:1006D000EA95E9F795E0FE017396D90101900D9234
:1006E0009A95E1F7F901DE01179601900D928A952E
:1006F000E1F7CE0107960E94E71981113EC086E01E
:10070000FE013796DE01119601900D928A95E1F770
:10071000FF81E8856A857B856115710531F0EF3FC2
:1007200031F481E0FF3F19F403C081E001C080E0B3
:1007300080FD23C020916B0430E0C90101968770D1
:10074000992740919C0450E08417950779F1F9832B
:10075000EA837D836C8396E0929FD001939FB00DD6
:100760001124A459BB4FFE01319601900D929A9528
:10077000E1F780936B040E94102116E080919C04A5
:1007800090916B048917F9F0189FC00111248459C6
:100790009B4F0E94E7198823B1F080919C0490E060
:1007A00001968770992780939C04E8CF0E94B11B23
:1007B00010926B0410929C04E5E6F4E086E0DF0101
:1007C0001D928A95E9F767960FB6F894DEBF0FBEC3
:1007D000CDBFDF91CF911F9108952091CB01309132
:1007E000CC012817390771F09093CC018093CB018D
:1007F000E091F401F091F501309721F00084F1854A
:10080000E02D099408952091C9013091CA0128175B
:10081000390771F09093CA018093C901E091F40106
:10082000F091F501309721F00680F781E02D0994D1
:100830000895E091F401F091F501309721F00190D5
:10084000F081E02D099480E008950E94D41EDC011F
:10085000CB01805A9541AF4FBF4F809329049093AD
:100860002A04A0932B04B0932C0480912D048111B1
:100870000BC062E070E08CE192E00E948B14892B47
:1008800019F481E080932D0480912D04089588232C
:1008900011F0FA0101C0FB0109943091010180912E
:1008A000ED0180FF16C0E091000163E0E69FF001DA
:1008B0001124E557FE4F539A8BB1877F9BB1986007
:1008C0002FB7F894AF0163E0369F400D511D1124FE
:1008D00014C08091020190910301891720F7E82F3D
:1008E000F0E0AF01440F551FE40FF51FE557FE4F31
:1008F0001182108212828F5FF0CFE417F50789F022
:10090000319168E09BB9000000C037FF8BB9330F0D
:10091000000000C000C000C08BB900C06A9591F70C
:10092000ECCF2FBF8FE594E00197F1F700C00000F6
:1009300008958091ED01982F9695913021F0817066
:1009400082608093ED010895CF92DF92EF92FF9243
:100950006B017C010E949904B701A60188E090E038
:10096000FF90EF90DF90CF900C94D7249F92AF929E
:10097000BF92CF92DF92EF92FF920F931F93CF938C
:10098000DF939091ED0190FFD3C0922E142FC62FCC
:10099000D82FE92FE695F0E0E65DFE4F8081809349
:1009A000EA019E7F923009F095C0E42FF0E06111DA
:1009B00006C0E45EFE4F2491022FE22F72C0E62EA5
:1009C000F12CE45EFE4FE491FE2FCE2ED12C26E0DA
:1009D000D29FC00111242FEF30E0B9010E94F92409
:1009E0004BEA4603C001479F900D11248D0F911DC6
:1009F0008D0F911DB82EBB0CB80EA9014E195F09C1
:100A00004C9DC0014D9D900D5C9D900D1124092FB2
:100A1000CB9DA0011124452F5527D901A41BB50B4F
:100A2000AC9DA001AD9D500DBC9D500D1124D90170
:100A3000AB19B1095D01AE9CD001AF9CB00DBE9C5D
:100A4000B00D1124AB2FBB272A1B3B0B2C9DD001D3
:100A50002D9DB00D3C9DB00D11242B2F62307105E2
:100A600091F048F461157105E1F061307105B9F458
:100A70002E2FE52F16C06430710569F040F0663006
:100A8000710579F00CC02E2FE92F0B2F0AC0E92F2A
:100A90000F2F252F06C0292F0E2FEB2F02C0292F35
:100AA000052F8091020190910301891788F4A82FE6
:100AB000B0E0AD01440F551FA40FB51FA557BE4FA1
:100AC0001196EC9311972C9312960C938F5FEDCFA8
:100AD0000E944D048091EE01D81308C08091EF016F
:100AE000C81304C08091F001181729F08091EC011F
:100AF00082608093EC01D093EE01C093EF011093DC
:100B0000F0019920A9F06091ED017091EE018091C2
:100B1000EF019091F001DF91CF911F910F91FF9024
:100B2000EF90DF90CF90BF90AF909F900C94A40473
:100B3000DF91CF911F910F91FF90EF90DF90CF90B9
:100B4000BF90AF909F900895EDEEF1E0438121E1D9
:100B5000421B08F440E021E0628181810C94B604DC
:100B6000EDEEF1E0438121E1420F08F44FEF21E087
:100B7000628181810C94B604EDEEF1E0628121E1A5
:100B8000621B08F460E021E0438181810C94B6048B
:100B9000EDEEF1E0628121E1620F08F46FEF21E0F8
:100BA000438181810C94B604EDEEF1E0818121E076
:100BB0004381628188500C94B604EDEEF1E08181AE
:100BC00021E043816281885F0C94B6048091F10139
:100BD000882319F081508093F1016091ED017091AB
:100BE000EE018091EF019091F0010C94A4048091AA
:100BF000F101833018F48F5F8093F1016091ED0172
:100C00007091EE018091EF019091F0010C94A40499
:100C10008091ED0180FF1EC0817082608093ED01A4
:100C20008091EC0181608093EC01662351F060912A
:100C3000ED017091EE018091EF019091F0010E9421
:100C4000A40420E04091F0016091EF018091EE0159
:100C50000C94B60408958091ED018695815009F4B5
:100C600081E061E00C94080661E081E00C940806E4
:100C7000EDEEF1E083E0808311828FEF8283838346
:100C80001482AAEEB1E012968C91129783601296AC
:100C90008C9360817181828193810C94A4048091F2
:100CA0008A01811112C08091D80080618093D800A0
:100CB0008AE18A95F1F700C08091D90080FD02C0D9
:100CC00082E001C081E080938A0181E090918A01F5
:100CD000913009F080E00895CF93DF93E72FF0E0A3
:100CE00028E0829FE00DF11D1124B3E0EE0FFF1FFD
:100CF000BA95E1F7E60FF11DEE0FFF1FE25EFD4F23
:100D0000C591D491CE01C238D10569F1B0F4C13397
:100D1000D10509F475C048F4C932D10509F469C098
:100D2000CA32D10509F473C085C0C533D10509F4B1
:100D300059C0C933D105B9F07DC0C33ED10571F1A9
:100D400038F4C03ED105B1F0C23ED10511F172C0F8
:100D5000C63ED105B9F1C73ED105C9F1C43ED105A2
:100D600009F068C024C02091E80120FD5DC021FD8C
:100D70005BC060C02091E80120FD50C02091E901D6
:100D800020FF51C18091E80184FD4BC183EE90E0CA
:100D90004AC12091E80122FF46C1F4CF8091E801C9
:100DA00082FD3FC08091E90180FD3EC0EBCF2091E4
:100DB000E90121FF38C18091E80184FD32C187EE4D
:100DC00090E031C12091E80123FF2DC1F4CF809143
:100DD000E80183FD2CC08091E90181FFECCF84EE16
:100DE00090E021C12091E80125FF1DC189E290E03A
:100DF0001AC12091E80125FF16C185E390E013C1D7
:100E00002091E80126FF0FC18AE290E00CC12091F9
:100E1000E80126FF08C181E390E005C189E390E085
:100E200002C182EE90E0FFC080EE90E0FCC086EE52
:100E300090E0F9C0C11551E5D50708F06CC0C115A7
:100E400020E5D207F0F0CE01F4E096958795FA956B
:100E5000E1F7282F23703C2F337081E090E002C02F
:100E6000880F991F3A95E2F79C68922B2C2F2F70D0
:100E70002695269540E2249F90011124822B932BE6
:100E8000D2C0C83ED10570F5C03ED10508F0CBC038
:100E9000C83AD105B8F4C53AD10550F02C2F255ADF
:100EA000C22FD0E0CC5ADE4F888190E09064BBC066
:100EB000C130D10509F4B7C008F4B3C0249708F4D1
:100EC000B0C0B1C0CF3BD10508F0ABC02C2F285A21
:100ED000C22FD0E0CC0FDD1FC95ADE4F8881998127
:100EE0009464A1C0C11540E2D40760F4C11551E07B
:100EF000D50708F098C0C03FD10508F492C0CE01D4
:100F0000906591C0C11580E4D80708F48AC0CE016D
:100F10009F70906A88C0C11595E5D90708F040C058
:100F2000C11524E5D20728F09C2F8827846F906A8A
:100F30007AC0C11543E5D407A8F09E01237033277A
:100F400081E090E002C0880F991F2A95E2F72C2FCC
:100F50002695269540E2249F90011124822B932B05
:100F60009A6861C0C11552E5D50728F49C2F8827DF
:100F7000816F906A58C09E012370332781E090E012
:100F800002C0880F991F2A95E2F72C2F26952695E7
:100F900050E2259F90011124822B932B9C6843C023
:100FA000C11589E5D807B0F4C11598E5D90728F02F
:100FB0009C2F8827806F906A36C0C11526E5D2071E
:100FC00080F58C2F0E940E038F7190E0982F882758
:100FD000906229C0C1154AE5D40790F48C2F8F7018
:100FE0000E940E039E0194E0369527959A95E1F7AD
:100FF0002F7030E0322F22273069A901482B0FC013
:10100000CE0190568115904260F48D2F8F710E9411
:101010000E039E01332730628F71A901582BCA013C
:1010200002C080E090E0DF91CF9108950F931F936D
:10103000CF93DF93C62FD42F122FFC0182818823F8
:10104000C9F06093CD010E94E01E9093C801809387
:10105000C70180E28C0F883008F05EC0C77081E065
:1010600001C0880FCA95EAF7DF91CF911F910F91C8
:101070000C94C71B8091CD0168133EC08091C701BD
:101080009091C8010E94C51E883C9105A8F500E218
:101090000D0FCD17B9F080E28C0F883040F4C77087
:1010A00081E001C0880FCA95EAF70E94BC1B083096
:1010B00048F481E09D2F977001C0880F9A95EAF758
:1010C0000E94C71B812F0E94381C193349F4FFEF7F
:1010D00027EE83E0F15020408040E1F700C000009F
:1010E000812F0E94D11B0830B8F4D77081E001C075
:1010F000880FDA95EAF70AC080E28C0F883060F436
:10110000C77081E001C0880FCA95EAF7DF91CF91DF
:101110001F910F910C94BC1BDF91CF911F910F91E8
:1011200008956F927F928F929F92AF92BF92CF92CB
:10113000DF92EF92FF920F931F93CF93DF936CE2B6
:1011400071E00EED11E022EEA22E21E0B22E380168
:10115000C0E0EE24E394F12CDB018D91BD01E82F7A
:10116000E295EF70F0E021A18F70A70102C0440F5B
:10117000551F8A95E2F7CA01242B21A322A1942EA0
:101180009094292122A350EA5A95F1F794E3C92EAD
:1011900091E0D92E40E050E0D0E0D6018D906D0175
:1011A000282D22952F7030E0D90190962C9130E0B7
:1011B000B82DBF7002C035952795BA95E2F720FD8E
:1011C00007C02E2D042E01C0220F0A94EAF701C099
:1011D00020E0D22B4F5F5F4F48305105F1F691A1CF
:1011E000992291A292A1892B82A3F3018081D81721
:1011F00019F0D08381E001C080E0C82BFFEF6F1AA7
:101200007F0A22EE621621E0720609F0A5CFF09067
:10121000E701CC2349F081E0809388010E94E01E21
:101220009093870180938601809188018823A9F09B
:1012300080918601909187010E94C51E069768F0F3
:10124000EF2DF0E0E950FE4FD8018D918D01819393
:10125000AA16BB06C9F7109288010E944F06882380
:1012600009F456C01091E6018091EC018823E9F061
:1012700085E0EDEEF1E0AFECB1E001900D928A95E2
:10128000E1F78091EA019091EB01A091EC0180934C
:10129000D4019093D501A093D60181E090E00E9403
:1012A0002E24892B11F41092EC0180E090E00E9432
:1012B0002E24892B09F084C0E12FF0E0E950FE4F85
:1012C00080E090E0DC01A852BE4F2C912193019662
:1012D00084309105B9F7E091F301F0E0E150FE4F61
:1012E0008091DC019081891B982F19162CF4915064
:1012F00020812F5F2083F9CF982F87FD90E0891BF5
:10130000882309F45AC08F5F908191509083F8CF61
:10131000E091E7010E2F10E08091D7018830B1F500
:101320008091D60180FF23C09091CF018091ED0183
:1013300090FF0AC081608093ED018091CF0160E051
:1013400086950E94080613C08E7F8093ED018091E0
:10135000EC0181608093EC01BFEFE0E7F2E0B15077
:10136000E040F040E1F700C000000E944D04809191
:10137000D60181FF09C020E04091D2016091D101E6
:101380008091D0010E94B6041092D701F801E95073
:10139000FE4F80E090E02191DC01A852BE4F2C93DB
:1013A000019684309105B9F7E0910202F0E0E15036
:1013B000FE4F80818093DC0113C01092890110C020
:1013C000809189018F5F80938901863048F0E09198
:1013D000E601F0E0E950FE4F108211821282138282
:1013E0008C2FDF91CF911F910F91FF90EF90DF90A5
:1013F000CF90BF90AF909F908F907F906F90089507
:101400008F929F92AF92BF92CF92DF92EF92FF9214
:101410000F931F93CF93DF93CDB7DEB72A970FB605
:10142000F894DEBF0FBECDBFFC01D0801181838157
:101430009481892B39F01F3F39F491E00FEFD012DE
:1014400003C003C091E001C090E090FD47C57F015B
:1014500085E0DE01169601900D928A95E1F7F7017D
:1014600022818E819F81222349F00E94F91F082F3B
:10147000682F8E819F810E94722003C00E944620A7
:10148000082FE12FF0E018E0019FE00DF11D11247D
:1014900043E0EE0FFF1F4A95E1F7ED0DF11DEE0F52
:1014A000FF1FE25EFD4F05911491033F2CE51207EB
:1014B00029F180F4083D8CE51807C9F0093D9CE549
:1014C000190741F1073DECE51E0739F526E241EE2B
:1014D00061EE10C0053FFCE51F07C1F098F0063F24
:1014E0003CE51307D1F427E245EE66EE03C027E2A0
:1014F00045EE65EEC7010E941608C0C126E241EE26
:1015000060EEF8CF27E245EE64EEF4CF26E241EE3E
:1015100062EEF0CF28E241E0ECCFF701928199230F
:1015200009F43FC11092CD010230FCE51F0708F419
:1015300022C106312CE5120738F098012A5F3C459C
:101540002930310508F017C10E94521F9093E9011C
:101550008093E80100313CE5130709F4C3C008F0AB
:1015600041C008309CE5190709F49AC0F0F4043032
:10157000FCE51F0709F487C068F402303CE5130757
:1015800009F477C003301C4509F0E5C08091E801FB
:10159000826076C006309CE5190709F46EC008F039
:1015A0007BC08091E80188606BC00C30FCE51F07B0
:1015B00009F485C068F40A303CE5130709F474C0E7
:1015C00008F079C00E94B11B8091E801806858C082
:1015D0000E309CE5190709F476C008F07FC08091B1
:1015E000E8018BC00B3FFCE51F0709F44FC018F55D
:1015F00003313CE5130709F47DC078F401319CE523
:10160000190709F473C002311C4509F0A4C00E94F7
:10161000B11B8091E8018F7733C00531FCE51F07CE
:1016200009F472C008F486C00A3F1C4509F093C053
:101630008091E9013EC00F3F8CE5180709F45FC0B7
:1016400058F40D3FECE51E0709F444C008F43FC010
:101650008091E90182602DC001302DE5120709F467
:1016600075C008F45DC002301D4509F074C060E02B
:101670006EC08091E801816003C08091E8018061C3
:101680008093E80168C08091E80111C08091E90170
:1016900082608093E9015FC08091E8018062F0CFB1
:1016A0008091E8018064ECCF8091E80188608460DB
:1016B000E7CF8160EECF8091E8018E7FE1CF80910E
:1016C000E8018D7FDDCF8091E801877FD9CF8091C0
:1016D000E90118C08091E9018D7FDBCF8091E8019D
:1016E0008F7ECECF8091E8018F7DCACF8091E801B7
:1016F0008F7BC6CF8091E801877F8B7FC1CF8091A0
:10170000E9018D7F8E7FC5CF8091E80182FB222782
:1017100020F991E0922790FB82F990FB83F9B0CFFA
:101720008091E901982F909591708E7F892B90FB85
:1017300081F9AFCF0E94B11B8091E80187FB22277E
:1017400020F991E0922790FB87F99ACF61E08EE033
:1017500090E00E94C5246091E8011091E90184E0C5
:1017600090E00E94C524612F81E290E00E94C52490
:101770000E94B11B83C006312CE5120721F5809130
:10178000CC048A7A91E009F490E09093CE0188230A
:1017900011F065E301C069E28DE594E00E94381F15
:1017A0000FC00631FCE51F0709F087C08091CE010C
:1017B000882309F44EC365E38DE594E00E942B1F56
:1017C0000E94CC1F5BC001152CE5120739F00E3DBD
:1017D0001C4509F07CC00E94631F50C00E94B11BD1
:1017E0008FEF94E3ECE081509040E040E1F700C0DF
:1017F000000081E08093E00080E28093D8001092A6
:10180000C9008FE19EE40197F1F700C0000087E076
:1018100090EBDC018093DA049093DB04A093DC046A
:10182000B093DD049CE088E10FB6F894A89580930E
:1018300060000FBE90936000FFCF8091ED0180FFAC
:101840000EC38E7F8093ED016091ED017091EE01EA
:101850008091EF019091F0010E94A4048091EC012D
:1018600081608093EC019FEFE0E7F2E09150E0406F
:10187000F040E1F700C000000E944D048091C904CF
:10188000877009F42BC3F7018281882309F426C3EA
:1018900082E02A960FB6F894DEBF0FBECDBFDF916F
:1018A000CF911F910F91FF90EF90DF90CF90BF905D
:1018B000AF909F908F900C94CC208091CC0482723A
:1018C000F801E25CFC45E431F10508F4C4C2F7011B
:1018D00000811181992349F0C8010E94F91FD82E77
:1018E000682FC8010E94722004C0C8010E944620CF
:1018F000D82EB8018D2D0E946C068C01982EF70110
:10190000A580A2943FE0A322D280D1101092CB04F4
:101910008091C904877099F0DD2089F0812F807F44
:10192000803421F080E2800F883048F082E00E940D
:10193000CC208091C9048770CC24C3948111C12C20
:10194000B12EB2942FE0B2228B2D90E08C30910515
:1019500008F040C2FC01EA5AFF4F0C942125812F68
:10196000807F1F70882311F01295107FDD20B9F061
:10197000112309F41AC280E2800F883010F0911010
:1019800006C08091CC04182B1093CC0405C0809124
:10199000CB04182B1093CB040E94CC1F06C2802FBF
:1019A0000E94D11B112309F415C2005E1095083066
:1019B00010F0911006C08091CC0418231093CC0431
:1019C00005C08091CB0418231093CB040E94CC1F38
:1019D00001C2812F807F1F70803211F01295107F1D
:1019E000992021F0F1E09F16E1F02AC0DD2081F07E
:1019F0008091CD04AA2051F001E0A01207C0182B5D
:101A0000181709F4E7C11093CD04E4C1812B10C06D
:101A1000AA2021F021E0A21609F4DCC10E94C61F11
:101A200027C0DD2041F035E03A1508F4D3C1812FFD
:101A30000E94C71BCFC184E08A1508F4CBC118C02F
:101A4000DD2049F0AA2099F3F701858180FFADC11F
:101A50008F708583ECCFAA2059F0093309F0B7C104
:101A6000FFEF17EE23E0F15010402040E1F7ADC149
:101A7000812F0E94BC1BAEC1812F869586958370F5
:101A800019F0813059F0A6C1DD2019F0C80193701A
:101A900002C080E090E00E940304A2C1DD2019F0A2
:101AA000C801937002C080E090E00E94ED0398C1ED
:101AB000802FDD2019F00E94371E02C00E94701D89
:101AC0000E94EC1E8DC1812F837009F069C0D11076
:101AD00085C1902F929596959770990F990F802FA9
:101AE0008F70882E912CA12CB12C092E04C0880C4B
:101AF000991CAA1CBB1C0A94D2F704FF12C04FE029
:101B000050E060E070E004C0440F551F661F771F6F
:101B10009A95D2F7DB01CA0180959095A095B09572
:101B200003C080E090E0DC0116951695412F4370CC
:101B3000423019F1C8F40091CE041091CF042091E5
:101B4000D0043091D104413059F088299929AA292B
:101B5000BB29BC01CD0160237123822393230AC0DA
:101B6000802A912AA22AB32ABC01CD0168297929A9
:101B70008A299B290E94062131C188299929AA29ED
:101B8000BB290091CE041091CF042091D004309154
:101B9000D104BC01CD016027712782279327EACFAA
:101BA000DD2019F0812F817001C08695882309F40A
:101BB00015C1902F929596959770990F990F802F38
:101BC0008F70882E912CA12CB12C092E04C0880C6A
:101BD000991CAA1CBB1C0A94D2F704FF12C04FE048
:101BE00050E060E070E004C0440F551F661F771F8F
:101BF0009A95D2F7DB01CA0180959095A095B09592
:101C000003C080E090E0DC0116951695412F4370EB
:101C10004230D9F068F50091C5041091C6042091B6
:101C2000C7043091C804413059F088299929AA295C
:101C3000BB29BC01CD0160237123822393231EC0E5
:101C4000802A912AA22AB32A13C088299929AA296D
:101C5000BB290091C5041091C6042091C70430919E
:101C6000C804BC01CD01602771278227932706C0D5
:101C7000BC01CD01682979298A299B290E949D20D0
:101C8000ADC01F70DD2039F0812F0E94E520802F2C
:101C90000E94C71BA3C0802F0E94BC1B812F0E94E3
:101CA000A7209CC0802F32EF931609F440C039154D
:101CB00038F090EF991661F0E1EF9E1699F170C03F
:101CC000F3EF9F16D9F124EF921609F44EC068C0C5
:101CD000DD2019F134E03A1508F47CC01F7181E071
:101CE00090E0A0E0B0E0AC01BD0104C0440F551F7E
:101CF000661F771F1A95D2F78091C5049091C6048C
:101D0000A091C704B091C8048A019B010827192734
:101D10002A273B27C901B80125C025E02A1508F468
:101D200059C0DCCFDD2029F0812F8F712CC0DD2040
:101D3000D9F3812F8F710E94A7204CC0DD2079F04C
:101D40001F7181E090E0A0E0B0E0BC01CD0104C0D3
:101D5000660F771F881F991F1A95D2F703C060E09E
:101D600070E0CB010E949D2035C0DD2079F01F710D
:101D7000812F0E94E52038E0139FC0011124836069
:101D80008093C904812F0E94E52024C081E00E9435
:101D9000CC2081E08A15F0F482E00E94CC201AC0A9
:101DA000DD2039F0AA2009F4BFCF802F0E94381C13
:101DB00011C0AA2009F4BDCF893349F49FEFE7EEA3
:101DC000F3E09150E040F040E1F700C00000802FC8
:101DD0000E94D11B88EF8B0D843010F40E941904EF
:101DE000CC20A9F08091C90480FD11C0F7011282B6
:101DF0008595859585950E94E520C7010E94000A7A
:101E00008091C9048595859585950E94A72085E0D8
:101E1000F701DE01119601900D928A95E1F7898113
:101E20009A810E944620EA81F0E008E0809FE00D60
:101E3000F11D112483E0EE0FFF1F8A95E1F78981E0
:101E4000E80FF11DEE0FFF1FE25EFD4F85919491AB
:101E500045C069E2B1CCEE59FF4F0C942125816059
:101E60008093ED0161E0869536C04BE256E064E375
:101E700076E02CC044E356E06BE276E027C044ED08
:101E800055E06DED75E022C04DED55E064ED75E077
:101E90001DC04CEB55E068EC75E018C048EC55E00F
:101EA0006CEB75E013C044EA55E060EB75E00EC0E2
:101EB00040EB55E064EA75E009C046EE55E067EF97
:101EC00075E004C047EF55E066EE75E00E944704F8
:101ED000D5CC61E081E00E940806D0CC2A960FB6EE
:101EE000F894DEBF0FBECDBFDF91CF911F910F9150
:101EF000FF90EF90DF90CF90BF90AF909F908F902A
:101F00000895BC0183E00C943D1DCF93DF93EC0159
:101F10000E94FF21823011F0843031F4BE0184E050
:101F2000DF91CF910C943D1DDF91CF910895CF9318
:101F3000DF93CDB7DEB762970FB6F894DEBF0FBE62
:101F4000CDBF84B7877F84BF0FB6F894A8958091E2
:101F50006000886180936000109260000FBE90E086
:101F600080E80FB6F89480936100909361000FBEF3
:101F700085B7806885BF85B7806885BF0E94F917DF
:101F80000E9418188091E20084608093E2007894A7
:101F9000809153048823A1F01091E9001F70909163
:101FA000EC00892F817090FD80E8182B1092E900D9
:101FB0008091E80083FD0E94E0141F701093E900F7
:101FC00082E084BD93E095BD9AEF97BD80936E004B
:101FD0000E944F068093150180911501882321F0FE
:101FE000109200018AE003C08AE080930001809390
:101FF00001010E944F06882331F062E070E085E025
:1020000091E00E944C23809115018091150181116E
:1020100002C094E001C090E09093E70184E0891B46
:102020008093E601ACE2B1E040E351E061E070E0B2
:102030008D91E82FE295EF70F0E021A18F708B0178
:1020400002C0000F111F8A95E2F7C801902F9095EA
:10205000922391A392A1892B82A34A175B0741F790
:10206000A4E3B1E04CE351E061E070E08D91E82F32
:10207000E295EF70F0E021A18F708B0102C0000F9C
:10208000111F8A95E2F7C801902F9095922391A392
:1020900092A1892B82A34A175B0741F7EEEDF1E08D
:1020A00086EE91E0A7EFB1E011921D928E179F0787
:1020B000D9F780E090E00E94BF248C3E9E4F11F043
:1020C0000E94631F0E944F06811106C062E070E00B
:1020D00085E091E00E9455231092250480E88093CA
:1020E00004020E9407226DE070E081E394E00E9408
:1020F0008B14892B09F03FC08091250463E070E0C8
:1021000081FD36C08EE294E00E948B14892B99F5F4
:102110006DE070E08EE194E00E948B14892B59F5FC
:102120000E94D41EDC01CB01805A9541AF4FBF4FB6
:102130008093290490932A04A0932B04B0932C0439
:1021400080E092E0E5E2F2E0DF018C011D920150B7
:102150001040E1F78FEF9FEF9093280480932704BE
:1021600081E080932E0480932D041092260403C0F6
:102170008BE294E0C9CF80E090E00E94BF248C3EC7
:102180009E4F11F00E94631F82E090E00E94B124F4
:1021900080933D040E94521F9093E9018093E801CF
:1021A00083E090E00E94B124682F70E080E090E02E
:1021B0000E9406218091F201811139C080E090E0F7
:1021C0000E94BF248C3E9E4F21F00E94631F0E94FC
:1021D000380688E090E00E94B9246093ED01709386
:1021E000EE018093EF019093F0018091EC01836008
:1021F0008093EC016E7F71F40E94380688E090E0D5
:102200000E94B9246093ED017093EE018093EF0179
:102210009093F0010E9499048091ED0180FF04C029
:1022200060E086950E94080681E08093F20180912B
:102230001501811106C085E38093170186E680931E
:10224000160120911701E22FE295EF70F0E031A125
:102250002F7081E090E0AC01022E01C0440F0A947F
:10226000EAF7542F5095352331A332A1432B42A3D3
:1022700040911601A42FA295AF70B0E091963C91C9
:1022800091974F70042E01C0880F0A94EAF7982F97
:102290009095932391969C93919792969C91929767
:1022A000892B92968C93929780A190E002C095958D
:1022B00087952A95E2F7817090962C9130E002C0C4
:1022C000359527954A95E2F720FD02C090E001C0C0
:1022D00092E0892B809303029091150181E0982769
:1022E00090930202891B8093F3018FE191E0909318
:1022F000F5018093F401CC24CA94DD24D3944424C2
:102300004394512C80915304853009F03AC0809158
:102310005304843021F11092F60180E4A8E1B0E08A
:102320000FB6F894A895A09360000FBE809360004C
:1023300083B7817F846083BF83B7816083BF7894D4
:10234000889583B78E7F83BF0FB6F894A895809148
:102350006000886180936000109260000FBE8091E1
:102360005204882309F4CECF0E949108E7EFF1E0F0
:1023700081918111B0C20FEF11E00E171F07C1F755
:10238000C1CF0E949108B82E0E944F06882309F4FD
:1023900062C0EEE3F4E0A7EFB1E000E010E0302F20
:1023A0002D919191922709F450C080E0FF24F3947D
:1023B000492F4F2109F444C08F8338872F2181E0B2
:1023C00009F480E089870E94E01E8160782F9B8756
:1023D0008A874F81588569858B850E945103F80152
:1023E000E25CFB4F8081F826F082A09103024A2F25
:1023F000440F440F20911701E22FE295EF70F0E0B7
:1024000080A190E02F7002C0959587952A95E2F7FC
:102410008170992750911601E52FE295EF70F0E059
:1024200020A130E05F7002C0359527955A95E2F7FC
:10243000D901A170BB2720FF1EC0A2E0B0E01BC0E5
:102440008F5FFF0C883009F0B3CF0F5F1F4F08304C
:10245000110509F0A4CFCC86CD861E860E94E01E11
:102460008160782F988B8F874C855D856E858889F4
:102470000E945103BACFA82BB92BA42BA09303021F
:10248000E0910202AF70B0E0A45CBE4F9C918091DD
:102490000102890F843044F00E2E000CFF0BE15036
:1024A000FE4F90819F5F09C08D3F44F40E2E000CBB
:1024B000FF0BE150FE4F908191509083837887FF0E
:1024C00003C081508C6F8F5F8093010280912E0436
:1024D000882309F4FEC02091270430912804211597
:1024E000310509F4D6C0809126048111D2C0082F8D
:1024F00010E07201082E02C0EE0CFF1C0A94E2F7F5
:10250000A70142235323452B11F48F5FF0CF909105
:102510002504980175E0220F331F7A95E1F790FDAD
:1025200012C08295880F807680931A01220F232F84
:10253000221F330B319520931D01815E80931B0177
:1025400010921E0112C055E0369527955A95E1F775
:10255000220F220F220F20931A0110921D01295FD2
:1025600020931B0123E020931E0124E630E047E086
:1025700050E068E171E088E70E949422892B09F01D
:1025800088C08091250480FD22C045E0000F111F06
:102590004A95E1F7A8014B5D5D4F04E610E020E2AB
:1025A00030E060E488E70E94BB22892B09F071C00B
:1025B0000E942504E094F0948091270490912804CF
:1025C000E822F922F0922804E092270462C0A5E0F4
:1025D000B2E0E0E21D92EA95E9F735E0000F111F45
:1025E0003A95E1F720E531E03A8B298B6CE471E014
:1025F000A989BA898D91BA8BA98BFB019191BF01F1
:10260000A801490F511D4B5D5D4F90E08B5F9D4FC1
:10261000FC0127E0922E9F01281B390B742C01C06E
:10262000770C2A95EAF71A01812CD101AD901D0192
:10263000A720292D28192770622E022E000C330B9B
:10264000BA2D01C0BB0F6A94EAF76B2E3195219524
:1026500031092770332701C0A6942A95EAF76A2822
:10266000A0806A286082839428E08212DECF9A9448
:1026700031963FEF9312CFCF89899A898455914043
:1026800009F0B6CF04E610E020E230E045E052E089
:1026900088CF80912D048823E1F00E94D41E009100
:1026A000290410912A0420912B0430912C04DC0180
:1026B000CB01801B910BA20BB30BB7FD0AC062E0EC
:1026C00070E08EE394E00E948B14892B11F4109239
:1026D0002D04B1100E94250486E0E6E3F4E0DE015B
:1026E000119601900D928A95E1F78091380481113D
:1026F00005C080913904882309F46CC080913404AA
:10270000909135040E94C51E9C0190913304992339
:1027100009F4F7C02333310508F45CC09F3F19F07A
:102720009F5F9093330410923A0410923B0480917F
:102730003804181624F40E94171E809338048091E0
:10274000380487FF05C00E94171E819580933804C6
:1027500080913904181624F40E94171E80933904BE
:102760008091390487FF05C00E94171E81958093D0
:102770003904309138043323D1F0209139042223D5
:10278000B1F005EB3003C0011124992319F09093A7
:10279000380402C0D092380415EB2103C001112483
:1027A000992319F09093390402C0D09239040E9401
:1027B000EC1E809131049091320490933504809303
:1027C000340486E0FE013196A6E3B4E001900D9258
:1027D0008A95E1F780913A04811105C080913B040C
:1027E000882309F46CC080912F04909130040E94DA
:1027F000C51E9C0190913304992309F487C02536A6
:10280000310508F45CC09F3F19F09F5F909333043B
:10281000109238041092390480913A04181624F466
:102820000E94F51D80933A0480913A0487FF05C009
:102830000E94F51D819580933A0480913B041816FF
:1028400024F40E94F51D80933B0480913B0487FF94
:1028500005C00E94F51D819580933B0430913A0498
:102860003323D1F020913B042223B1F045EB340314
:10287000C0011124992319F090933A0402C0D09218
:102880003A0405EB2003C0011124992319F0909319
:102890003B0402C0D0923B040E94EC1E80913104A4
:1028A000909132049093300480932F0486E0FE01CF
:1028B0003196A6E3B4E001900D928A95E1F70E946B
:1028C000190490913C04891709F41CCD0E94190445
:1028D00080933C0417CD10E119BD82E189BD09B494
:1028E00000FEFDCF8091D8008F7D8093D80080912D
:1028F000E00082608093E0008091E00081FDFCCFE9
:1029000001CD2D32314008F00BCF64CF2D32314054
:1029100008F07BCFD4CFEF92FF920F931F93CF930A
:10292000DF93EC017B0164E670E088E70E940D22F2
:102930008C01EC0EFD1ECE15DF0561F017FD0AC0FF
:10294000FE01849164E670E00E9464228C0121966D
:10295000892B89F30E94E822C801DF91CF911F9152
:102960000F91FF90EF900895EF92FF920F931F93B6
:10297000CF93DF937C018B010E941A21811119C032
:10298000E70101151105A1F08091E80085FD0AC05D
:102990008091E8008E778093E8000E941A218823B6
:1029A00081F307C089918093F10001501109E9CFAB
:1029B00080E0DF91CF911F910F91FF90EF900895EC
:1029C0001F93CF93DF93CDB7DEB7AA970FB6F894D6
:1029D000DEBF0FBECDBFE5E5F4E08091F10081934D
:1029E00024E0ED35F207C9F780915604833009F4ED
:1029F00060C030F4813071F0823009F49AC0B1C007
:102A00008A3009F486C08B3009F46BC0893009F034
:102A1000A8C020C080915504813A09F0A2C08091DD
:102A2000E800877F8093E8008091590490915A04D0
:102A3000892B21F468E089E494E003C060E080E041
:102A400090E070E00E94A1218091E8008B77809354
:102A5000E80087C080915504813209F082C08091DE
:102A6000590490915A04029708F07BC08091E800C5
:102A7000877F8093E8008091E80082FD05C0809107
:102A800053048111F8CF6DC02091F3008091F200C2
:102A900090E0922B029729F48091F1008B7F813096
:102AA00021F48091F100809348048091E8008B77B5
:102AB00054C080915504813A09F053C08091590463
:102AC00090915A04892B09F04CC08091E800877FCF
:102AD0008093E8008091E80080FFFCCF809129017D
:102AE00037C0809155048132E1F58091590490916D
:102AF0005A04892BB1F58091E800877F8093E80024
:102B00000E944D2180915704809329010E94B11B9E
:102B100028C080915504813221F58091E800877F9B
:102B20008093E8000E944D218091580480934704CF
:102B300018C080915504813AA1F48091E800877F04
:102B40008093E8008091E80080FFFCCF80914704EB
:102B50008093F1008091E8008E778093E8000E94D6
:102B60004D218091E80083FFD8C180915504909158
:102B70005604492F50E04A30510508F0CEC1FA0101
:102B8000EA58FF4F0C942125803821F0823809F053
:102B9000C4C108C08091510490915204992389F0D6
:102BA00082600FC0809159048F70873008F0B5C1E2
:102BB0008093E9008091EB0085FB882780F91092D3
:102BC000E9009091E800977F9093E8008093F100EE
:102BD0001092F10071C1282F2D7F09F09EC188232A
:102BE00019F0823061F099C180915704813009F069
:102BF00094C1933009F080E0809352042EC08091FC
:102C0000570481112AC0809159048F702FEF280F2B
:102C1000263008F082C18093E9002091EB0020FF6C
:102C20001CC0933021F48091EB00806214C090911D
:102C3000EB0090619093EB0021E030E0A90102C02D
:102C4000440F551F8A95E2F74093EA001092EA007C
:102C50008091EB0088608093EB001092E9008091F6
:102C6000E800877F2CC1811158C1109157041F774C
:102C70008091E3008078812B8093E3008091E800CD
:102C8000877F8093E8000E944D218091E80080FFBB
:102C9000FCCF8091E30080688093E300111102C0B3
:102CA00082E001C083E08093530437C180588230B2
:102CB00008F033C180915704909158048C3D53E043
:102CC000950779F583E08A838AE289834FB7F89480
:102CD000DE01139620E03EE051E2E32FF0E0509356
:102CE0005700E49120FF03C0E295EF703F5FEF7063
:102CF0008E2F90E0EA3010F0C79601C0C0968D93F9
:102D00009D932F5F243149F74FBF8091E800877F63
:102D10008093E8006AE270E0CE0101960E94A12152
:102D2000BAC04091590450915A04292F33272330B7
:102D30003105B1F068F42130310509F4FDC02230CD
:102D4000310509F0EAC08BE390E0E1E0F5E050C026
:102D50002132310581F12232310509F439C0DDC05B
:102D6000992781309105B9F070F082309105D9F042
:102D7000039709F0D2C0EEE4F5E0E4918E2F90E0E5
:102D8000EEE4F5E032C0E6E8F5E0E4918E2F90E065
:102D9000E6E8F5E02AC0E4E7F5E0E4918E2F90E064
:102DA000E4E7F5E022C0E4E5F5E0E4918E2F90E061
:102DB000E4E5F5E01AC04115510509F4C2C04130FF
:102DC000510509F0AAC089E090E0ECE2F5E010C0FE
:102DD0004115510509F4BAC04130510509F09DC0B3
:102DE00081E890E0E0E4F4E003C0009709F495C0C6
:102DF0002091E800277F2093E80020915B04309128
:102E00005C048217930708F49C0140E0211531050A
:102E100089F180915304882309F43DC08530D9F1AC
:102E20008091E80083FD37C08091E80082FD2FC0CB
:102E30008091E80080FFEACF4091F3008091F2009A
:102E400090E0942B2115310559F08830910540F41C
:102E500044914093F1003196215031090196F2CF0F
:102E600041E0089709F040E08091E8008E77809378
:102E7000E800CCCF4111CDCF0AC080915304882304
:102E800051F0853041F08091E80083FD04C08091CD
:102E9000E80082FFF2CF8091E8008B778093E80012
:102EA0003CC08038D1F58091E800877F8093E800AE
:102EB000809154048093F1008091E8008E77809394
:102EC000E8000E944D2129C0811127C0809157043C
:102ED000909158049927029704F58091E800877F24
:102EE0008093E80010915704109354040E944D21E0
:102EF000111106C08091E30087FD02C081E001C08E
:102F000084E08093530442E061EC81E00E946C21F4
:102F100042E261EC82E00E946C218091E80083FF34
:102F20001AC08091E800877F8093E8008091EB00D1
:102F300080628093EB000FC082E190E0ECE3F5E06B
:102F400057CF89E090E0E3E1F5E052CF80E490E0F4
:102F5000E1ECF4E04DCFAA960FB6F894DEBF0FBEB9
:102F6000CDBFDF91CF911F9108951F920F920FB6A1
:102F70000F9211242F933F934F935F936F937F93FF
:102F80008F939F93AF93BF93CF93DF93EF93FF9371
:102F9000C091E900CF708091EC00D82FD17080FDF6
:102FA000D0E81092E9008091F000877F8093F000D4
:102FB00078940E94E0141092E9008091F0008860FB
:102FC0008093F000CD2BCF70C093E900FF91EF917B
:102FD000DF91CF91BF91AF919F918F917F916F9131
:102FE0005F914F913F912F910F900FBE0F901F90C7
:102FF0001895E8EDF0E080818E7F80831092E200EA
:103000001092DA001092E100A0EEB0E08C918160A5
:103010008C9380818F77808319BCA7EDB0E08C9171
:103020008E7F8C9380818F7E8083109246040895DA
:10303000CF92DF92EF92FF920F931F93CF93DF9384
:10304000C8EDD0E088818F7E8883E7EDF0E0808155
:103050008160808384E082BF81E080934604888120
:103060008E7F888302EE10E0F80110821092DA0061
:1030700081EEC82ED12CF601108288818F7788834B
:1030800088818068888388818F7D888319BC1092AD
:10309000530410925404109252041092510490EE72
:1030A000E92EF12CF70180818B7F808388818160FC
:1030B000888342E060E080E00E946C21F60180811C
:1030C0008E7F8083F8018081816080838081886029
:1030D0008083F70180818E7F8083888180618883EF
:1030E000DF91CF911F910F91FF90EF90DF90CF90E4
:1030F00008951F920F920FB60F9211242F933F93B2
:103100004F935F936F937F938F939F93AF93BF93EF
:10311000EF93FF938091E10082FF09C08091E2006C
:1031200082FF05C08091E1008B7F8093E100809158
:10313000DA0080FF2AC08091D80080FF26C08091ED
:10314000DA008E7F8093DA008091D90080FF18C06A
:1031500080E189BD82E189BD09B400FEFDCF81E037
:10316000809353048091460481110FC00E94F91787
:103170000E9418188091E20084608093E20005C0EC
:1031800019BC10925304109246048091E10080FF14
:1031900017C08091E20080FF13C08091E2008E7F13
:1031A0008093E2008091E20080618093E200809150
:1031B000D80080628093D80019BC85E080935304C6
:1031C0008091E10084FF32C08091E20084FF2EC034
:1031D00080E189BD82E189BD09B400FEFDCF809107
:1031E000D8008F7D8093D8008091E1008F7E8093FE
:1031F000E1008091E2008F7E8093E2008091E20006
:1032000081608093E20080915404882311F084E06F
:1032100007C08091E30087FD02C081E001C083E028
:10322000809353040E94B11B0E9419048091E10015
:1032300083FF27C08091E20083FF23C08091E100DB
:10324000877F8093E10082E08093530410925404BE
:103250008091E1008E7F8093E1008091E2008E7F7B
:103260008093E2008091E20080618093E20042E07E
:1032700060E080E00E946C218091F0008860809383
:10328000F000FF91EF91BF91AF919F918F917F914E
:103290006F915F914F913F912F910F900FBE0F90C3
:1032A0001F9018950F931F93CF93DF9380916A041B
:1032B00082958F7009F05DC080916704882309F4BE
:1032C00058C080919C0410916B04609165047091CA
:1032D0006604C0916804D091690491E06F3F09F0E1
:1032E00090E0292F06E0811709F443C0209721F0D0
:1032F0007F3F21F030E003C031E001C0322F90E089
:1033000030FD34C0089FF001099FF00D1124DF014A
:10331000A459BB4F11963C911197371327C03C918C
:10332000361324C012963C91129731111FC0139688
:103330004D915C9114974C1B5D0B483C5105B0F4CA
:1033400080916A048F70806180936A04EF58FB4F0C
:1033500080818F708061808385E694E00E94000AFE
:10336000DF91CF911F910F910C94102101968770DE
:10337000BACFDF91CF911F910F9108950E943B200A
:10338000292F2F70E92FE295EF704E2F50E0FA01B0
:103390003297EE30F105B8F4E058FF4F0C94212538
:1033A000803F99F018F4883E70F40FC0843F59F4C0
:1033B0000CC0883E50F0813F31F407C0822F8695C3
:1033C00086958695089580E0089581E008959F92FE
:1033D000AF92BF92CF92DF92EF92FF920F931F9323
:1033E000CF93DF93CDB7DEB761970FB6F894DEBF0A
:1033F0000FBECDBF8C0185E0F801DE011D96019066
:103400000D928A95E1F7F80190818181E2803091F7
:103410006504609166044091680450916904411507
:10342000510531F06F3F31F421E03F3F19F403C003
:1034300021E001C020E0F22FF1709F2E20FD23C17A
:10344000F801C380D48025E6A22E24E0B22EF090AD
:103450006704F601E41BF50BFF2009F4CEC02091B0
:103460006A04E83CF10508F099C0422F407F09F05A
:1034700051C0681311C039130FC0FE2CE1100CC0ED
:103480002F70206120936A04C5010E94000A809178
:103490006A04F801858337C1CD2831F08F3F31F4BC
:1034A00021E09F3F19F403C021E001C020E020FD8E
:1034B00003C021E02E2502C020E030E0F22FF170A1
:1034C000FF2E20FF1DC020919C0440916B0456E00C
:1034D000241709F4F6C030E0529FF001539FF00D1D
:1034E0001124E459FB4F6181861306C06081961355
:1034F00003C06281E61204C02F5F3F4F2770E8CF00
:10350000FE2CEE2009F4FFC080916A048160809354
:103510006A0450C0681307C0391305C0E11003C026
:10352000F80125838DC09D878E878D859E850E949D
:10353000BE19882369F1EE2059F120916A04822F87
:1035400082958F7090E0029774F08091650490915D
:10355000660498878F831986DB86CA862C87CE01FE
:1035600007960E94000A86E0F801A5E6B4E0019003
:103570000D928A95E1F70E9452190DC06817E1F08B
:103580009D878E878D859E850E94BE1981111EC0E4
:10359000C8010E94000AFF24F394B5C0422F407F67
:1035A00069F785E694E00E94000A86E0F501119231
:1035B0008A95E9F7F12CA7C03913E2CFE110E0CFEB
:1035C000F8012583C8010E94000A57C0EE2001F3CC
:1035D00020916A04822F82958F7090E002971CF2EE
:1035E00080916504909166049A8389831B82DD82B1
:1035F000CC822E83CE010196B4CFE83CF105E8F5EC
:10360000FE2CEE2029F2681327C0391325C0209123
:103610006A0420FD18C0822F82958F70482F50E0D9
:103620004115510581F0F80125834F30510541F0D6
:103630008F5F982F9295907F822F8F70892B858333
:10364000C8010E94000A86E0F801A5E6B4E00190F6
:103650000D928A95E1F757C09D878E878D859E854F
:103660000E94BE1981117FCF80916A04816080938E
:103670006A04C8010E94000A46C086E0F501119262
:103680008A95E9F740C0EE2009F482CF9D878E87A6
:103690008D859E850E94BE19F82E882309F478CF67
:1036A00086E0F801A5E6B4E001900D928A95E1F775
:1036B00080916504909166040E943B200E945219FB
:1036C00022C09D878E878D859E850E943B20292F55
:1036D00022952F70223028F49F7039F0811105C097
:1036E0000BC0243028F49F7049F4805E883020F0AD
:1036F000C8010E94000A9F2CF92C05C0F801958191
:10370000907F99F7F9CF8F2D61960FB6F894DEBFB1
:103710000FBECDBFDF91CF911F910F91FF90EF9022
:10372000DF90CF90BF90AF909F9008951092CB0400
:103730001092CA040E94CC1FE6E3F4E086E0DF01A9
:103740001D928A95E9F7109233041092D6040E94D4
:10375000EC1E80E090E00E94030480E090E00C9476
:10376000ED031092CC0486E0EFE5F4E0DF011D925A
:103770008A95E9F70C94961B882341F080959091E7
:10378000CC0489238093CC040C94CC1F0895882307
:1037900039F09091CC04892B8093CC040C94CC1FED
:1037A0000895882309F463C0823869F40E941904DB
:1037B00081FF5DC069E38DE594E00E94381F0E949F
:1037C000CC1F69E30EC0833891F40E94190480FF76
:1037D0004EC063E58DE594E00E94381F0E94CC1F27
:1037E00063E58DE594E00E942B1F0C94CC1F843878
:1037F00069F40E94190482FF3AC067E48DE594E001
:103800000E94381F0E94CC1F67E4EBCF9CEF980FFB
:10381000913A10F4682FE5CF90E2980F983088F431
:10382000877021E030E0A90102C0440F551F8A953E
:10383000E2F7CA0180959091CC0489238093CC044F
:10384000D4CF9BE5980F933020F480E090E00C9467
:10385000030498E5980F973120F480E090E00C94F1
:10386000ED03803F20F00E94701D0C94EC1E089523
:10387000CF93882309F49EC0C82F8238B1F40E94E8
:10388000190481FD97C069E38DE594E00E94381F1B
:103890000E94CC1F2FEF81EE94E021508040904099
:1038A000E1F700C0000069E317C08338E1F40E942B
:1038B000190480FD7FC063E58DE594E00E94381F08
:1038C0000E94CC1F2FEF81EE94E021508040904069
:1038D000E1F700C0000063E58DE594E00E942B1F36
:1038E000CF910C94CC1F8438B1F40E94190482FD4E
:1038F00061C067E48DE594E00E94381F0E94CC1FF0
:103900002FEF81EE94E0215080409040E1F700C01D
:10391000000067E4E1CF8CEF8C0F813A80F4EFE593
:10392000F4E085E694E02191C217E1F18E179F073C
:10393000D1F76C2F8DE594E00E94381FD1CF80E243
:103940008C0F883068F4C77081E090E001C0880F68
:10395000CA95EAF79091CC04892B8093CC04C0CF10
:10396000EBE5EC0FE33040F4F0E0EC5AFE4F8081E1
:1039700090E0CF910C940304E8E5EC0FE73150F4AC
:10398000F0E0EE0FFF1FE95AFE4F80819181CF9149
:103990000C94ED03C03F70F08C2F0E94371ECF9126
:1039A0000C94EC1E6C2F8DE594E00E942B1F0E945E
:1039B000CC1FBFCFCF910895809148040895CF9335
:1039C000DF93EC010E94FF21823011F08430F9F482
:1039D00082E08093E9008FEF9091E800815095FD9F
:1039E00006C095ED9A95F1F700008111F5CF809111
:1039F000E80085FF0CC040E050E066E070E0CE01DA
:103A00000E94B4148091E8008E778093E800DF91E3
:103A1000CF910895CF93DF93EC010E94FF21823074
:103A200011F0843039F581E08093E9008FEF9091B7
:103A3000E800815095FD06C095ED9A95F1F70000DC
:103A40008111F5CF8091E80085FF14C040E050E07F
:103A500068E070E0CE010E94B4148091E8008E7797
:103A60008093E80088E0FE01A9E4B4E001900D92A3
:103A70008A95E1F7DF91CF910895CF93DF9300D03E
:103A80001F92CDB7DEB790915304943019F5898316
:103A90007B836A8382E08093E9008FEF9091E80056
:103AA000815095FD06C095ED9A95F1F700008111C2
:103AB000F5CF8091E80085FF0DC040E050E063E065
:103AC00070E0CE0101960E94B4148091E8008E77D8
:103AD0008093E8000F900F900F90DF91CF910895A1
:103AE000803F39F48091390487FF6CC0109239040B
:103AF00069C0813F29F4809139041816BCF362C073
:103B000090913804823F29F497FF5CC010923804EA
:103B100059C0833F19F41916CCF354C0893F41F4BE
:103B200080913A0418160CF04DC010923A044AC025
:103B30008A3F29F480913A0487FF44C0F6CF8B3F37
:103B400039F480913B0487FF3DC010923B043AC09A
:103B50008C3F29F480913B041816BCF333C0843F9A
:103B600021F4809137048E7F17C0853F21F4809126
:103B700037048D7F11C0863F21F4809137048B7FFD
:103B80000BC0873F21F480913704877F05C0883FB1
:103B900031F4809137048F7E8093370413C08D3FBA
:103BA00021F48091D6048E7F0BC08E3F21F480914A
:103BB000D6048D7F05C08F3F29F48091D6048B7F7A
:103BC0008093D6048091380481110EC0809139040D
:103BD00081110AC080913A04811106C080913B0492
:103BE000811102C01092330408958091D60480FDA3
:103BF00016C081FD16C082FD18C080913304882351
:103C000091F0883290F428E0829FC001112468E28C
:103C100070E00E940D25862F672B29F007C082E0F7
:103C2000089584E0089581E0089588E008958091E2
:103C3000D60480FD14C081FD14C082FD16C08091A1
:103C40003304882381F0843180F422E3829FC00111
:103C5000112464E170E00E940D25862F08958CE008
:103C6000089589E1089585E0089582E30895803FED
:103C700021F40E94171E819504C0813F29F40E94FF
:103C8000171E809339040895823F21F40E94171E65
:103C9000819504C0833F29F40E94171E8093380445
:103CA0000895893F19F40E94F51D05C08A3F31F43B
:103CB0000E94F51D819580933A0408958B3F21F46D
:103CC0000E94F51D819504C08C3F29F40E94F51DCA
:103CD00080933B040895843F21F4809137048160F0
:103CE00017C0853F21F480913704826011C0863F60
:103CF00021F48091370484600BC0873F21F48091C8
:103D00003704886005C0883F31F4809137048061B2
:103D10008093370408958D3F21F48091D60481600B
:103D20000BC08E3F21F48091D604826005C08F3F86
:103D300029F48091D60484608093D6040895789401
:103D40001F920F920FB60F9211248F939F93AF93F0
:103D5000BF938091D2049091D304A091D404B091E8
:103D6000D5040196A11DB11D8093D2049093D30474
:103D7000A093D404B093D504BF91AF919F918F913C
:103D80000F900FBE0F901F9018959C014FB7F8949D
:103D90008091D2049091D304A091D404B091D50421
:103DA0004FBF821B930B08952FB7F8946091D204F4
:103DB0007091D3048091D4049091D5042FBF0895BD
:103DC0002FB7F8948091D2049091D304A091D40499
:103DD000B091D5042FBF0895E091F401F091F50161
:103DE000309749F082E0809336040480F581E02D1D
:103DF00086E394E009950E94E01E9093320480933C
:103E0000310408951F920F920FB60F9211248F93D1
:103E10009F93AF93BF938091F601811113C080915E
:103E2000D2049091D304A091D404B091D5044196CA
:103E3000A11DB11D8093D2049093D304A093D40408
:103E4000B093D504BF91AF919F918F910F900FBE0A
:103E50000F901F9018959C012A5F3F4FFC014281F3
:103E6000461301C01282019682179307B9F708958D
:103E70009C01FC0132969FEF80E04191461789F04A
:103E80009F3F19F4411101C0982F8F5F8630A9F729
:103E90009F3F39F0F901E90FF11D97FDFA95628313
:103EA00008950895CF9384E090E00E94B124C82F34
:103EB00081E290E00E94B1242C2F30E0A901582B20
:103EC000CA01CF9108956CEE7EEF80E090E00E94F1
:103ED000E32460E082E090E00E94C52460E083E09B
:103EE00090E00E94C5241092CE041092CF0410924C
:103EF000D0041092D10460E084E090E00E94C524D8
:103F000060E081E290E00E94C52460E085E090E0FE
:103F10000E94C52460E086E090E00E94C5246FEF17
:103F200087E090E00E94C52440E050E0BA0188E0BC
:103F300090E00E94D72460E08DE090E00E94C524CC
:103F400040E050E0BA0188E190E00E94D72460E0B0
:103F500087E190E00E94C52440E050E0BA018CE186
:103F600090E00E94D72460E080E290E00E94C524A7
:103F700040E050E0BA018FE090E00E94D72440E09A
:103F800050E0BA0183E190E00C94D7248091CD04F5
:103F900081111092CD0408959091CC048091CB04AE
:103FA000892B2091CA04982F922B90935D048091C5
:103FB000CD04882389F0892B80935D04EFE5F4E03C
:103FC00097E080E0915029F021912223D9F38F5F6F
:103FD000F9CF81110E94C61FE091F401F091F50123
:103FE000309731F00280F381E02D8DE594E0099463
:103FF0000895BF92CF92DF92EF92FF920F931F939B
:10400000CF93DF938C01C090C504D090C604E0909C
:10401000C704F090C8048091CE049091CF04A09181
:10402000D004B091D104C82AD92AEA2AFB2ACFE1C8
:10403000D0E0D701C6010C2E04C0B695A795979580
:1040400087950A94D2F780FD04C0219790F7B12C90
:1040500007C0BC2EB8018C2F0E946C060197A9F3F3
:104060008B2DDF91CF911F910F91FF90EF90DF90FB
:10407000CF90BF900895CF93DF93EC010E94F91F7A
:10408000BE010E946C06DF91CF91089528E0929FB7
:10409000800D1124682F669566956695982F977008
:1040A00085E0689FB001112440E050E080E0FB0112
:1040B000E40FF51FE356FB4F208130E0092E02C0CC
:1040C000369527950A94E2F721703327042E01C014
:1040D000220F0A94EAF7822B4F5F5F4F453051055C
:1040E00031F7089528E0929F800D1124E82FE6957E
:1040F000E695E695877051E001C0550F8A95EAF77D
:1041000085E0E89FF0011124E356FB4F20E030E00A
:1041100070E04081CB01022E02C0969587950A94EB
:10412000E2F78170819584278523842781932F5F0F
:104130003F4F2530310569F708956093C5047093AA
:10414000C6048093C7049093C8040C94961B0F93E5
:104150001F9341E050E060E070E004C0440F551F41
:10416000661F771F8A95D2F7409550956095709598
:104170008091C5049091C604A091C704B091C80471
:104180008A019B01082319232A233B23C901B80173
:104190001F910F910C949D202091C904809582233A
:1041A0008093C904982F977079F430E0482F082E37
:1041B000000C550B2417350739F0859585958595A5
:1041C0000E94A7201092C90408950F931F9341E005
:1041D00050E060E070E004C0440F551F661F771F79
:1041E0008A95D2F78091C5049091C604A091C70426
:1041F000B091C8048A019B01082B192B2A2B3B2B59
:10420000C901B8011F910F910C949D206093CE04B9
:104210007093CF048093D0049093D1040C94961B98
:1042200080919C0490916B04891719F08F5F8770BF
:10423000FBCF08952091E4003091E50095E6409190
:10424000EC00842F817040FF23C08091E80080FD46
:104250001DC080915304882399F0853099F0809196
:10426000EB0085FD11C04091E4005091E50024175A
:10427000350729F3915011F09A01E1CF84E00895B8
:1042800082E0089583E0089581E0089580E0089534
:104290004091E80042FFDDCF08958091550487FFEB
:1042A00011C08091E80082FD05C080915304811106
:1042B000F8CF11C08091E8008B770BC08091530438
:1042C000882349F08091E80080FFF8CF8091E800D2
:1042D0008E778093E8000895982F973068F5909333
:1042E000E900981739F07091EC002091ED005091A1
:1042F000F00003C0242F762F50E021FD02C09F5F05
:10430000ECCF3091EB003E7F3093EB003091ED002D
:104310003D7F3093ED003091EB0031603093EB0046
:104320007093EC002093ED005093F0002091EE008C
:1043300027FDE5CF80E008958F708093E90081E04C
:10434000089520915B0430915C042617370748F0EC
:104350006115710539F42091E8002E772093E8006B
:1043600001C0B901FC0120E06115710579F180916E
:1043700053048823F1F18530F1F18091E80083FD49
:104380003CC08091E80082FD2EC08091E80080FF53
:10439000EBCF2091F3008091F20090E0922B611519
:1043A000710551F08830910538F421912093F10086
:1043B000615071090196F3CF21E0089709F020E0E0
:1043C0008091E8008E778093E800CECF2111CFCF87
:1043D0000AC080915304882361F0853061F0809198
:1043E000E80083FD0AC08091E80082FFF2CF80E000
:1043F000089582E0089583E0089581E00895809112
:104400005304843011F081E0089582E00895109201
:10441000B9008CE08093B8000895EF92FF920F935B
:104420001F93CF93DF93182FEB011092BC0084EA07
:104430008093BC000E94E01E7C018091BC0087FD3F
:104440000EC0CF3F8FEFD807C1F30E94E01E8E1938
:104450009F098C179D0788F38EEF9FEF2EC08091E8
:10446000B900887F883041F08091B900887F803121
:1044700019F08FEF9FEF21C01093BB0084E8809369
:10448000BC000E94E01E8C018091BC0087FD0CC026
:10449000CF3F8FEFD807C1F30E94E01E801B910B26
:1044A0008C179D0788F3D8CF8091B900887F883119
:1044B00011F08034F1F680E090E0DF91CF911F9110
:1044C0000F91FF90EF9008950F931F93CF93DF9379
:1044D000EB018093BB0084E88093BC000E94E01E47
:1044E0008C018091BC0087FD0EC0CF3F8FEFD807B5
:1044F000C1F30E94E01E801B910B8C179D0788F36F
:104500008EEF9FEF0CC02091B900287F81E090E0F2
:10451000283211F480E090E0919581959109DF9126
:10452000CF911F910F910895CF92DF92EF92FF925A
:104530000F931F93CF93DF936B018A017901B90128
:104540000E940D22E6010C0D1D1DC017D10761F45C
:1045500024E92093BC00DF91CF911F910F91FF9030
:10456000EF90DF90CF90089597FDF2CFB70189913A
:104570000E946422EACFCF92DF92EF92FF920F93D4
:104580001F93CF93DF93C62F6A017901B8010E9470
:104590000D2297FD11C0B8018C2F0E946422E60104
:1045A000EC0CFD1CCE15DF0539F097FD05C0B801F8
:1045B00089910E946422F6CF24E92093BC00DF9108
:1045C000CF911F910F91FF90EF90DF90CF900895C2
:1045D00084E98093BC0008958EE14A9B02C081501B
:1045E000E1F74A9BFECF08955A9880E28A95F1F749
:1045F0005A9A0895FC012AE02A95F1F790E020E00C
:1046000080E031E0261779F040E14A95F1F7880F14
:104610004A9B02C08160932700C0000040E14A9598
:10462000F1F72F5FEFCF20E12A95F1F729B100C014
:10463000000030E13A95F1F722FB222720F992277A
:104640002081920F90830895EF92FF920F931F9312
:10465000CF93DF931F92CDB7DEB719828C017C0117
:10466000E60EF11C0E151F0559F00E94EC2268E0C1
:10467000CE0101960E94FA22F80181938F01F2CFB8
:1046800081E09981911180E00F90DF91CF911F918E
:104690000F91FF90EF9008959093D9048093D804E0
:1046A0006093D704529A5A9A08959093D9048093AC
:1046B000D8046093D70452985A9AEA9AE9E6F0E04F
:1046C00080818F7C80830895615091E001C0990FB3
:1046D0006A95EAF720E031E0992361F0492F4823F9
:1046E00019F05A9A232701C05A9840E24A95F1F7E7
:1046F0009695F2CF222311F05A9A01C05A9880E27F
:104700008A95F1F75A980895FF920F931F93CF93CC
:10471000DF93EC018C01060F111DC017D10741F08A
:10472000F9900E94F42268E08F2D0E946423F5CF57
:10473000DF91CF911F910F91FF9008951F920F92DB
:104740000FB60F9211240F931F932F933F934F9304
:104750005F936F937F938F939F93AF93BF93EF93E9
:10476000FF93CF93DF931F92CDB7DEB719820E94DC
:10477000EC2267E0CE0101960E94FA22382F36958E
:1047800036953695932F96959570232F2570920F19
:10479000292F2370969596958770920F891348C09C
:1047A0008981811145C08091D704831708F440C0E6
:1047B00080E18A95F1F75A9A529AA2E0AA95F1F708
:1047C00000C00091D8041091D904B8E03B9F000DBF
:1047D000111D11245A98F8016581662321F0868104
:1047E00097810E9484230E94F422F0E1FA95F1F768
:1047F0005A9852985A9A80E18A95F1F7D801129600
:104800006C911297662369F013968D919C91149781
:104810000E942423D801ED91FC91811105C082E012
:1048200004C0D801ED91FC9188E080830E94EC22C5
:104830000F90DF91CF91FF91EF91BF91AF919F9139
:104840008F917F916F915F914F913F912F911F9128
:104850000F910F900FBE0F901F9018950F931F93FD
:10486000CF93DF932091D70430E0281739070CF459
:1048700071C09C0193E0220F331F9A95E1F7C0911C
:10488000D804D091D904C20FD31FF894529A5A98E1
:1048900045E04A95F1F70000982F96959570857040
:1048A000890F982F937086958695890F8901082B1B
:1048B0000E94F42284E08A95F1F700C067E0802F1F
:1048C0000E94642340E14A95F1F752985A9A4A9916
:1048D00002C000C0FCCF87E090E04A9B0EC0019769
:1048E00051F4529A5A9AE881F98181E08083789450
:1048F00081E090E031C000C0F0CF6D81662381F08F
:104900008E819F810E94242381110AC0529A5A9A53
:10491000E881F98182E08083789482E090E01CC095
:104920000E94EC2280E28A95F1F75A98529A40E16F
:104930004A95F1F76A81662321F08B819C810E9460
:1049400084230E94F422E881F9811082789480E027
:1049500090E002C084E090E0DF91CF911F910F9131
:104960000895F999FECF92BD81BDF89A992780B537
:104970000895A6E1B0E044E050E00C94EB24A8E1F7
:10498000B0E042E050E00C94EB24262FF999FECFE2
:1049900092BD81BDF89A019700B4021639F01FBA92
:1049A00020BD0FB6F894FA9AF99A0FBE08950396AF
:1049B000272F0E94C6240E94C524252F0E94C624AA
:1049C000242F0C94C6240196272F0E94C6240C94F1
:1049D000C524DC01CB01FC01F999FECF06C0F2BD74
:1049E000E1BDF89A319600B40D9241505040B8F7AD
:1049F0000895AA1BBB1B51E107C0AA1FBB1FA61726
:104A0000B70710F0A61BB70B881F991F5A95A9F777
:104A100080959095BC01CD01089597FB072E16F463
:104A2000009407D077FD09D00E94F92407FC05D037
:104A30003EF4909581959F4F0895709561957F4FB5
:104A40000895EE0FFF1F0590F491E02D0994F8945E
:024A5000FFCF96
:104A52000014001414DD0100DD0105D801D701089E
:104A6200CF010000000135660021007F220003DC37
:104A72001C0A1DDF1C810F850F01000134C69794AB
:104A82000000000036323331F7F6F5F400FF010082
:104A9200010000FFFF0000010001FF0000081018E4
:104AA20018100800818283E200E900EA00B500B62E
:104AB20000B700CD008301CC008A0192019401214C
:104AC20002230224022502260227022A02B300B48C
:064AD200006F00700000FF
:00000001FF
