:100000000C944C080C9493080C9493080C947C2F3B
:100010000C9493080C9493080C9493080C949308F4
:100020000C9493080C9493080C949C1F0C94D81E69
:100030000C94B1220C9493080C9493080C9493089C
:100040000C9493080C9493080C9493080C949308C4
:100050000C9493080C944E220C9493080C949308DF
:100060000C9493080C9493080C9493080C949308A4
:100070000C9493080C9493080C9493080C94930894
:100080000C9493080C9493080C9493080C94930884
:100090000C9493080C9493080C9493080C94930874
:1000A0000C9493080C9493080C949308CE11CE11E1
:1000B000081208125B1277120914091482126013D5
:1000C000711371133A11541459145E1463146814A3
:1000D0006D14721477147C14811488148B148E148C
:1000E0009114941497149A149D14A214E71C0E1DD5
:1000F000B01E0E1DB01E561D791DB01E741E871E2B
:10010000472547255A255A2550255A255A255A2527
:100110004725472555255A255A25552500DA1281A8
:100120008FD9F1DB40A4A62EAF00A0C000A1C8006B
:10013000AED580A83FD300408D14200032190A00AC
:10014000047F3F1F643214643214783C1E1E140A6C
:1001500005808182838485868788898A8B8C8D8EB1
:100160008F9091929394A0A1A2A3A4A5A6A7A8A9B9
:10017000AAABACADAEAFB0B1B2B3B4C0C1C2C3C430
:10018000C5C6C7C8C9CACBCCCDCECFD0D1D2D3D4A7
:100190000020202020202020005343524C434B209D
:1001A0000020202020202020004341504C434B20A1
:1001B0000020202020202020004E554D4C434B2075
:1001C00000556E646566696E65640A004E756D70F3
:1001D00061640A004172726F77730A0053796D622D
:1001E0006F6C730A0044656661756C740A004C613B
:1001F0007965723A20004B797269612072657631B7
:100200002E300A0A0000000000000000000000007C
:1002100000008080C0E0F07078383C1C1E0E0E0E8E
:10022000070707070707070707070707070707075E
:100230000E0E0E1E1C3C387870F0E0C0808000006E
:1002400000000000000000000000000000000000AE
:10025000000000000000000000000000000000009E
:10026000000000000000000000000000000000008E
:10027000000000000000000000000000000000007E
:10028000000000000000000000000000C0E0F07C62
:100290003E1F0F07030180C0E0F078383C1C1E0EA3
:1002A0000E070787E77F1FFFFF1F7FE78707070E00
:1002B0000E1E1C3C3878F0E0C0800103070F1F3E83
:1002C0007CF0E0C000000000000000000000000022
:1002D000000000000000000000000000000000001E
:1002E000000000000000000000000000000000000E
:1002F00000000000000000000000000000000000FE
:10030000000000000000000000F0FCFF1F070100DB
:1003100000C0F0FCFEFFF7F3B1B0303030303030C9
:100320003078FE87010000FFFF00000187FE783073
:10033000303030303030B0B1F3F7FFFEFCF0C000A9
:100340000001071FFFFCF00000000000000000009B
:10035000000000000000000000000000000000009D
:10036000000000000000000000000000000000008D
:10037000000000000000000000000000000000007D
:100380000000000000000000FFFFFF000000000070
:10039000FEFFFF0101071E78E181838386868C8C36
:1003A0009898B1B7FEF8E0FFFFE0F8FEB7B1989873
:1003B0008C8C8686838381E1781E070101FFFFFE16
:1003C0000000000000FFFFFF00000000FFFF000032
:1003D000C0C030300000F0F0000000000000F0F07D
:1003E0000000F0F0C0C030303030C0C0000030300D
:1003F000F3F3000000000000303030303030C0C077
:100400000000000000000000FFFFFF0000000000EF
:100410007FFFFF8080E0781E8781C1C1616131313B
:1004200019198DED7F1F07FFFF071F7FED8D19192C
:1004300031316161C1C181871E78E08080FFFF7F1B
:100440000000000000FFFFFF000000003F3F03032B
:100450000C0C3030000000003333333333330F0FD4
:1004600000003F3F000000000000000000003030AE
:100470003F3F303000000C0C3333333333333F3FD6
:100480000000000000000000000F3FFFF8E08000C7
:1004900000030F3F7FFFEFCF8D0D0C0C0C0C0C0CED
:1004A0000C1E7FE1800000FFFF000080E17F1E0C3A
:1004B0000C0C0C0C0C0C0D8DCFEFFF7F3F0F0300CD
:1004C0000080E0F8FF3F0F00000000000000000087
:1004D000000000000000000000000000000000001C
:1004E000000000000000000000000000000000000C
:1004F00000000000000000000000000000000000FC
:1005000000000000000000000000000003070F3E94
:100510007CF8F0E0C0800103070F1E1C3C387870A7
:1005200070E0E0E1E7FEF8FFFFF8FEE7E1E0E070F1
:100530007078383C1C1E0F07030180C0E0F0F87C87
:100540003E0F070300000000000000000000000054
:10055000000000000000000000000000000000009B
:10056000000000000000000000000000000000008B
:10057000000000000000000000000000000000007B
:10058000000000000000000000000000000000006B
:100590000000010103070F0E1E1C3C3878707070BC
:1005A000E0E0E0E0E0E0E0E0E0E0E0E0E0E0E0E04B
:1005B00070707078383C1C1E0E0F0703010100009C
:1005C000000000000000000000000000000000002B
:1005D000000000000000000000000000000000001B
:1005E000000000000000000000000000000000000B
:1005F00000000000000000000000000000000000FB
:10060000000000000000AE0000000005001A001508
:1006100000070014002942000000000A0017000B28
:100620000016000400D75C1150105019000600108D
:10063000001B001D00E0002942284128644C00E313
:1006400000000000000000000000000D000900187C
:1006500000130033002E00000000001C00110008F1
:100660000012000C003400125013500E000F003620
:1006700000370038002D002C432C422B002A00E6C6
:100680000000000000000000000000310230022FD6
:10069000021F021E02010000000000350027022692
:1006A0000221022002010001000100350230002F6A
:1006B00000230222020100010001000100010001EB
:1006C0000000000000000000000000010001000127
:1006D00000010001003100000000002E022D003852
:1006E000002502220234000100010024022E0036FF
:1006F00000370038002D0001000100010001000159
:100700000000000000000000000000220021002086
:10071000001F001E00010000000000A900AB00AE99
:1007200000AC000100010001000100AA00A80001C6
:1007300000010001000100010001000100010001B1
:10074000000000000000000000000023002400253D
:1007500000260027000100000000004A005000525F
:10076000004F004B000100010001004D000100514D
:100770000001004E00010001000100010001000124
:100780000000000000000000000000010001000166
:100790000001000100010000000000C35CC95CC54D
:1007A0005CC75CCB5CC25C01000100C45CCA5CC677
:1007B0005CC85CCC5C01000100010001000100018B
:1007C000000000000000000000000001005F006069
:1007D000006100570054000000000001005C005D53
:1007E000005E005600550001000100010059005A4A
:1007F000005B006700580001000100010062006317
:1008000000000000000000000101010101010101E0
:1008100001020202020202020202030303030303B3
:100820000303040404040404040505050505060681
:10083000060606070707070708080808090909093F
:100840000A0A0A0B0B0B0C0C0C0D0D0D0E0E0E0FE5
:100850000F0F101011111112121313141415151675
:10086000161717181819191A1A1B1B1C1D1D1E1EE6
:100870001F20202122222324242526262728292937
:100880002A2B2C2D2D2E2F30313232333435363762
:1008900038393A3B3C3D3E3F404142434445464760
:1008A00048494A4C4D4E4F50515354555658595A39
:1008B0005B5D5E5F616264656668696B6C6D6F70DD
:1008C00072737577787A7B7D7E8082838587888A4C
:1008D0008C8E8F91939596989A9C9EA0A2A3A5A783
:1008E000A9ABADAFB1B3B5B7BABCBEC0C2C4C6C97F
:1008F000CBCDCFD1D4D6D8DBDDDFE2E4E7E9EBEE38
:10090000F0F3F5F8FAFDFFFFAA7F55400501090253
:10091000A10185020901A100050919012905150098
:100920002501950575018102950175038101050178
:10093000093009311581257F95027508810609382E
:100940001581257F950175088106050C0A38021569
:1009500081257F950175088106C0C005010980A128
:1009600001850319012AB700150126B70095017505
:10097000108100C0050C0901A101850419012AA0FC
:1009800002150126A002950175108100C00501091C
:1009900006A101050719E029E7150025019508754D
:1009A0000181029501750881010507190029FF15CC
:1009B0000026FF0095067508810005081901290524
:1009C000950575019102950175039101C009023BDE
:1009D00000020100A0FA090400000103010100095E
:1009E00021110100012240000705810308000A09C6
:1009F000040100010300000009211101000122810E
:100A0000000705820320000A1201100100000008FF
:100A1000EDFE0000010001020301040330000000AC
:100A20001E034B00790072006900610020004B003A
:100A30006500790062006F006100720064000000D0
:100A40001003730070006C00690074006B0062009A
:100A50000000040309040000000000003E5B4F5B3F
:100A60003E003E6B4F6B3E001C3E7C3E1C00183C23
:100A70007E3C18001C577D571C001C5E7F5E1C00CE
:100A800000183C180000FFE7C3E7FF000018241817
:100A90000000FFE7DBE7FF0030483A060E0026299A
:100AA00079292600407F05050700407F05253F0086
:100AB0005A3CE73C5A007F3E1C1C0800081C1C3EA8
:100AC0007F0014227F2214005F5F005F5F00060931
:100AD0007F017F00006689956A0060606060600049
:100AE00094A2FFA2940008047E04080010207E2037
:100AF000100008082A1C0800081C2A0808001E10FC
:100B0000101010000C1E0C1E0C0030383E38300047
:100B1000060E3E0E060000000000000000005F0010
:100B20000000000700070000147F147F1400242A2F
:100B30007F2A1200231308646200364956205000B1
:100B4000000807030000001C224100000041221C95
:100B500000002A1C7F1C2A0008083E0808000080AC
:100B600070300000080808080800000060600000FD
:100B70002010080402003E5149453E0000427F40DB
:100B800000007249494946002141494D330018147B
:100B9000127F10002745454539003C4A494931003C
:100BA000412111090700364949493600464949297A
:100BB0001E00000014000000004034000000000887
:100BC00014224100141414141400004122140800CB
:100BD0000201590906003E415D594E007C12111276
:100BE0007C007F49494936003E41414122007F4116
:100BF00041413E007F49494941007F0909090100FF
:100C00003E41415173007F0808087F0000417F4149
:100C100000002040413F01007F08142241007F4036
:100C2000404040007F021C027F007F0408107F00CC
:100C30003E4141413E007F09090906003E415121E4
:100C40005E007F09192946002649494932000301FF
:100C50007F0103003F4040403F001F2040201F0015
:100C60003F4038403F0063140814630003047804D5
:100C700003006159494D4300007F41414100020496
:100C800008102000004141417F00040201020400DD
:100C900040404040400000030708000020545478C2
:100CA00040007F28444438003844444428003844F5
:100CB00044287F0038545454180000087E0902006C
:100CC00018A4A49C78007F080404780000447D40A8
:100CD00000002040403D00007F10284400000041FB
:100CE0007F4000007C04780478007C0804047800CD
:100CF000384444443800FC182424180018242418CC
:100D0000FC007C08040408004854545424000404E3
:100D10003F4424003C4040207C001C2040201C001C
:100D20003C4030403C004428102844004C909090B7
:100D30007C004464544C440000083641000000002C
:100D400077000000004136080000020102040200A2
:100D50003C2623263C00000000000000404040F0FC
:100D6000F8F8FF38FFF8F83FF8F8FF38FFF8F8F028
:100D700040404000000000000080C0C0C080000073
:100D8000C0C08000000080C0C000C0C0000080C0A3
:100D9000C00000000000C0C0C0C0C000C0C0000053
:100DA0000000000000000000000000000000000043
:100DB0000000000000000000000000000000000033
:100DC0000000000000000000000000000000000023
:100DD0000000000000C0F0F8FC3E1E06010000000C
:100DE0007F4141417F007F4141417F000080C0E061
:100DF0007E5B4F5BFEC00000C000DCD7DEDEDED7CE
:100E0000DC00C00000000000000000000000000046
:100E1000000000000000000000000000494949FFF8
:100E2000FFFFFFE0DFBFBF00BFBFDFE0FFFFFFFF4F
:100E300049494900000000001F3F6060E0BF1F00FB
:100E40007F7F071E381E077F7F007F7F0E1F3B714D
:100E50006000000000007F7F0C0C0C007E7E007F95
:100E60007E0303007F7E03037E7E03037F7E000FED
:100E70003E703C063C703E0F00327B49493F7E008D
:100E80007F7E0303001E3F69696F2600000000009B
:100E90000000000000030F1F3F3C7870600000005E
:100EA0007F4141417F007F4141417F00307B7F781E
:100EB00030202030787F3B0003000F7F0F0F0F7F23
:100EC0000F00030000000000000000000000000010
:100ED0000000000000000000000000000101010708
:100EE0000F0F7F0F7F0F0F7E0F0F7F0F7F0F0F07EB
:100EF00001010100000000000000000000010100ED
:100F000000000000000000000000000000000000E1
:100F100000000000000000000000000000000000D1
:100F200000000000000000000000000000000000C1
:100F300000000000000000000000000000000000B1
:100F400000000000000000000000000000000000A1
:100F50000000000000000000000000000000000091
:100F60000000000000000000000000000000000081
:100F70000000000000000000000000000000000071
:100F80000000000000000000000000000000000061
:100F90000000000000002223252628292A2C2D2FBE
:100FA0003032333536383A3B3D3E4042434547497F
:100FB0004A4C4E5051535557595A5C5E60626466B4
:100FC00068696B6D6F71737577797B7D7F818385C0
:100FD00087898A8C8E90929496989A9C9E9FA1A3C2
:100FE000A5A7A8AAACAEAFB1B3B4B6B8B9BBBCBEE6
:100FF000BFC1C2C3C5C6C7C9CACBCCCDCED0D1D262
:10100000D2D3D4D5D6D7D7D8D9D9DADADBDBDBDC63
:10101000DCDCDCDCDDDDDDDDDCDCDCDCDCDBDBDB0F
:10102000DADAD9D9D8D7D7D6D5D4D3D2D2D1D0CE6F
:10103000CDCCCBCAC9C7C6C5C3C2C1BFBEBCBBB974
:10104000B8B6B4B3B1AFAEACAAA8A7A5A3A19F9EF2
:101050009C9A98969492908E8C8A89878583817FBA
:101060007D7B79777573716F6D6B6968666462609B
:101070005E5C5A5957555351504E4C4A4947454367
:1010800042403E3D3B3A3836353332302F2D2C2A04
:1010900029282625232200AF11241FBECFEFDAE036
:1010A000DEBFCDBF04B603FE27C08091B407909188
:1010B000B507A091B607B091B7078730904BA7400E
:1010C000B04BD1F41092B4071092B5071092B60746
:1010D0001092B70714BE84B7877F84BF0FB6F89409
:1010E000A8958091600088618093600010926000F4
:1010F0000FBEE0E0F8E3099527E0A8ECB1E001C0FD
:101100001D92A43BB207E1F711E0A0E0B1E0E6E0F8
:10111000F4E602C005900D92A83CB107D9F70E94F1
:1011200095080C9401320C940000CF93DF93CDB757
:10113000DEB762970FB6F894DEBF0FBECDBF84B79F
:10114000877F84BF0FB6F894A8958091600088616E
:1011500080936000109260000FBE90E080E80FB6B0
:10116000F89480936100909361000FBE85B780680A
:1011700085BF85B7806885BF0E941C1F0E943B1FEA
:101180008091E20084608093E200789480917D02F7
:101190008823A1F01091E9001F709091EC00892F35
:1011A000817090FD80E8182B1092E9008091E80092
:1011B00083FD0E94031C1F701093E90082E084BD30
:1011C00093E095BD9AEF97BD80936E000E945417EF
:1011D00091E089278093190180911901882321F0DA
:1011E000109204018AE003C08AE080930401809396
:1011F00005010E945417882331F062E070E089E015
:1012000091E00E942A2F809119018091190181118A
:1012100002C094E001C090E09093E00184E0891B5B
:101220008093DF01ABE3B1E04FE351E061E070E0B8
:101230008D91E82FE295EF70F0E021A18F708B0186
:1012400002C0000F111F8A95E2F7C801902F9095F8
:10125000922391A392A1892B82A34A175B0741F79E
:10126000A3E4B1E04BE451E061E070E08D91E82F40
:10127000E295EF70F0E021A18F708B0102C0000FAA
:10128000111F8A95E2F7C801902F9095922391A3A0
:1012900092A1892B82A34A175B0741F7E7EDF1E0A2
:1012A0008FED91E0A8EEB1E011921D928E179F078D
:1012B000D9F780E090E00E9402318C3E9E4F11F001
:1012C0000E9412230E945417811106C062E070E050
:1012D00089E091E00E94332F82E080934A0280E807
:1012E000809387020E94E52D6DE070E08FE291E02F
:1012F0000E94AE1B892B09F043C080914A0263E033
:1013000070E081FD3AC08CE291E00E94AE1B892B17
:10131000B9F56DE070E08CE191E00E94AE1B892B85
:1013200079F50E948322DC01CB01805A9541AF4FB1
:10133000BF4F80934C0290934D02A0934E02B09306
:101340004F02EAE8F2E080E094E0DF018C011D92B8
:1013500001501040E1F7F0939106E09390068FEF73
:101360009FEF909389028093880281E080935102DD
:101370008093500210924B0203C089E291E0C5CFE6
:1013800080E090E00E9402318C3E9E4F11F00E945E
:10139000122382E090E00E94F430809360020E9469
:1013A00001239093E2018093E10183E090E00E94A9
:1013B000F430682F70E080E090E00E94B5248091C6
:1013C000E30181113BC080E090E00E9402318C3E3D
:1013D0009E4F21F00E9412230E94AB1588E090E0FE
:1013E0000E94FC306093F9017093FA018093FB0135
:1013F0009093FC01809100028360809300026E7FD5
:1014000071F40E94AB1588E090E00E94FC3060937C
:10141000F9017093FA018093FB019093FC010E9403
:1014200064150E945B2C8091F90180FF04C060E08C
:1014300086950E941B1981E08093E3018091190138
:10144000811106C085E380931B0186E680931A0113
:1014500020911B01E22FE295EF70F0E031A12F7097
:1014600081E090E0AC01022E01C0440F0A94EAF73B
:10147000542F5095352331A332A1432B42A34091E1
:101480001A01A42FA295AF70B0E091963C9191976C
:101490004F70042E01C0880F0A94EAF7982F909598
:1014A000932391969C93919792969C919297892BD6
:1014B00092968C93929780A190E002C09595879523
:1014C0002A95E2F7817090962C9130E002C0359514
:1014D00027954A95E2F720FD02C090E001C092E016
:1014E000892B809305029091190181E098279093B0
:1014F0000402891B8093E40183E291E09093E6016A
:101500008093E5013AE8432E32E0532ECC24C39475
:10151000D12C80917D02853009F03AC080917D0206
:10152000843021F11092E70120E488E190E00FB6C9
:10153000F894A895809360000FBE2093600083B755
:10154000817F846083BF83B7816083BF78948895EF
:1015500083B78E7F83BF0FB6F894A8958091600003
:10156000886180936000109260000FBE80917C02C1
:10157000882309F4CECF0E946E1980EF91E0E8EE47
:10158000F1E02191211139C48E179F07D1F7C1CF06
:101590000E946E19982E0E9454178823A1F1E1E64B
:1015A000F2E0A8EEB1E000E010E0302F2D91919133
:1015B000922721F180E0FF24F3944F2D4923D1F0AD
:1015C0008F8338872F2181E009F480E089870E948A
:1015D0008F228160782F9B878A874F815885698504
:1015E0008B850E944D2BF801EF59FD4F8081F82625
:1015F000F08219C08F5FFF0C8830F9F60F5F1F4F24
:101600000830110591F68FEF8C878D871E860E941A
:101610008F228160782F988B8F874C855D856E85B2
:1016200088890E944D2B8091FF01882309F4C7C04F
:101630008091FE01E091F901E695E81BE093F50148
:10164000823049F4F0E0E35BFE4FE491AE2EB12C22
:1016500009E31BE25FC0863049F4F0E0E65BFE4F31
:10166000E491AE2EB12C09E21BE254C0893051F452
:10167000E695F0E0E95BFE4FE491AE2EB12C0EEA68
:101680001AE248C08F3051F4E695F0E0EC5BFE4F73
:10169000E491AE2EB12C01E11AE23CC0853149F44F
:1016A000F0E0EF5BFE4FE491AE2EB12C0BE819E2B7
:1016B00031C08831D9F0833239F4EFE3F1E0A590FD
:1016C000B49009EE1AE226C08432B9F08532E1F412
:1016D0008E2F63E00E949F31E92FF0E0E45CFE4F23
:1016E000E491AE2EB12C04E518E214C028EEA22E2F
:1016F00023E0B22E02E519E20DC094EFA92EBB241F
:10170000B39403E119E206C080EDA82E87E0B82E5D
:1017100003E518E28091F601882389F01092F60122
:101720000E948F22950120953095820F931F9093F0
:10173000F4018093F3011092F8011092F701809167
:10174000F3019091F4010E9474228A159B05B8F16F
:101750008091F2018823B1F01092F2018091F001A2
:101760009091F1010E9474228033954758F00E94B5
:101770008F229093F1018093F001809100028860A4
:1017800080930002E090F701F090F801E091F301FE
:10179000F091F401AE0EBF1EB092F401A092F301DD
:1017A00083EF91E0F80109958091F7019091F8019C
:1017B000892B29F4EF2819F081E08093F201A091A0
:1017C00005025A2F550F550F20911B01E22FE2956C
:1017D000EF70F0E080A190E02F7002C095958795A2
:1017E0002A95E2F78170992740911A01E42FE2953A
:1017F000EF70F0E020A130E04F7002C035952795E2
:101800004A95E2F7D901A170BB2720FF02C0A2E0F0
:10181000B0E0A82BB92BA52BA0930502E091040200
:10182000AF70B0E0A55BBE4F9C9180910302890F21
:10183000843044F00E2E000CFF0BEF5FFD4F9081C3
:101840009F5F09C08D3F44F40E2E000CFF0BEF5F2D
:10185000FD4F908191509083837887FF03C0815022
:101860008C6F8F5F8093030280915102882309F46B
:10187000BEC150929106409290060E945417882350
:1018800009F48DC081E591E00E94A01B86EF91E0F4
:101890000E94A01B8EEE91E00E94A01B40910602C8
:1018A000509107026091080270910902CB01AA27AA
:1018B000BB270097A105B10521F0AC01BD0180E176
:1018C00001C080E0052F162F272F332701151105A2
:1018D0002105310519F0885FB901A8018A019B0132
:1018E000B4E03695279517950795BA95D1F7011568
:1018F00011052105310519F08C5FB901A8018A0194
:101900009B01A2E03695279517950795AA95D1F7E3
:10191000011511052105310519F08E5FB901A801E6
:101920007695679557954795452B462B472B09F09C
:101930008F5F813059F038F0823059F0833061F494
:101940008CEC91E00BC085EE91E008C08CED91E04D
:1019500005C084ED91E002C081EC91E00E94A01BE3
:101960000E94152C182F80FD03C081EB91E002C06E
:1019700089EB91E00E94A01B11FD03C081EA91E078
:1019800002C089EA91E00E94A01B12FD03C081E918
:1019900091E002C089E991E00E94A01B28C020913B
:1019A000880230918902AAE8B2E080E090E0FC0170
:1019B000EB5FFD4FE4914C91E41779F0EC93AC01AF
:1019C000E6E056954795EA95E1F7860102C0000FDB
:1019D000111F4A95E2F7202B312B019611968115A4
:1019E00014E0910721F73093890220938802209117
:1019F0008802309189022115310509F4D8C08091FF
:101A00004B028111D4C0A82EB12C7601082E02C041
:101A1000EE0CFF1C0A94E2F7A70142235323452B47
:101A200011F48F5FF0CF90914A02950176E0220F7A
:101A3000331F7A95E1F790FD13C08295880F880FC8
:101A4000807480931E01220F232F221F330B3195A8
:101A500020932101815C80931F011092220112C00A
:101A600056E0369527955A95E1F7220F220F220F5F
:101A700020931E0110922101295F20931F0187E00E
:101A80008093220124E630E047E050E06CE171E011
:101A900088E70E94722E892B09F089C080914A0242
:101AA00080FD23C0C50146E0880F991F4A95E1F7E4
:101AB000AC0146575D4F04E610E020E430E060E4FE
:101AC00088E70E94992E892B09F071C00E94212C71
:101AD000E094F0948091880290918902E822F922A2
:101AE000F0928902E092880262C080E4AAE0B2E04B
:101AF0001D928A95E9F736E0AA0CBB1C3A95E1F7EE
:101B0000E3E6F1E0FA8BE98B6BE571E0A989BA892C
:101B10008D91BA8BA98BFB019191BF01A501490F52
:101B2000511D46575D4F90E0865F9D4FFC0127E0B9
:101B3000822E9F01281B390B3C2C01C0330C2A95A7
:101B4000EAF78A01612CD8017D908D017320282D40
:101B500026192770222E022E000C330BB72D01C040
:101B6000BB0F2A94EAF72B2E319521953109277066
:101B7000332701C076942A95EAF727287080272812
:101B80002082639428E06212DECF8A9431963FEF80
:101B90008312CFCF89899A898B56914009F0B6CFAD
:101BA00004E610E020E430E04AE052E088CF809183
:101BB00050028823E1F00E94832200914C02109190
:101BC0004D0220914E0230914F02DC01CB01801B6F
:101BD000910BA20BB30BB7FD0AC062E070E085E089
:101BE00096E00E94AE1B892B11F4109250029110C6
:101BF0000E94212C86E0E9E5F2E0DE0111960190D9
:101C00000D928A95E1F780915B02811105C0809168
:101C10005C02882309F46EC08091570290915802AB
:101C20000E9474229C0190915602992309F4FBC0F2
:101C30002333310508F45EC09F3F19F09F5F9093F6
:101C4000560210925D0210925E0280915B0218169D
:101C500024F40E94C62180935B0280915B0287FF7F
:101C600005C00E94C621819580935B0280915C0231
:101C7000181624F40E94C62180935C0280915C02B5
:101C800087FF05C00E94C621819580935C02309138
:101C90005B023323E1F020915C022223C1F005EBCB
:101CA0003003C0011124992319F090935B0203C003
:101CB00081E080935B0215EB2103C001112499237D
:101CC00019F090935C0203C081E080935C020E9453
:101CD0009B228091540290915502909358028093D8
:101CE000570286E0FE013196A9E5B2E001900D921F
:101CF0008A95E1F780915D02811105C080915E02B5
:101D0000882309F46EC080915202909153020E9480
:101D100074229C0190915602992309F489C02536BA
:101D2000310508F45EC09F3F19F09F5F9093560203
:101D300010925B0210925C0280915D02181624F4EE
:101D40000E94A42180935D0280915D0287FF05C0FF
:101D50000E94A421819580935D0280915E021816F5
:101D600024F40E94A42180935E0280915E0287FF8A
:101D700005C00E94A421819580935E0230915D028E
:101D80003323E1F020915E022223C1F045EB3403BE
:101D9000C0011124992319F090935D0203C081E0E2
:101DA00080935D0265EB2603C0011124992319F08D
:101DB00090935E0203C081E080935E020E949B22AA
:101DC0008091540290915502909353028093520255
:101DD00086E0FE013196A9E5B2E001900D928A9568
:101DE000E1F70E94152C90915F02891709F491CBBD
:101DF0000E94152C80935F028CCB80E189BD82E12B
:101E000089BD09B400FEFDCF8091D8008F7D8093FD
:101E1000D8008091E00082608093E0008091E00033
:101E200081FDFCCF76CB2D32314008F007CF62CF59
:101E30002D32314008F079CFD4CF8F929F92AF925C
:101E4000BF92CF92DF92EF92FF920F931F93CF93A7
:101E5000DF93CDB7DEB72A970FB6F894DEBF0FBE7B
:101E6000CDBFFC01D080118183819481892B39F011
:101E70001F3F39F491E00FEFD01203C003C091E08F
:101E800001C090E090FD63C57F0185E0DE011696FC
:101E900001900D928A95E1F7F70122818E819F8151
:101EA000222349F00E94A823082F682F8E819F814A
:101EB0000E94212403C00E94F523082FE12FF0E0A7
:101EC00018E0019FE00DF11D112443E0EE0FFF1F0C
:101ED0004A95E1F7ED0DF11DEE0FFF1FE95FF94F98
:101EE00005911491033F2CE5120729F180F4083D78
:101EF0008CE51807C9F0093D9CE5190741F1073D3C
:101F0000ECE51E0739F526E241EE61EE10C0053F13
:101F1000FCE51F07C1F098F0063F3CE51307D1F43C
:101F200027E245EE66EE03C027E245EE65EEC70107
:101F30000E94622CC2C126E241EE60EEF8CF27E299
:101F400045EE64EEF4CF26E241EE62EEF0CF28E2F9
:101F500041E0ECCFF7019281992309F43FC110923F
:101F600069020230FCE51F0708F422C106312CE5A6
:101F7000120738F098012A5F3C452930310508F0F6
:101F800017C10E9401239093E2018093E101003187
:101F90003CE5130709F4C3C008F041C008309CE5D4
:101FA000190709F49AC0F0F40430FCE51F0709F49E
:101FB00087C068F402303CE5130709F477C00330AA
:101FC0001C4509F0E5C08091E101826076C00630D1
:101FD0009CE5190709F46EC008F07BC08091E1010F
:101FE00088606BC00C30FCE51F0709F485C068F4FD
:101FF0000A303CE5130709F474C008F079C00E9468
:1020000028278091E101806858C00E309CE51907AF
:1020100009F476C008F07FC08091E1018BC00B3FCE
:10202000FCE51F0709F44FC018F503313CE5130721
:1020300009F47DC078F401319CE5190709F473C0F7
:1020400002311C4509F0A4C00E9428278091E101BB
:102050008F7733C00531FCE51F0709F472C008F41F
:1020600086C00A3F1C4509F093C08091E2013EC042
:102070000F3F8CE5180709F45FC058F40D3FECE5FD
:102080001E0709F444C008F43FC08091E201826059
:102090002DC001302DE5120709F475C008F45DC0AC
:1020A00002301D4509F074C060E06EC08091E1010E
:1020B000816003C08091E10180618093E10168C08B
:1020C0008091E10111C08091E20182608093E20180
:1020D0005FC08091E1018062F0CF8091E101806476
:1020E000ECCF8091E10188608460E7CF8160EECF22
:1020F0008091E1018E7FE1CF8091E1018D7FDDCF85
:102100008091E101877FD9CF8091E20118C0809151
:10211000E2018D7FDBCF8091E1018F7ECECF809178
:10212000E1018F7DCACF8091E1018F7BC6CF809185
:10213000E101877F8B7FC1CF8091E2018D7F8E7F10
:10214000C5CF8091E10182FB222720F991E09227FF
:1021500090FB82F990FB83F9B0CF8091E201982F38
:10216000909591708E7F892B90FB81F9AFCF0E9463
:1021700028278091E10187FB222720F991E092270F
:1021800090FB87F99ACF61E08EE090E00E940831E1
:102190006091E1011091E20184E090E00E94083139
:1021A000612F81E290E00E9408310E94282785C0BB
:1021B00006312CE5120721F58091FD068A7A91E01F
:1021C00009F490E090936A02882311F065E301C05E
:1021D00069E282E996E00E94E7220FC00631FCE541
:1021E0001F0709F089C080916A02882309F450C34F
:1021F00065E382E996E00E94DA220E947B235DC0BB
:1022000001152CE5120739F00E3D1C4509F07EC082
:102210000E94122352C00E9428278FEF94E3ECE023
:1022200081509040E040E1F700C0000081E08093E1
:10223000E00080E28093D8001092C9008FE19EE414
:102240000197F1F700C0000087E090EBDC0180937C
:10225000B4079093B507A093B607B093B7079CE077
:1022600088E10FB6F894A895809360000FBE909314
:102270006000FFCF8091F90180FF10C38E7F8093B3
:10228000F9016091F9017091FA018091FB0190913F
:10229000FC010E9477150E945B2C809100028160F6
:1022A000809300029FEFE0E7F2E09150E040F040C1
:1022B000E1F700C000000E94FD148091FA068770CB
:1022C00009F445C3F7018281882309F440C382E001
:1022D0002A960FB6F894DEBF0FBECDBFDF91CF9127
:1022E0001F910F91FF90EF90DF90CF90BF90AF9034
:1022F0009F908F900C947B248091FD068272F80150
:10230000E25CFC45E431F10508F4C4C2F701008148
:102310001181992349F0C8010E94A823D82E682F63
:10232000C8010E94212404C0C8010E94F523D82EB0
:10233000B8018D2D0E9471178C01982EF701A58090
:10234000A2943FE0A322D280D1101092FC0680918B
:10235000FA06877099F0DD2089F0812F807F803424
:1023600021F080E2800F883048F082E00E947B24D8
:102370008091FA068770CC24C3948111C12CB12EB0
:10238000B2942FE0B2228B2D90E08C30910508F0B2
:1023900040C2FC01EA5AFF4F0C94E131812F807F4B
:1023A0001F70882311F01295107FDD20B9F01123E2
:1023B00009F41AC280E2800F883010F0911006C034
:1023C0008091FD06182B1093FD0605C08091FC0638
:1023D000182B1093FC060E947B2306C2802F0E94BC
:1023E0004827112309F415C2005E1095083010F03B
:1023F000911006C08091FD0618231093FD0605C0BC
:102400008091FC0618231093FC060E947B2301C2D6
:10241000812F807F1F70803211F01295107F9920DC
:1024200021F0F1E09F16E1F02AC0DD2081F08091DB
:10243000FE06AA2051F001E0A01207C0182B1817C1
:1024400009F4E7C11093FE06E4C1812B10C0AA2055
:1024500021F021E0A21609F4DCC10E94752327C0F7
:10246000DD2041F035E03A1508F4D3C1812F0E94F8
:102470003E27CFC184E08A1508F4CBC118C0DD2007
:1024800049F0AA2099F3F701858180FFADC18F70D3
:102490008583ECCFAA2059F0093309F0B7C1FFEFCB
:1024A00017EE23E0F15010402040E1F7ADC1812F3D
:1024B0000E943327AEC1812F86958695837019F0CF
:1024C000813059F0A6C1DD2019F0C801937002C017
:1024D00080E090E00E94FF2BA2C1DD2019F0C8012E
:1024E000937002C080E090E00E94E92B98C1802F99
:1024F000DD2019F00E94E62102C00E941F210E94E7
:102500009B228DC1812F837009F069C0D11085C1D4
:10251000902F929596959770990F990F802F8F70A5
:10252000882E912CA12CB12C092E04C0880C991C4A
:10253000AA1CBB1C0A94D2F704FF12C04FE050E063
:1025400060E070E004C0440F551F661F771F9A9526
:10255000D2F7DB01CA0180959095A095B09503C094
:1025600080E090E0DC0116951695412F43704230D3
:1025700019F1C8F40091FF0610910007209101079E
:1025800030910207413059F088299929AA29BB299D
:10259000BC01CD0160237123822393230AC0802ACA
:1025A000912AA22AB32ABC01CD01682979298A2956
:1025B0009B290E94B52431C188299929AA29BB29C0
:1025C0000091FF061091000720910107309102074A
:1025D000BC01CD016027712782279327EACFDD2038
:1025E00019F0812F817001C08695882309F415C1E7
:1025F000902F929596959770990F990F802F8F70C5
:10260000882E912CA12CB12C092E04C0880C991C69
:10261000AA1CBB1C0A94D2F704FF12C04FE050E082
:1026200060E070E004C0440F551F661F771F9A9545
:10263000D2F7DB01CA0180959095A095B09503C0B3
:1026400080E090E0DC0116951695412F43704230F2
:10265000D9F068F500910602109107022091080256
:1026600030910902413059F088299929AA29BB29BA
:10267000BC01CD0160237123822393231EC0802AD5
:10268000912AA22AB32A13C088299929AA29BB29E9
:102690000091060210910702209108023091090270
:1026A000BC01CD01602771278227932706C0BC019A
:1026B000CD01682979298A299B290E944C24ADC023
:1026C0001F70DD2039F0812F0E949424802F0E94FA
:1026D0003E27A3C0802F0E943327812F0E945624BB
:1026E0009CC0802F32EF931609F440C0391538F0A2
:1026F00090EF991661F0E1EF9E1699F170C0F3EF3B
:102700009F16D9F124EF921609F44EC068C0DD205F
:1027100019F134E03A1508F47CC01F7181E090E0B3
:10272000A0E0B0E0AC01BD0104C0440F551F661F1E
:10273000771F1A95D2F78091060290910702A09117
:102740000802B09109028A019B01082719272A274C
:102750003B27C901B80125C025E02A1508F459C056
:10276000DCCFDD2029F0812F8F712CC0DD20D9F343
:10277000812F8F710E9456244CC0DD2079F01F718B
:1027800081E090E0A0E0B0E0BC01CD0104C0660FA4
:10279000771F881F991F1A95D2F703C060E070E079
:1027A000CB010E944C2435C0DD2079F01F71812FB0
:1027B0000E94942438E0139FC00111248360809309
:1027C000FA06812F0E94942424C081E00E947B2479
:1027D00081E08A15F0F482E00E947B241AC0DD209B
:1027E00039F0AA2009F4BFCF802F0E94AF2711C073
:1027F000AA2009F4BDCF893349F49FEFE7EEF3E057
:102800009150E040F040E1F700C00000802F0E94AE
:10281000482788EF8B0D843010F40E94152CCC20B3
:10282000A9F08091FA0680FD11C0F701128285950A
:10283000859585950E949424C7010E941D0F809163
:10284000FA068595859585950E94562485E0F701C1
:10285000DE01119601900D928A95E1F789819A81A6
:102860000E94F523EA81F0E008E0809FE00DF11D71
:10287000112483E0EE0FFF1F8A95E1F78981E80FAD
:10288000F11DEE0FFF1FE95FF94F859194915FC035
:1028900069E2AFCCEE59FF4F0C94E1318160809337
:1028A000F90161E0869550C04BE559E164E679E1B4
:1028B0002CC044E659E16BE579E127C042E457E1D9
:1028C0006BE477E122C04BE457E162E477E11DC09D
:1028D0004AE257E166E377E118C046E357E16AE26E
:1028E00077E113C042E157E16EE177E10EC04EE1BE
:1028F00057E162E177E109C049E855E16AE975E12C
:1029000004C04AE955E169E875E10E94552CD5CC2F
:1029100061E081E019C065E082E011C068E086E016
:102920000EC06EE089E00BC064E18FE008C067E193
:1029300085E105C061E088E107C062E289E10E94AB
:10294000432CBBCC61E083E20E941B19B6CC2A96D3
:102950000FB6F894DEBF0FBECDBFDF91CF911F91B0
:102960000F91FF90EF90DF90CF90BF90AF909F902E
:102970008F9008959091E10192FF0DC0282F28714A
:10298000283019F4877F846006C0282F24712430F2
:1029900011F48B7F886093FF0DC0282F2871283198
:1029A00019F4877E846106C0282F2471243111F424
:1029B0008B7E88612091E20120FF0DC0382F387195
:1029C000383019F4877F816006C0382F317131307B
:1029D00011F48E7F886021FF0DC0282F28712831C7
:1029E00019F4877E816106C0282F2171213111F4ED
:1029F0008E7E886194FD877E0895309105018091D7
:102A0000F90180FF16C0E091040163E0E69FF00148
:102A10001124E55FF84F539A8BB1877F9BB1986083
:102A20002FB7F894AF0163E0369F400D511D11247C
:102A300014C08091060190910701891720F7E82FB3
:102A4000F0E0AF01440F551FE40FF51FE55FF84FAD
:102A50001182108212828F5FF0CFE417F50789F0A0
:102A6000319168E09BB9000000C037FF8BB9330F8C
:102A7000000000C000C000C08BB900C06A9591F78B
:102A8000ECCF2FBF8FE594E00197F1F700C0000075
:102A900008959091F90190FF16C090910601209140
:102AA0000701921770F4E92FF0E0DF01AA0FBB1FB6
:102AB000EA0FFB1FE55FF84F8183608342839F5FCE
:102AC000F0CF0C94FD1408958091F901282F2695DC
:102AD00030E02115310519F48170826005C02B3278
:102AE000310524F0817084658093F9010895CF92B7
:102AF000DF92EF92FF926B017C010E946415B70197
:102B0000A60188E090E0FF90EF90DF90CF900C94CA
:102B10001A318091FD01882319F081508093FD01C5
:102B20006091F9017091FA018091FB019091FC0193
:102B30000C9477158091FD01833018F48F5F80939A
:102B4000FD016091F9017091FA018091FB01909172
:102B5000FC010C947715E9EFF1E083E080831182AA
:102B60008FEF828383831482AEEFB1E012968C9153
:102B70001297836012968C93608171818281938118
:102B80000C947715BF92CF92DF92EF92FF920F9342
:102B90001F93CF93DF93E82EF62EE901E42FF0E0A8
:102BA000611106C0E95FF74F8491B82EE82F71C01C
:102BB000262F30E0E95FF74FE491FE2FCE2ED12C87
:102BC00046E0849FC00111240FEF10E0B8010E947D
:102BD000B9314BEA4603C001479F900D11248E0D79
:102BE000911D8E0D911D982F990F890FD801A21B51
:102BF000B30BAC9DA001AD9D500DBC9D500D11249B
:102C0000B52EF89ED0011124AB2FBB277801EA1A0C
:102C1000FB0AEC9CD001ED9CB00DFC9CB00D112486
:102C20007801E81AF108E29EC001E39E900DF29E41
:102C3000900D1124892F9927081B190B0C9D9001C9
:102C40000D9D300D1C9D300D1124832F62307105B8
:102C500091F048F461157105E1F061307105B9F446
:102C60008E2FEB2F16C06430710569F040F066308E
:102C7000710579F00CC08E2FE52FB32E0AC0E52F19
:102C8000BF2E8B2F06C0852FBE2EE32F02C0852FAF
:102C9000BB2EE9838883BA82DF91CF911F910F9178
:102CA000FF90EF90DF90CF90BF900895CF93DF9388
:102CB00000D01F92CDB7DEB79091F90190FF0AC006
:102CC0009E012F5F3F4F0E94C2154B8169818A810F
:102CD0000E9449150F900F900F90DF91CF910895AA
:102CE000AF92BF92CF92DF92EF92FF920F931F931A
:102CF000CF93DF9300D01F92CDB7DEB7182FF62EFB
:102D0000042FE22E9091F90190FF7EC0E92FE69505
:102D1000AE2FB0E0A559BE4F8C918093FE019E7FEF
:102D2000923061F49E012F5F3F4F812F0E94C215A8
:102D30004B8169818A810E94491543C0823019F410
:102D40000091FC013EC0863019F41091FA0139C09F
:102D50008930D9F38931A9F5E9518E2F8170D82EA8
:102D6000E695F0E0E95FF64FA590B490C12CBB2446
:102D700060910801C61618F52C2D30E0A29EC00106
:102D8000A39E900DB29E900D112470E00E94B93167
:102D9000812FD11002C0860F01C0861B90910601C1
:102DA000290F311DA901440F551F240F351F255F21
:102DB000384F402F6F2D0E94C215C394D9CF0E9467
:102DC000FD148091FA01181308C08091FB01F812DC
:102DD00004C08091FC01081729F0809100028260F4
:102DE000809300021093FA01F092FB010093FC0122
:102DF000EE2051F06091F9017091FA018091FB0190
:102E00009091FC010E9477150F900F900F90DF9129
:102E1000CF911F910F91FF90EF90DF90CF90BF90D7
:102E2000AF900895E9EFF1E0438128E0421B08F4F8
:102E300040E021E0628181810C947016E9EFF1E0BD
:102E4000438128E0420F08F44FEF21E06281818145
:102E50000C947016E9EFF1E0628128E0621B08F43F
:102E600060E021E0438181810C947016E9EFF1E08C
:102E7000628128E0620F08F46FEF21E043818181D5
:102E80000C947016E9EFF1E0818121E043816281C9
:102E900088500C947016E9EFF1E0818121E04381C4
:102EA0006281885F0C94701680916F02811112C04C
:102EB0008091D80080618093D8008AE18A95F1F7EB
:102EC00000C08091D90080FD02C082E001C081E095
:102ED00080936F0281E090916F02913009F080E061
:102EE0000895CF93DF93E72FF0E028E0829FE00D75
:102EF000F11D1124B3E0EE0FFF1FBA95E1F7E60FC5
:102F0000F11DEE0FFF1FE95FF94FC591D491CE017E
:102F1000C238D10569F1B0F4C133D10509F475C0E7
:102F200048F4C932D10509F469C0CA32D10509F49F
:102F300073C085C0C533D10509F459C0C933D10563
:102F4000B9F07DC0C33ED10571F138F4C03ED10562
:102F5000B1F0C23ED10511F172C0C63ED105B9F142
:102F6000C73ED105C9F1C43ED10509F068C024C0EF
:102F70002091E10120FD5DC021FD5BC060C020917A
:102F8000E10120FD50C02091E20120FF51C180915C
:102F9000E10184FD4BC183EE90E04AC12091E10143
:102FA00022FF46C1F4CF8091E10182FD3FC08091B4
:102FB000E20180FD3EC0EBCF2091E20121FF38C14C
:102FC0008091E10184FD32C187EE90E031C1209112
:102FD000E10123FF2DC1F4CF8091E10183FD2CC0DD
:102FE0008091E20181FFECCF84EE90E021C120913D
:102FF000E10125FF1DC189E290E01AC12091E101A4
:1030000025FF16C185E390E013C12091E10126FF61
:103010000FC18AE290E00CC12091E10126FF08C1B6
:1030200081E390E005C189E390E002C182EE90E087
:10303000FFC080EE90E0FCC086EE90E0F9C0C115C4
:1030400051E5D50708F06CC0C11520E5D207F0F0B6
:10305000CE01F4E096958795FA95E1F7282F237035
:103060003C2F337081E090E002C0880F991F3A95A1
:10307000E2F79C68922B2C2F2F702695269540E224
:10308000249F90011124822B932BD2C0C83ED105DE
:1030900070F5C03ED10508F0CBC0C83AD105B8F4F0
:1030A000C53AD10550F02C2F255AC22FD0E0CA5670
:1030B000DE4F888190E09064BBC0C130D10509F437
:1030C000B7C008F4B3C0249708F4B0C0B1C0CF3B78
:1030D000D10508F0ABC02C2F285AC22FD0E0CC0F5E
:1030E000DD1FC756DE4F888199819464A1C0C11548
:1030F00040E2D40760F4C11551E0D50708F098C04C
:10310000C03FD10508F492C0CE01906591C0C115B1
:1031100080E4D80708F48AC0CE019F70906A88C006
:10312000C11595E5D90708F040C0C11524E5D207BF
:1031300028F09C2F8827846F906A7AC0C11543E5D8
:10314000D407A8F09E012370332781E090E002C0ED
:10315000880F991F2A95E2F72C2F2695269540E295
:10316000249F90011124822B932B9A6861C0C11572
:1031700052E5D50728F49C2F8827816F906A58C0A4
:103180009E012370332781E090E002C0880F991FD1
:103190002A95E2F72C2F2695269550E2259F90013F
:1031A0001124822B932B9C6843C0C11589E5D80755
:1031B000B0F4C11598E5D90728F09C2F8827806FB7
:1031C000906A36C0C11526E5D20780F58C2F0E9483
:1031D000BA148F7190E0982F8827906229C0C1158A
:1031E0004AE5D40790F48C2F8F700E94BA149E0188
:1031F00094E0369527959A95E1F72F7030E0322FBD
:1032000022273069A901482B0FC0CE0190568115A5
:10321000904260F48D2F8F710E94BA149E01332763
:1032200030628F71A901582BCA0102C080E090E082
:10323000DF91CF9108959091F90190FF3BC091707B
:10324000811102C0926006C08B3210F0946502C0FA
:10325000880F982B9093F9018091000281608093F0
:103260000002662351F06091F9017091FA0180919A
:10327000FB019091FC010E9477156091F901669520
:1032800070E04BE050E08EE291E00E94E731892B44
:1032900019F00E945B2C02C00E94DD2C81E080931B
:1032A000F60120E04091FC016091FB018091FA0160
:1032B0000C94701608958091F9018695815009F457
:1032C0008AE261E00C941B198091F90186958F5F69
:1032D0008B3208F081E061E00C941B196F927F92B1
:1032E0008F929F92AF92BF92CF92DF92EF92FF9216
:1032F0000F931F93CF93DF936BE371E007ED11E022
:103300002BEDA22E21E0B22E3801C0E0EE24E39492
:10331000F12CDB018D91BD01E82FE295EF70F0E01B
:1033200021A18F70A70102C0440F551F8A95E2F7B3
:10333000CA01242B21A322A1942E9094292122A3F7
:1033400050EA5A95F1F793E4C92E91E0D92E40E066
:1033500050E0D0E0D6018D906D01282D22952F7080
:1033600030E0D90190962C9130E0B82DBF7002C0AA
:1033700035952795BA95E2F720FD07C02E2D042E2E
:1033800001C0220F0A94EAF701C020E0D22B4F5F60
:103390005F4F48305105F1F691A1992291A292A177
:1033A000892B82A3F3018081D81719F0D08381E0A3
:1033B00001C080E0C82BFFEF6F1A7F0A2BED621669
:1033C00021E0720609F0A5CFF090E001CC2349F08E
:1033D00081E080936D020E948F2290936C02809313
:1033E0006B0280916D028823A9F080916B0290910D
:1033F0006C020E947422069768F0EF2DF0E0E8510D
:10340000FE4FD8018D918D018193AA16BB06C9F795
:1034100010926D020E945417882309F456C010912F
:10342000DF01809100028823E9F085E0E9EFF1E017
:10343000A8ECB1E001900D928A95E1F78091FE0130
:103440009091FF01A09100028093CD019093CE0155
:10345000A093CF0181E090E00E940C30892B11F401
:103460001092000280E090E00E940C30892B09F05D
:103470009BC0E12FF0E0E851FE4F80E090E0DC01DE
:10348000AF52BE4F2C912193019684309105B9F72C
:10349000E091E401F0E0EF5FFD4F8091D501908174
:1034A000891B982F19162CF4915020812F5F2083AF
:1034B000F9CF982F87FD90E0891B882309F471C00C
:1034C0008F5F908191509083F8CFE091E0010E2FB3
:1034D00010E08091D001883009F04CC08091CF017C
:1034E00080FF25C09091C8018091F90190FF0AC02A
:1034F00081608093F9018091C80160E086950E9407
:103500001B1915C08E7F8093F9010E945B2C80915E
:103510000002816080930002BFEFE0E7F2E0B1506B
:10352000E040F040E1F700C000000E94FD148091EF
:10353000CF0181FF09C020E04091CB016091CA0119
:103540008091C9010E9470168091CF0182FF09C04D
:103550008091CE01882319F00E94DD2C02C00E94C8
:103560005B2C8091CF0183FF03C081E08093F60143
:103570001092D001F801E851FE4F80E090E02191D7
:10358000DC01AF52BE4F2C93019684309105B9F700
:10359000E0910402F0E0EF5FFD4F80818093D50160
:1035A00013C010926E0210C080916E028F5F8093E4
:1035B0006E02863048F0E091DF01F0E0E851FE4F06
:1035C00010821182128213828C2FDF91CF911F9172
:1035D0000F91FF90EF90DF90CF90BF90AF909F90B2
:1035E0008F907F906F900895CF93DF93C091900656
:1035F000D09191068A30B1F420918702CE018A5889
:103600009240622F70E00E94B931281B822F66E041
:103610000E949F31C82FC15008F48FC080E20E94E1
:10362000F41AF9CF8D30E9F4CA58D24020918702BC
:10363000622F70E0CE010E94B931281B822F9E01BB
:10364000280F311D2115344018F080E0C0E0D0E093
:10365000C80FD11DC657DD4FD0939106C093900679
:103660006CC096E0FE01AAE8B6E001900D929A9532
:10367000E1F7803E30F086E0FE0111928A95E9F78D
:103680000BC0F6E08F9FB00111246A5A754F46E0D7
:1036900050E0CE010E94EB30C0919006D09191068F
:1036A00046E050E0BE018AE896E00E94F431892BA2
:1036B00049F19E012A583240A90186E05695479566
:1036C0008A95E1F781E090E0BC0102C0660F771FA8
:1036D0004A95E2F74091880250918902462B572B78
:1036E0002A5F3F4F66E0369527956A95E1F702C05D
:1036F000880F991F2A95E2F7842B952B90938902C6
:10370000809388029E012458324040918702642FA2
:1037100070E0C9010E94B931481B463010F4240FF3
:10372000311D211584E0380710F020E030E02657E5
:103730003D4F3093910620939006DF91CF910895ED
:10374000CF93DF93EC01FE018491882321F00E9446
:10375000F41A2196F8CFDF91CF910895EF92FF925E
:103760000F931F93CF93DF93EC017B0164E670E02E
:1037700088E70E94EB2D8C01EC0EFD1ECE15DF05B7
:1037800061F017FD0AC0FE01849164E670E00E94BA
:10379000422E8C012196892B89F30E94C62EC801E6
:1037A000DF91CF911F910F91FF90EF900895EF92CD
:1037B000FF920F931F93CF93DF937C018B010E94A5
:1037C000F82C811119C0E70101151105A1F08091B4
:1037D000E80085FD0AC08091E8008E778093E800BC
:1037E0000E94F82C882381F307C089918093F1000F
:1037F00001501109E9CF80E0DF91CF911F910F9126
:10380000FF90EF9008951F93CF93DF93CDB7DEB76E
:10381000AA970FB6F894DEBF0FBECDBFEFE7F2E078
:103820008091F100819322E0E738F207C9F7809197
:103830008002833009F460C030F4813071F082304E
:1038400009F49AC0B1C08A3009F486C08B3009F4FB
:103850006BC0893009F0A8C020C080917F02813AF6
:1038600009F0A2C08091E800877F8093E8008091F2
:10387000830290918402892B21F468E083E792E02F
:1038800003C060E080E090E070E00E947F2D8091B6
:10389000E8008B778093E80087C080917F028132B7
:1038A00009F082C08091830290918402029708F00F
:1038B0007BC08091E800877F8093E8008091E800DA
:1038C00082FD05C080917D028111F8CF6DC02091ED
:1038D000F3008091F20090E0922B029729F48091FE
:1038E000F1008B7F813021F48091F100809372028E
:1038F0008091E8008B7754C080917F02813A09F073
:1039000053C08091830290918402892B09F04CC0AE
:103910008091E800877F8093E8008091E80080FF35
:10392000FCCF80912D0137C080917F028132E1F57B
:103930008091830290918402892BB1F58091E800F7
:10394000877F8093E8000E942B2D809181028093D5
:103950002D010E94282728C080917F02813221F505
:103960008091E800877F8093E8000E942B2D809152
:1039700082028093710218C080917F02813AA1F483
:103980008091E800877F8093E8008091E80080FFC5
:10399000FCCF809171028093F1008091E8008E77D6
:1039A0008093E8000E942B2D8091E80083FFD8C10E
:1039B00080917F0290918002492F50E04A3051055A
:1039C00008F0CEC1FA01EA58FF4F0C94E13180387B
:1039D00021F0823809F0C4C108C080917B02909127
:1039E0007C02992389F082600FC0809183028F70DE
:1039F000873008F0B5C18093E9008091EB0085FB2A
:103A0000882780F91092E9009091E800977F9093C1
:103A1000E8008093F1001092F10071C1282F2D7FF2
:103A200009F09EC1882319F0823061F099C180911C
:103A30008102813009F094C1933009F080E08093D5
:103A40007C022EC08091810281112AC08091830264
:103A50008F702FEF280F263008F082C18093E90085
:103A60002091EB0020FF1CC0933021F48091EB00EB
:103A7000806214C09091EB0090619093EB0021E084
:103A800030E0A90102C0440F551F8A95E2F7409328
:103A9000EA001092EA008091EB0088608093EB00CE
:103AA0001092E9008091E800877F2CC1811158C1F4
:103AB000109181021F778091E3008078812B8093A1
:103AC000E3008091E800877F8093E8000E942B2D1F
:103AD0008091E80080FFFCCF8091E30080688093B4
:103AE000E300111102C082E001C083E080937D02F7
:103AF00037C18058823008F033C1809181029091A3
:103B000082028C3D53E0950779F583E08A838AE24F
:103B100089834FB7F894DE01139620E03EE051E22E
:103B2000E32FF0E050935700E49120FF03C0E295AB
:103B3000EF703F5FEF708E2F90E0EA3010F0C79685
:103B400001C0C0968D939D932F5F243149F74FBFDD
:103B50008091E800877F8093E8006AE270E0CE0100
:103B600001960E947F2DBAC0409183025091840239
:103B7000292F332723303105B1F068F42130310586
:103B800009F4FDC02230310509F0EAC08BE390E072
:103B9000EDECF9E050C02132310581F122323105DE
:103BA00009F439C0DDC0992781309105B9F070F072
:103BB00082309105D9F0039709F0D2C0EAE1FAE02A
:103BC000E4918E2F90E0EAE1FAE032C0E2E5FAE01B
:103BD000E4918E2F90E0E2E5FAE02AC0E0E4FAE01A
:103BE000E4918E2F90E0E0E4FAE022C0E0E2FAE017
:103BF000E4918E2F90E0E0E2FAE01AC04115510501
:103C000009F4C2C04130510509F0AAC089E090E032
:103C1000E8EFF9E010C04115510509F4BAC0413090
:103C2000510509F09DC081E890E0ECE0F9E003C0A7
:103C3000009709F495C02091E800277F2093E800C1
:103C400020918502309186028217930708F49C0127
:103C500040E02115310589F180917D02882309F426
:103C60003DC08530D9F18091E80083FD37C0809157
:103C7000E80082FD2FC08091E80080FFEACF4091EC
:103C8000F3008091F20090E0942B2115310559F05A
:103C90008830910540F444914093F10031962150D1
:103CA00031090196F2CF41E0089709F040E0809198
:103CB000E8008E778093E800CCCF4111CDCF0AC0C9
:103CC00080917D02882351F0853041F08091E80099
:103CD00083FD04C08091E80082FFF2CF8091E8006C
:103CE0008B778093E8003CC08038D1F58091E80064
:103CF000877F8093E80080917E028093F10080911D
:103D0000E8008E778093E8000E942B2D29C0811156
:103D100027C080918102909182029927029704F531
:103D20008091E800877F8093E800109181021093D2
:103D30007E020E942B2D111106C08091E30087FDA9
:103D400002C081E001C084E080937D0242E061EC2A
:103D500081E00E944A2D42E261EC82E00E944A2DFD
:103D60008091E80083FF1AC08091E800877F8093EC
:103D7000E8008091EB0080628093EB000FC082E14D
:103D800090E0E8E0FAE057CF89E090E0EFEDF9E06D
:103D900052CF80E490E0EDE8F9E04DCFAA960FB65F
:103DA000F894DEBF0FBECDBFDF91CF911F91089574
:103DB0001F920F920FB60F9211242F933F934F93A0
:103DC0005F936F937F938F939F93AF93BF93CF93A3
:103DD000DF93EF93FF93C091E900CF708091EC00E7
:103DE000D82FD17080FDD0E81092E9008091F000CA
:103DF000877F8093F00078940E94031C1092E90062
:103E00008091F00088608093F000CD2BCF70C0933C
:103E1000E900FF91EF91DF91CF91BF91AF919F9119
:103E20008F917F916F915F914F913F912F910F9063
:103E30000FBE0F901F901895E8EDF0E080818E7F07
:103E400080831092E2001092DA001092E100A0EE5E
:103E5000B0E08C9181608C9380818F77808319BCD6
:103E6000A7EDB0E08C918E7F8C9380818F7E8083D4
:103E7000109270020895CF92DF92EF92FF920F930B
:103E80001F93CF93DF93C8EDD0E088818F7E888326
:103E9000E7EDF0E080818160808384E082BF81E093
:103EA0008093700288818E7F888302EE10E0F80193
:103EB00010821092DA0081EEC82ED12CF601108209
:103EC00088818F77888388818068888388818F7DC7
:103ED000888319BC10927D0210927E0210927C029F
:103EE00010927B0290EEE92EF12CF70180818B7FFE
:103EF000808388818160888342E060E080E00E9466
:103F00004A2DF60180818E7F8083F8018081816057
:103F10008083808188608083F70180818E7F8083A9
:103F2000888180618883DF91CF911F910F91FF90ED
:103F3000EF90DF90CF9008951F920F920FB60F92DF
:103F400011242F933F934F935F936F937F938F939E
:103F50009F93AF93BF93EF93FF938091E10082FF14
:103F600009C08091E20082FF05C08091E1008B7F53
:103F70008093E1008091DA0080FF2AC08091D80010
:103F800080FF26C08091DA008E7F8093DA008091D6
:103F9000D90080FF18C080E189BD82E189BD09B4E4
:103FA00000FEFDCF81E080937D028091700281113F
:103FB0000FC00E941C1F0E943B1F8091E200846082
:103FC0008093E20005C019BC10927D02109270022D
:103FD0008091E10080FF17C08091E20080FF13C054
:103FE0008091E2008E7F8093E2008091E200806108
:103FF0008093E2008091D80080628093D80019BC41
:1040000085E080937D028091E10084FF32C0809141
:10401000E20084FF2EC080E189BD82E189BD09B440
:1040200000FEFDCF8091D8008F7D8093D8008091D5
:10403000E1008F7E8093E1008091E2008F7E80938B
:10404000E2008091E20081608093E20080917E0234
:10405000882311F084E007C08091E30087FD02C04F
:1040600081E001C083E080937D020E9428270E94A6
:10407000152C8091E10083FF27C08091E20083FF2F
:1040800023C08091E100877F8093E10082E08093EC
:104090007D0210927E028091E1008E7F8093E1008C
:1040A0008091E2008E7F8093E2008091E200806147
:1040B0008093E20042E060E080E00E944A2D80911F
:1040C000F00088608093F000FF91EF91BF91AF9175
:1040D0009F918F917F916F915F914F913F912F9120
:1040E0000F900FBE0F901F90189580917202089547
:1040F000CF93DF9300D01F92CDB7DEB790917D02B2
:10410000943019F589837B836A8382E08093E90088
:104110008FEF9091E800815095FD06C095ED9A953E
:10412000F1F700008111F5CF8091E80085FF0DC007
:1041300040E050E063E070E0CE0101960E94D71BA2
:104140008091E8008E778093E8000F900F900F9099
:10415000DF91CF910895CF93DF93EC010E94DD2D85
:10416000823011F0843031F4BE0184E0DF91CF91D0
:104170000C947820DF91CF910895BC0183E00C94DA
:104180007820CF93DF93EC010E94DD2D823011F077
:104190008430F9F482E08093E9008FEF9091E80099
:1041A000815095FD06C095ED9A95F1F700008111BB
:1041B000F5CF8091E80085FF0CC040E050E066E05C
:1041C00070E0CE010E94D71B8091E8008E7780932B
:1041D000E800DF91CF910895CF93DF93EC010E9427
:1041E000DD2D823011F0843039F581E08093E900D3
:1041F0008FEF9091E800815095FD06C095ED9A955E
:10420000F1F700008111F5CF8091E80085FF14C01F
:1042100040E050E068E070E0CE010E94D71B809142
:10422000E8008E778093E80088E0FE01A3E7B2E023
:1042300001900D928A95E1F7DF91CF910895803F2B
:1042400039F480915C0287FF6CC010925C0269C0F7
:10425000813F29F480915C021816BCF362C09091F2
:104260005B02823F29F497FF5CC010925B0259C049
:10427000833F19F41916CCF354C0893F41F480915F
:104280005D0218160CF04DC010925D024AC08A3FC4
:1042900029F480915D0287FF44C0F6CF8B3F39F44B
:1042A00080915E0287FF3DC010925E023AC08C3F53
:1042B00029F480915E021816BCF333C0843F21F4C8
:1042C00080915A028E7F17C0853F21F480915A0257
:1042D0008D7F11C0863F21F480915A028B7F0BC0E5
:1042E000873F21F480915A02877F05C0883F31F4CF
:1042F00080915A028F7E80935A0213C08D3F21F421
:10430000809107078E7F0BC08E3F21F480910707B5
:104310008D7F05C08F3F29F4809107078B7F8093A5
:10432000070780915B0281110EC080915C028111B0
:104330000AC080915D02811106C080915E028111E8
:1043400002C01092560208958091070780FD16C0A2
:1043500081FD16C082FD18C080915602882391F01D
:10436000883290F428E0829FC001112468E270E056
:104370000E94CD31862F672B29F007C082E0089577
:1043800084E0089581E0089588E00895809107070A
:1043900080FD14C081FD14C082FD16C080915602BC
:1043A000882381F0843180F422E3829FC0011124AC
:1043B00064E170E00E94CD31862F08958CE008956D
:1043C00089E1089585E0089582E30895803F21F40E
:1043D0000E94C621819504C0813F29F40E94C62114
:1043E00080935C020895823F21F40E94C62181954A
:1043F00004C0833F29F40E94C62180935B02089584
:10440000893F19F40E94A42105C08A3F31F40E941B
:10441000A421819580935D0208958B3F21F40E9431
:10442000A421819504C08C3F29F40E94A42180938B
:104430005E020895843F21F480915A02816017C082
:10444000853F21F480915A02826011C0863F21F499
:1044500080915A0284600BC0873F21F480915A02F8
:10446000886005C0883F31F480915A028061809352
:104470005A0208958D3F21F48091070781600BC097
:104480008E3F21F480910707826005C08F3F29F499
:1044900080910707846080930707089578941F929E
:1044A0000F920FB60F9211248F939F93AF93BF93E8
:1044B0008091030790910407A0910507B09106072A
:1044C0000196A11DB11D8093030790930407A0934B
:1044D0000507B0930607BF91AF919F918F910F9001
:1044E0000FBE0F901F9018959C014FB7F8948091C4
:1044F000030790910407A0910507B09106074FBFED
:10450000821B930B08952FB7F89460910307709165
:10451000040780910507909106072FBF08952FB7D4
:10452000F8948091030790910407A0910507B0913A
:1045300006072FBF0895E091E501F091E60130975D
:1045400049F082E0809359020480F581E02D89E5ED
:1045500092E009950E948F22909355028093540215
:1045600008951F920F920FB60F9211248F939F936D
:10457000AF93BF938091E701811113C0809103072E
:1045800090910407A0910507B09106074196A11DDF
:10459000B11D8093030790930407A0930507B09380
:1045A0000607BF91AF919F918F910F900FBE0F9013
:1045B0001F9018959C012A5F3F4FFC0142814613D2
:1045C00001C01282019682179307B9F708959C01E2
:1045D000FC0132969FEF80E04191461789F09F3FA2
:1045E00019F4411101C0982F8F5F8630A9F79F3FC2
:1045F00039F0F901E90FF11D97FDFA9562830895ED
:104600000895CF9384E090E00E94F430C82F81E2B7
:1046100090E00E94F4302C2F30E0A901582BCA0101
:10462000CF9108956CEE7EEF80E090E00E942631FD
:1046300060E082E090E00E94083160E083E090E07A
:104640000E9408311092FF06109200071092010795
:104650001092020760E084E090E00E94083160E080
:1046600081E290E00E94083160E085E090E00E94E5
:10467000083160E086E090E00E9408316FEF87E04B
:1046800090E00E94083140E050E0BA0188E090E0FC
:104690000E941A3160E08DE090E00E94083140E015
:1046A00050E0BA0188E190E00E941A3160E087E1B1
:1046B00090E00E94083140E050E0BA018CE190E0C7
:1046C0000E941A3160E080E290E00E94083140E0F0
:1046D00050E0BA018FE090E00E941A3140E050E0D3
:1046E000BA0183E190E00C941A318091FE068111A9
:1046F0001092FE0608959091FD068091FC06892B8C
:104700002091FB06982F922B909392068091FE06A3
:10471000882389F0892B80939206E4E9F6E097E0FC
:1047200080E0915029F021912223D9F38F5FF9CFB6
:1047300081110E947523E091E501F091E601309727
:1047400031F00280F381E02D82E996E0099408952A
:10475000BF92CF92DF92EF92FF920F931F93CF936E
:10476000DF938C01C0900602D0900702E09008020F
:10477000F09009028091FF0690910007A091010737
:10478000B0910207C82AD92AEA2AFB2ACFE1D0E051
:10479000D701C6010C2E04C0B695A79597958795AD
:1047A0000A94D2F780FD04C0219790F7B12C07C07E
:1047B000BC2EB8018C2F0E9471170197A9F38B2D85
:1047C000DF91CF911F910F91FF90EF90DF90CF90ED
:1047D000BF900895CF93DF93EC010E94A823BE0100
:1047E0000E947117DF91CF91089528E0929F800D6C
:1047F0001124682F669566956695982F977085E0C9
:10480000689FB001112440E050E080E0FB01E40F1C
:10481000F51FEE52F94F208130E0092E02C0369587
:1048200027950A94E2F721703327042E01C0220F46
:104830000A94EAF7822B4F5F5F4F4530510531F7FD
:10484000089528E0929F800D1124E82FE695E695C3
:10485000E695877051E001C0550F8A95EAF785E02B
:10486000E89FF0011124EE52F94F20E030E070E0B3
:104870004081CB01022E02C0969587950A94E2F7FB
:104880008170819584278523842781932F5F3F4FF3
:104890002530310569F70895609306027093070289
:1048A00080930802909309020C940D270F931F9395
:1048B00041E050E060E070E004C0440F551F661F07
:1048C000771F8A95D2F740955095609570958091A5
:1048D000060290910702A0910802B09109028A0194
:1048E0009B01082319232A233B23C901B8011F91E7
:1048F0000F910C944C242091FA068095822380938A
:10490000FA06982F977079F430E0482F082E000CA3
:10491000550B2417350739F08595859585950E94A7
:1049200056241092FA0608950F931F9341E050E029
:1049300060E070E004C0440F551F661F771F8A9522
:10494000D2F78091060290910702A0910802B091DF
:1049500009028A019B01082B192B2A2B3B2BC90129
:10496000B8011F910F910C944C246093FF06709333
:10497000000780930107909302070C940D27809104
:10498000D1069091A006891719F08F5F8770FBCF31
:1049900008950F931F93CF93DF9380919F06829585
:1049A0008F7009F05DC080919C06882309F458C07F
:1049B0008091D1061091A00660919A0670919B0695
:1049C000C0919D06D0919E0691E06F3F09F090E066
:1049D000292F06E0811709F443C0209721F07F3F7B
:1049E00021F030E003C031E001C0322F90E030FD13
:1049F00034C0089FF001099FF00D1124DF01AF556D
:104A0000B94F11963C911197371327C03C9136133B
:104A100024C012963C91129731111FC013964D91EC
:104A20005C9114974C1B5D0B483C5105B0F4809190
:104A30009F068F70806180939F06EA55F94F8081B1
:104A40008F70806180838AE996E00E941D0FDF915C
:104A5000CF911F910F910C94BF2401968770BACF0C
:104A6000DF91CF911F910F9108950E94EA23292F82
:104A70002F70E92FE295EF704E2F50E0FA01329738
:104A8000EE30F105B8F4E058FF4F0C94E131803F6F
:104A900099F018F4883E70F40FC0843F59F40CC0AC
:104AA000883E50F0813F31F407C0822F869586956D
:104AB0008695089580E0089581E008959F92AF92D1
:104AC000BF92CF92DF92EF92FF920F931F93CF93FB
:104AD000DF93CDB7DEB761970FB6F894DEBF0FBE98
:104AE000CDBF8C0185E0F801DE011D9601900D928D
:104AF0008A95E1F7F80190818181E28030919A06F0
:104B000060919B0640919D0650919E06411551056E
:104B100031F06F3F31F421E03F3F19F403C021E051
:104B200001C020E0F22FF1709F2E20FD23C1F8017B
:104B3000C380D4802AE9A22E26E0B22EF0909C06F3
:104B4000F601E41BF50BFF2009F4CEC020919F066F
:104B5000E83CF10508F099C0422F407F09F051C0B0
:104B6000681311C039130FC0FE2CE1100CC02F7058
:104B7000206120939F06C5010E941D0F80919F0612
:104B8000F801858337C1CD2831F08F3F31F421E022
:104B90009F3F19F403C021E001C020E020FD03C0C5
:104BA00021E02E2502C020E030E0F22FF170FF2E30
:104BB00020FF1DC02091D1064091A00656E0241789
:104BC00009F4F6C030E0529FF001539FF00D11241C
:104BD000EF55F94F6181861306C06081961303C0BB
:104BE0006281E61204C02F5F3F4F2770E8CFFE2C92
:104BF000EE2009F4FFC080919F06816080939F069C
:104C000050C0681307C0391305C0E11003C0F80194
:104C100025838DC09D878E878D859E850E94352535
:104C2000882369F1EE2059F120919F06822F829509
:104C30008F7090E0029774F080919A0690919B0695
:104C400098878F831986DB86CA862C87CE010796C4
:104C50000E941D0F86E0F801AAE9B6E001900D92CE
:104C60008A95E1F70E94C9240DC06817E1F09D877D
:104C70008E878D859E850E94352581111EC0C801B5
:104C80000E941D0FFF24F394B5C0422F407F69F7A7
:104C90008AE996E00E941D0F86E0F50111928A953F
:104CA000E9F7F12CA7C03913E2CFE110E0CFF8010A
:104CB0002583C8010E941D0F57C0EE2001F32091EB
:104CC0009F06822F82958F7090E002971CF2809150
:104CD0009A0690919B069A8389831B82DD82CC82FF
:104CE0002E83CE010196B4CFE83CF105E8F5FE2C09
:104CF000EE2029F2681327C0391325C020919F06A2
:104D000020FD18C0822F82958F70482F50E04115EA
:104D1000510581F0F80125834F30510541F08F5F37
:104D2000982F9295907F822F8F70892B8583C80151
:104D30000E941D0F86E0F801AAE9B6E001900D92ED
:104D40008A95E1F757C09D878E878D859E850E9445
:104D5000352581117FCF80919F06816080939F06CA
:104D6000C8010E941D0F46C086E0F50111928A9588
:104D7000E9F740C0EE2009F482CF9D878E878D85AC
:104D80009E850E943525F82E882309F478CF86E089
:104D9000F801AAE9B6E001900D928A95E1F78091B9
:104DA0009A0690919B060E94EA230E94C92422C081
:104DB0009D878E878D859E850E94EA23292F2295C7
:104DC0002F70223028F49F7039F0811105C00BC07C
:104DD000243028F49F7049F4805E883020F0C801A8
:104DE0000E941D0F9F2CF92C05C0F8019581907F22
:104DF00099F7F9CF8F2D61960FB6F894DEBF0FBEED
:104E0000CDBFDF91CF911F910F91FF90EF90DF9079
:104E1000CF90BF90AF909F9008951092FC06109293
:104E2000FB060E947B23E9E5F2E086E0DF011D92AC
:104E30008A95E9F710925602109207070E949B226A
:104E400080E090E00E94FF2B80E090E00C94E92B42
:104E50001092FD0686E0E4E9F6E0DF011D928A95F6
:104E6000E9F70C940D27882341F080959091FD0679
:104E700089238093FD060C947B230895882339F0C1
:104E80009091FD06892B8093FD060C947B23089559
:104E9000882309F463C0823869F40E94152C81FFCD
:104EA0005DC069E382E996E00E94E7220E947B23CD
:104EB00069E30EC0833891F40E94152C80FF4EC028
:104EC00063E582E996E00E94E7220E947B2363E586
:104ED00082E996E00E94DA220C947B23843869F4FC
:104EE0000E94152C82FF3AC067E482E996E00E9496
:104EF000E7220E947B2367E4EBCF9CEF980F913A67
:104F000010F4682FE5CF90E2980F983088F48770FE
:104F100021E030E0A90102C0440F551F8A95E2F755
:104F2000CA0180959091FD0689238093FD06D4CF18
:104F30009BE5980F933020F480E090E00C94FF2BD9
:104F400098E5980F973120F480E090E00C94E92BDD
:104F5000803F20F00E941F210C949B220895CF9344
:104F6000882309F49EC0C82F8238B1F40E94152C02
:104F700081FD97C069E382E996E00E94E7220E94E2
:104F80007B232FEF81EE94E0215080409040E1F7A9
:104F900000C0000069E317C08338E1F40E94152CBB
:104FA00080FD7FC063E582E996E00E94E7220E94CF
:104FB0007B232FEF81EE94E0215080409040E1F779
:104FC00000C0000063E582E996E00E94DA22CF91FA
:104FD0000C947B238438B1F40E94152C82FD61C0AF
:104FE00067E482E996E00E94E7220E947B232FEF8C
:104FF00081EE94E0215080409040E1F700C0000035
:1050000067E4E1CF8CEF8C0F813A80F4E4E9F6E0BD
:105010008AE996E02191C217E1F18E179F07D1F737
:105020006C2F82E996E00E94E722D1CF80E28C0FBC
:10503000883068F4C77081E090E001C0880FCA959D
:10504000EAF79091FD06892B8093FD06C0CFEBE532
:10505000EC0FE33040F4F0E0EA56FE4F808190E040
:10506000CF910C94FF2BE8E5EC0FE73150F4F0E022
:10507000EE0FFF1FE756FE4F80819181CF910C9478
:10508000E92BC03F70F08C2F0E94E621CF910C9449
:105090009B226C2F82E996E00E94DA220E947B23F9
:1050A000BFCFCF91089508958F929F92AF92BF92F4
:1050B000CF92DF92EF92FF920F931F93CF93DF93E4
:1050C000FC01B280948081E0848300E015E05BE421
:1050D000A52E88248394EE24EA94F12C7BE4C72E39
:1050E000D12C80910801081708F08FC0C02FD0E0A4
:1050F0001C9FF0011D9FF00D1124E95BF84F9110EA
:1051000003C01382128267C02381222389F12150B8
:1051100023833481332319F09A2D921B01C0922FDF
:105120008091FC011C9FF0011D9FF00D1124E95B93
:10513000F84F899FC0011124B6010E94B9316283E2
:10514000211104C0332311F01482A38222E02B1515
:1051500008F441C01C9FF0011D9FF00D1124E95B74
:10516000F84F8091FA0180838091FB01818333C0E5
:105170000E94DB308230914074F582E08B1530F470
:105180000E94DB30B7010E94CD3102C08091FA014C
:105190001C9FF0011D9FF00D1124E95BF84F8083E7
:1051A00022E02B1558F40E94DB302091FB0126955C
:1051B000622F70E00E94CD31820F02C08091FB010E
:1051C0001C9FF0011D9FF00D1124E95BF84F8183B6
:1051D0001282A3828482809106019E01280F311DD4
:1051E000C901880F991F280F391F255F384F1C9F51
:1051F000F0011D9FF00D1124E95BF84F42816181A0
:1052000080810E94C2150F5F6CCFDF91CF911F91FB
:105210000F91FF90EF90DF90CF90BF90AF909F9055
:105220008F900C94FD140F931F93CF93DF93EC0199
:1052300000E010E080910801282F30E002171307EA
:1052400024F5909106019801290F311DA901440F01
:10525000551F240F351F255F384F869590E04C81F0
:10526000081719071CF4442331F002C0411103C090
:105270004091FC0101C040E06091FB018091FA0186
:105280000E94C2150F5F1F4FD5CF0E94FD148C8165
:1052900090E00196817099278C83DF91CF911F91C7
:1052A0000F9108950F931F93CF93DF938C01FC010F
:1052B0008481958101968170992795838483C0E0CC
:1052C000D5E580910801C81700F5809106012C2FC3
:1052D00030E0280F311DC901880F991F280F391F91
:1052E000255F384F4C2F4695F80184819581840FB6
:1052F000911D81704091FC016091FB018D9F802D7B
:1053000011240E94C215CF5FDCCFDF91CF911F9196
:105310000F910C94FD141F93CF93DF93EC018C81BC
:10532000811109C081E08C831092090792E090936B
:105330003A01809339018091060190910701891704
:1053400070F4E82FF0E09F01220F331FE20FF31FEC
:10535000E55FF84F1182108212828F5FF0CF10E06C
:10536000609108011617C0F5E12FF0E070E0CF0161
:105370000E94CD3120910601820F20910907022E53
:10538000000C330B90E0E217F307CCF020913A01C8
:10539000022E000C330B2E173F078CF09C01220FBE
:1053A000331F820F931F9C01255F384F4091FC01F2
:1053B0006091FB018091FA010E94C2150BC0FC01B3
:1053C000EE0FFF1F8E0F9F1FFC01E55FF84F11824C
:1053D000108212821F5FC4CF0E94FD148091390198
:1053E00020910907280F2093090790913A01980FFF
:1053F00090933A0119165CF4022E000C330B409185
:10540000080150E0415051092417350734F08195C7
:1054100080933901813009F41C82DF91CF911F9173
:1054200008958F929F92AF92BF92CF92DF92EF92A8
:10543000FF920F931F93CF93DF93EC018A8180FF3C
:1054400003C0BB24BA9402C0BB24B3948C818111E5
:105450000DC081E0B81206C0809108018150809390
:10546000080702C01092080781E08C83A12C44E158
:10547000942E80910801A81608F044C0809106017E
:10548000CA2CD12C8601080F111DC801880F991F45
:10549000080F191F055F184FF80111821082128240
:1054A00034E0E32EF12C812C80910807880D8531A2
:1054B0002CF0692D0E94AB31892F05C087FF03C0F6
:1054C00090910801890F082E000C990BC816D90677
:1054D00091F48091FC018E9DA0018F9D500D1124AF
:1054E000559547955595479598016091FB01809199
:1054F000FA010E94C2158B0CF1E0EF1AF108A1F637
:10550000A394B7CF0E94FD148091080791E0B912CF
:105510000EC0811107C08091080181508093080757
:105520001C820FC0815080930807BC820AC090E0A3
:1055300001966091080170E00E94CD3180930807C8
:105540008C83DF91CF911F910F91FF90EF90DF90AF
:10555000CF90BF90AF909F908F900895FF920F9340
:105560001F93CF93DF93EC01F12C0FEF10E06091CC
:105570000801F616F0F4809106012F2D30E0280F77
:10558000311DC901880F991F280F391F255F384F1A
:1055900070E0C8010E94CD31962F8C814091FC01B2
:1055A0006091FB01F99E800D11240E94C215F394B5
:1055B000DECF0E94FD149A818C8190FF02C08F5F24
:1055C00001C081508C83DF91CF911F910F91FF908B
:1055D00008950F931F93CF93DF9300D01F92CDB701
:1055E000DEB78C0180910A0781110AC09E012F5FEE
:1055F0003F4F4FEF6FEF0E94C2158A8180930A07D9
:10560000F8018481813051F028F0823061F44091BA
:105610000A070AC080910A0740E007C060910A07A4
:1056200040E080E003C040E080E060E00E94491577
:10563000F801848190E0019663E070E00E94CD3132
:1056400084830F900F900F90DF91CF911F910F9156
:105650000895CF93DF93EC01E9EFF1E0438162819C
:105660008C810E9456168C818F5F8C83DF91CF9145
:105670000895CF93DF93EC01EC81F0E0EA56F04F10
:105680004491E9EFF1E0628181810E9456168C819C
:105690008F5F8C83DF91CF9108951F93CF93DF931A
:1056A000CDB7DEB767970FB6F894DEBF0FBECDBF9C
:1056B0004B8B5C8B6D8B7E8B8F8B86E09E01235F8B
:1056C0003F4FD901E82F1D92EA95E9F795E0FE01D9
:1056D0007396D90101900D929A95E1F7F901DE01D7
:1056E000179601900D928A95E1F7CE0107960E94D8
:1056F0005E2581113EC086E0FE013796DE011196DF
:1057000001900D928A95E1F7FF81E8856A857B8596
:105710006115710531F0EF3F31F481E0FF3F19F47D
:1057200003C081E001C080E080FD23C02091A0067D
:1057300030E0C9010196877099274091D10650E069
:105740008417950779F1F983EA837D836C8396E06A
:10575000929FD001939FB00D1124AF55B94FFE0118
:10576000319601900D929A95E1F78093A0060E94E0
:10577000BF2416E08091D1069091A0068917F9F018
:10578000189FC00111248F55994F0E945E258823D0
:10579000B1F08091D10690E00196877099278093AF
:1057A000D106E8CF0E9428271092A0061092D106B9
:1057B000EAE9F6E086E0DF011D928A95E9F767964F
:1057C0000FB6F894DEBF0FBECDBFDF91CF911F9112
:1057D00008952091AF073091B0072817390771F06D
:1057E0009093B0078093AF07E091E501F091E60157
:1057F000309721F00084F185E02D099408952091DF
:10580000AD073091AE072817390771F09093AE07B6
:105810008093AD07E091E501F091E601309721F02A
:105820000680F781E02D09940895E091E501F0915B
:10583000E601309721F00190F081E02D099480E09D
:1058400008950E948322DC01CB01805A9541AF4F1D
:10585000BF4F80934C0290934D02A0934E02B093A1
:105860004F028091500281110BC062E070E086E926
:1058700090E10E94AE1B892B19F481E080935002C5
:105880008091500208959091F90190FF04C096957F
:10589000981740F003C0811105C090E0961710F4EE
:1058A0000C94641961E00C941B19882311F0FA011F
:1058B00001C0FB010994EEEFF1E011828281846066
:1058C000828308950F931F93CF93DF93C62FD42F16
:1058D000122FFC0182818823C9F0609369020E9423
:1058E0008F229093AC078093AB0780E28C0F8830B7
:1058F00008F05EC0C77081E001C0880FCA95EAF762
:10590000DF91CF911F910F910C943E2780916902F6
:1059100068133EC08091AB079091AC070E9474223F
:10592000883C9105A8F500E20D0FCD17B9F080E293
:105930008C0F883040F4C77081E001C0880FCA9591
:10594000EAF70E943327083048F481E09D2F9770D2
:1059500001C0880F9A95EAF70E943E27812F0E9486
:10596000AF27193349F4FFEF27EE83E0F1502040D1
:105970008040E1F700C00000812F0E9448270830D6
:10598000B8F4D77081E001C0880FDA95EAF70AC051
:1059900080E28C0F883060F4C77081E001C0880F0E
:1059A000CA95EAF7DF91CF911F910F910C9433279D
:1059B000DF91CF911F910F9108956091F901669544
:1059C00070E04BE050E08EE291E00E94E731892BDD
:1059D00019F481E08093FF010E948F229093F401DB
:1059E0008093F30180910002846080930002089507
:1059F0002091E4003091E50095E64091EC00842F81
:105A0000817040FF23C08091E80080FD1DC080911F
:105A10007D02882399F0853099F08091EB0085FD17
:105A200011C04091E4005091E5002417350729F397
:105A3000915011F09A01E1CF84E0089582E0089539
:105A400083E0089581E0089580E008954091E800A2
:105A500042FFDDCF089580917F0287FF11C08091C2
:105A6000E80082FD05C080917D028111F8CF11C050
:105A70008091E8008B770BC080917D02882349F0EC
:105A80008091E80080FFF8CF8091E8008E778093C6
:105A9000E8000895982F973068F59093E9009817DB
:105AA00039F07091EC002091ED005091F00003C0AE
:105AB000242F762F50E021FD02C09F5FECCF309164
:105AC000EB003E7F3093EB003091ED003D7F309353
:105AD000ED003091EB0031603093EB007093EC00FF
